:100000000C9474000C9495000C9495000C9495003D
:100010000C9495000C9495000C9495000C9495000C
:100020000C9495000C9495000C9495000C949500FC
:100030000C9495000C9495000C9495000C949500EC
:100040000C9495000C9495000C9495000C949500DC
:100050000C949B000C9495000C9495000C949500C6
:100060000C9495000C9495000C9495000C949500BC
:100070000C9495000C9495000C9495000C949500AC
:100080000C9495000C9495000C9495000C9495009C
:100090000C9495000C9495000C9495000C9495008C
:1000A0000C9495000C9495000C9495000C9495007C
:1000B0000C9495000C9495000C9495000C9495006C
:1000C0000C9495000C9495000C9495000C9495005C
:1000D0000C9495000C9495000C9495000C9495004C
:1000E0000C9495000C945A8B11241FBECFEFD1E2D3
:1000F000DEBFCDBF00E00CBF12E0A0E0B2E0E6E65C
:10010000FCE101E00BBF02C007900D92A03AB107DD
:10011000D9F712E0A0EAB2E001C01D92AC3FB107EE
:10012000E1F70E940C8A0C94318E0C94000084E05C
:100130000E945301FFCF1F920F920FB60F9211240E
:100140002F933F934F935F936F937F938F939F93DF
:100150002091A1023091A2024091A3025091A402E9
:100160006091A5027091A6028091A7029091A802C9
:100170005F5F6F4F7F4F8F4F9F4F2093A102309350
:10018000A2024093A3025093A4026093A50270932D
:10019000A6028093A7029093A8029F918F917F91CE
:1001A0006F915F914F913F912F910F900FBE0F90E4
:1001B0001F9018957F928F929F92AF92BF92CF928D
:1001C000DF92EF92FF920F931F93CF93DF93809173
:1001D000A002811123C01092A1021092A2021092DB
:1001E000A3021092A4021092A5021092A6021092ED
:1001F000A7021092A80281E085BD84E0809381006F
:1002000080916F00816080936F0016BC1092850012
:1002100010928400789481E08093A0028090840002
:100220009090850086B5E091A102E82BD091A202C2
:10023000C091A302B091A402A091A502F091A602E0
:100240007090A7021091A802940140E050E060E095
:1002500070E080E090E008E00E94208BE22BD32B3E
:10026000C42BB52BA62BF72B2E2F3D2F4C2F5B2FFE
:100270006A2F7F2F8729912BDF91CF911F910F91AB
:10028000FF90EF90DF90CF90BF90AF909F908F90B6
:100290007F9008951092C50089E18093C40088E1A1
:1002A0008093C10008959091A90291110BC0109202
:1002B000C50099E19093C40098E19093C10091E04A
:1002C0009093A9029091C00095FFFCCF8093C60047
:1002D0000895FC0120812223C9F0319649E138E1DB
:1002E00091E08091A902811108C01092C50040934D
:1002F000C4003093C1009093A9028091C00085FF93
:10030000FCCF2093C60021912111EBCF08955F927D
:100310006F927F928F929F92AF92BF92CF92DF9215
:10032000EF92FF920F931F93CF93DF93CDB7DEB77A
:100330002F970FB6F894DEBF0FBECDBF4C01809152
:10034000A90281110BC01092C50089E18093C400FD
:1003500088E18093C10081E08093A9028091C00070
:1003600085FFFCCF88E28093C600E62EF12C870142
:1003700001501109101611060CF088C0E80CF91C88
:10038000CE0101966C018EE7A82E82E0B82E99E18D
:10039000592E28E1622E7724739491E0E91AF1082E
:1003A0001F930F93F70180811F928F93BF92AF929B
:1003B000DF92CF920E94618B99810FB6F894DEBFD5
:1003C0000FBECDBF9923B9F0FE0132968091A902EC
:1003D000811108C01092C5005092C4006092C10003
:1003E0007092A9028091C00085FFFCCF9093C60057
:1003F00091919111EBCF015011090115110569F689
:100400001F930F93F40180811F928F938BE892E0EA
:100410009F938F93DF92CF920E94618B99810FB649
:10042000F894DEBF0FBECDBF9923D1F0FE01329606
:1004300049E138E121E08091A902811108C01092C0
:10044000C5004093C4003093C1002093A90280915D
:10045000C00085FFFCCF9093C60091919111EBCF26
:100460002F960FB6F894DEBF0FBECDBFDF91CF91B0
:100470001F910F91FF90EF90DF90CF90BF90AF90C2
:100480009F908F907F906F905F9008959E012F5F57
:100490003F4F6901B5CF2F923F924F925F926F927B
:1004A0007F928F929F92AF92BF92CF92DF92EF9204
:1004B000FF920F931F93CF93DF93CDB7DEB76C9767
:1004C0000FB6F894DEBF0FBECDBF922E832E742ED2
:1004D000652E562E472E382E292E188EA0E00E940B
:1004E000458B09F478C0CE0148969C8F8B8FE6E14E
:1004F000F0E0FA8FE98F3AE0A32EB12CC12CD12C79
:10050000E12CF12C00E010E0292D382D472D562D3F
:10051000652D742D832D922D0E94C18A205DEB8D57
:10052000FC8D2293FC8FEB8F898D9A8D01979A8F8A
:10053000898F292D382D472D562D652D742D832D0E
:10054000922D0E94C38A922E832E742E652E562ED3
:10055000472E382E292EA0E00E94458B61F6898D0A
:100560009A8D0196FE013196E80FF91F908199232B
:10057000C9F0319649E138E121E08091A902811169
:1005800008C01092C5004093C4003093C10020936E
:10059000A9028091C00085FFFCCF9093C600919185
:1005A0009111EBCF6C960FB6F894DEBF0FBECDBFA6
:1005B000DF91CF911F910F91FF90EF90DF90CF903F
:1005C000BF90AF909F908F907F906F905F904F9073
:1005D0003F902F90089587E190E0C4CF5F926F9293
:1005E0007F928F929F92AF92BF92CF92DF92EF92C3
:1005F000FF920F931F93CF93DF93CDB7DEB7C05415
:10060000D1090FB6F894DEBF0FBECDBF4C01E9E9AA
:10061000F2E090E349E138E121E08091A902811103
:1006200008C01092C5004093C4003093C1002093CD
:10063000A9028091C00085FFFCCF9093C6009191E4
:100640009111EBCFE62EF12C870101501109101604
:1006500011060CF087C0E80CF91CCE0101966C0164
:100660004BE9A42E42E0B42E59E1552E68E1662EE6
:100670007724739491E0E91AF108F70180811F92C1
:100680008F93BF92AF92DF92CF920E94618B99813C
:100690000F900F900F900F900F900F909923B9F03B
:1006A000FE0132968091A902811108C01092C50006
:1006B0005092C4006092C1007092A9028091C00063
:1006C00085FFFCCF9093C60091919111EBCF015023
:1006D00011090115110571F6F40180811F928F93A4
:1006E0008BE992E09F938F93DF92CF920E94618B70
:1006F00099810F900F900F900F900F900F9099236A
:10070000D1F0FE01329649E138E121E08091A90261
:10071000811108C01092C5004093C4003093C100FD
:100720002093A9028091C00085FFFCCF9093C60062
:1007300091919111EBCFC05CDF4F0FB6F894DEBF03
:100740000FBECDBFDF91CF911F910F91FF90EF9022
:10075000DF90CF90BF90AF909F908F907F906F90E1
:100760005F900895CE0101966C01B6CF2F923F9213
:100770004F925F926F927F928F929F92AF92BF92B1
:10078000CF92DF92EF92FF920F931F93CF93DF935D
:10079000CDB7DEB7C455D1090FB6F894DEBF0FBE92
:1007A000CDBF25969FAF8EAF259722960FAF22978C
:1007B00023961FAF23971901FA01D62EB72F980160
:1007C000A101BF018D2D9B2FA0E00E94458B09F454
:1007D0003FC50091AA021091AB027801E9A7629689
:1007E000FFAF62976396DFAE63976596BFAF65977D
:1007F00042C001E0E01AF108D701AA0FBB1FAA0FFF
:10080000BB1FA455BD4F0C9165969FAD6597F092A7
:10081000AB02E092AA022596EEADFFAD25970193BB
:100820002596FFAFEEAF259722962FAD2297239600
:100830003FAD2397A10169A562967FAD629763964C
:100840008FAD6397AFEF0E94398B22962FAF22971F
:1008500023963FAF23971A0169A762967FAF6297ED
:1008600063968FAF639765969FAF6597A0E00E94F0
:10087000458B09F4EDC4E114F10409F0BACFC0903E
:10088000CC02D090CD02E090CE02F090CF021FEFCC
:10089000C11AD10AE10AF10AC092CC02D092CD026B
:1008A000E092CE02F092CF020091D0021091D102DC
:1008B0002091D2023091D302C114D104E104F10499
:1008C00009F0B5C40F5F1F4F2F4F3F4F0093D00269
:1008D0001093D1022093D2023093D3020115110557
:1008E0002105310509F0A3C44091D4025091D502ED
:1008F0006091D6027091D7024F5F5F4F6F4F7F4F6D
:100900004093D4025093D5026093D6027093D702DD
:10091000411551056105710509F4B4C48090D802F0
:100920009090D902A090DA02B090DB022A013B013C
:1009300000E010E09801B701A60189E04827498F3F
:100940005A8F6B8F7C8FB901A80187E048274D8FA4
:100950005E8F6F8F78A39301820149E0042709A37A
:100960001AA32BA33CA3C501B401A3E06A276DA37E
:100970007EA38FA398A78090DC029090DD02A090C8
:10098000DE02B090DF0202E0802689829A82AB828A
:10099000BC822091E0023091E1024091E20250914C
:1009A000E30263E026272D833E834F83588780919F
:1009B000E4029091E502A091E602B091E702E8E03E
:1009C0008E2789879A87AB87BC878090E8029090B2
:1009D000E902A090EA02B090EB0204E080268D8646
:1009E0009E86AF86B88A2091EC023091ED0240914C
:1009F000EE025091EF0266E02627298B3A8B4B8B53
:100A00005C8B8091F0029091F102A091F202B09182
:100A1000F302E2E08E278D8B9E8BAF8BB88F809098
:100A2000F4029090F502A090F602B090F702F6E082
:100A30008F26C090F802D090F902E090FA02F09070
:100A4000FB0204E0C02625E030E040E050E0619683
:100A50002CAF3DAF4EAF5FAF619749E050E060E033
:100A600070E021964CAF5DAF6EAF7FAF219767E02E
:100A700070E080E090E02D966CAF7DAF8EAF9FAFC1
:100A80002D9782E090E0A0E0B0E029968CAF9DAF7A
:100A9000AEAFBFAF299703E010E020E030E009AF30
:100AA0001AAF2BAF3CAF28E030E040E050E02DAB78
:100AB0003EAB4FAB58AF43E050E060E070E049AB75
:100AC0005AAB6BAB7CAB63E070E080E090E06DA76D
:100AD0007EA78FA798AB40E050E0BA01B9A5649615
:100AE000BFAF64976596FFAD65978A019B0100577C
:100AF000144628483C4109A71AA72BA73CA74754EE
:100B00005648684C7146D701C601E3E08E27840F32
:100B1000951FA61FB71F260137012BE17694679416
:100B2000579447942A95D1F797018601000F111F1A
:100B3000221F331F000F111F221F331F000F111F11
:100B4000221F331F000F111F221F331F000F111F01
:100B5000221F331F402A512A622A732A8425952591
:100B6000A625B725098D1A8D2B8D3C8D080F191FD1
:100B70002A1F3B1F098F1A8F2B8F3C8F81E008277C
:100B8000040F151F261F371F498C5A8C6B8C7C8CC9
:100B9000A9E17694679457944794AA95D1F7898DE3
:100BA0009A8DAB8DBC8D880F991FAA1FBB1F880F14
:100BB000991FAA1FBB1F880F991FAA1FBB1F880F51
:100BC000991FAA1FBB1F880F991FAA1FBB1F880F41
:100BD000991FAA1FBB1F880F991FAA1FBB1F482A56
:100BE000592A6A2A7B2A04251525262537258D8D25
:100BF0009E8DAF8DB8A1800F911FA21FB31F8D8F47
:100C00009E8FAF8FB8A3E4E08E27840F951FA61F99
:100C1000B71F0D8D1E8D2F8D38A1E7E136952795D5
:100C200017950795EA95D1F74D8C5E8C6F8C78A05F
:100C3000E9E0440C551C661C771CEA95D1F70429A1
:100C400015292629372980279127A227B32709A10B
:100C50001AA12BA13CA1080F191F2A1F3B1F09A392
:100C60001AA32BA33CA3D901C80111E08127840F4B
:100C7000951FA61FB71F09A11AA12BA13CA1E3E153
:100C80003695279517950795EA95D1F749A05AA06B
:100C90006BA07CA0EDE0440C551C661C771CEA950B
:100CA000D1F7042915292629372980279127A2273A
:100CB000B3270DA11EA12FA138A5080F191F2A1FA8
:100CC0003B1F0DA31EA32FA338A7D901C80115E010
:100CD0008127840F951FA61FB71F4DA05EA06FA090
:100CE00078A41BE176946794579447941A95D1F7AA
:100CF0000DA11EA12FA138A5000F111F221F331F08
:100D0000000F111F221F331F000F111F221F331F3F
:100D1000000F111F221F331F000F111F221F331F2F
:100D2000402A512A622A732A84259525A625B725AB
:100D300009811A812B813C81080F191F2A1F3B1F33
:100D400009831A832B833C8389E00827040F151F2E
:100D5000261F371F49805A806B807C80A9E17694DA
:100D6000679457944794AA95D1F789819A81AB816A
:100D7000BC81880F991FAA1FBB1F880F991FAA1F2C
:100D8000BB1F880F991FAA1FBB1F880F991FAA1F7F
:100D9000BB1F880F991FAA1FBB1F880F991FAA1F6F
:100DA000BB1F880F991FAA1FBB1F482A592A6A2AEE
:100DB0007B2A04251525262537258D819E81AF8127
:100DC000B885800F911FA21FB31F8D839E83AF83B1
:100DD000B887E2E08E27840F951FA61FB71F0D81ED
:100DE0001E812F813885E7E1369527951795079560
:100DF000EA95D1F74D805E806F807884E9E0440CFD
:100E0000551C661C771CEA95D1F70429152926295B
:100E1000372980279127A227B32709851A852B8593
:100E20003C85080F191F2A1F3B1F09871A872B872C
:100E30003C87D901C80116E08127840F951FA61FA2
:100E4000B71F09851A852B853C85E3E136952795E3
:100E500017950795EA95D1F749845A846B847C8469
:100E6000EDE0440C551C661C771CEA95D1F704296B
:100E700015292629372980279127A227B3270D85F1
:100E80001E852F853889080F191F2A1F3B1F0D87C4
:100E90001E872F87388BD901C80115E08127840F61
:100EA000951FA61FB71F4D845E846F8478881BE151
:100EB00076946794579447941A95D1F70D851E85BB
:100EC0002F853889000F111F221F331F000F111F9C
:100ED000221F331F000F111F221F331F000F111F6E
:100EE000221F331F000F111F221F331F402A512AB8
:100EF000622A732A84259525A625B72509891A898A
:100F00002B893C89080F191F2A1F3B1F098B1A8B3D
:100F10002B8B3C8B83E00827040F151F261F371FE0
:100F200049885A886B887C88A9E17694679457949D
:100F30004794AA95D1F789899A89AB89BC89880F8A
:100F4000991FAA1FBB1F880F991FAA1FBB1F880FBD
:100F5000991FAA1FBB1F880F991FAA1FBB1F880FAD
:100F6000991FAA1FBB1F880F991FAA1FBB1F880F9D
:100F7000991FAA1FBB1F482A592A6A2A7B2A0425BF
:100F80001525262537258D899E89AF89B88D800F37
:100F9000911FA21FB31F8D8B9E8BAF8BB88FE5E087
:100FA0008E27840F951FA61FB71F0D891E892F89B5
:100FB000388DE7E13695279517950795EA95D1F78E
:100FC0004D885E886F88788CE9E0440C551C661C5F
:100FD000771CEA95D1F70429152926293729802776
:100FE0009127A227B327880E991EAA1EBB1ED501E2
:100FF000C40108E08027840F951FA61FB71F950125
:101000008401E3E13695279517950795EA95D1F781
:1010100024013501EDE0440C551C661C771CEA9553
:10102000D1F7042915292629372980279127A227B6
:10103000B327C80ED91EEA1EFB1E89A59AA5ABA52B
:10104000BCA584179507A607B70709F058CD0981F5
:101050001A812B813C818DA59EA5AFA5B8A9082733
:1010600019272A273B270DA71EA72FA738AB0D81CD
:101070001E812F81388589A99AA9ABA9BCA9082707
:1010800019272A273B2709AB1AAB2BAB3CAB0985A9
:101090001A852B853C858DA99EA9AFA9B8AD0827D7
:1010A00019272A273B270DAB1EAB2FAB38AF0D8579
:1010B0001E852F85388989AD9AADABADBCAD0827AB
:1010C00019272A273B2709AF1AAF2BAF3CAF8989D5
:1010D0009A89AB89BC8929960CAD1DAD2EAD3FAD6B
:1010E000299780279127A227B3274D885E886F888C
:1010F000788C2D960CAD1DAD2EAD3FAD2D974026B5
:1011000051266226732621960CAD1DAD2EAD3FAD46
:101110002197082519252A253B2521960CAF1DAFBF
:101120002EAF3FAF219761960CAD1DAD2EAD3FADFB
:1011300061970C251D252E253F254032E7E35E07EC
:10114000EFEE6E07E6EC7E0799F061960CAF1DAFEF
:101150002EAF3FAF61972D964CAE5DAE6EAE7FAEBB
:101160002D9729968CAF9DAFAEAFBFAF2997BDCC61
:1011700064964FAD649749A78DA49EA4AFA4B8A868
:101180008092AC029092AD02A092AE02B092AF02F9
:1011900049A95AA96BA97CA94093B0025093B10206
:1011A0006093B2027093B3028DA89EA8AFA8B8ACAA
:1011B0008092B4029092B502A092B602B092B702A9
:1011C00049AD5AAD6BAD7CAD4093B8025093B902B6
:1011D0006093BA027093BB028093BC029093BD02ED
:1011E000A093BE02B093BF024092C0025092C102CF
:1011F0006092C2027092C30221966CAD7DAD8EAD3D
:101200009FAD21976093C4027093C5028093C6027C
:101210009093C7020093C8021093C9022093CA0298
:101220003093CB0287E0E82EF12C9F2FF0CA40903C
:10123000D4025090D5026090D6027090D702809070
:10124000D8029090D902A090DA02B090DB0273CB62
:10125000CC5ADF4F0FB6F894DEBF0FBECDBFDF9183
:10126000CF911F910F91FF90EF90DF90CF90BF90A3
:10127000AF909F908F907F906F905F904F903F9036
:101280002F9008958091D8029091D902A091DA020E
:10129000B091DB020196A11DB11D8093D8029093FD
:1012A000D902A093DA02B093DB024C015D01412C1C
:1012B000512C320100E010E098013DCB6F927F92FB
:1012C0008F929F92AF92BF92CF92DF92EF92FF9256
:1012D0000F931F93CF93DF931F921F92CDB7DEB76B
:1012E0003B018A013C2D2D2DA5017C896D89E8A14A
:1012F000F9A11A821982FF93EF938E8C9F8CA12CF7
:10130000B12CC12CD12CE32EF22E272F362FBE016B
:101310006F5F7F4F0E94225C09811A81F301008375
:10132000118312821382148215821682178280E042
:1013300090E00F900F900F900F90DF91CF911F9141
:101340000F91FF90EF90DF90CF90BF90AF909F9064
:101350008F907F906F9008956F927F928F929F925F
:10136000AF92BF92CF92DF92EF92FF920F931F93B3
:10137000CF93DF931F921F92CDB7DEB73B01FA2DBB
:10138000EB2DA4017C896D89AE8DBF8D1A821982E7
:10139000BF93AF938C8C9D8CA12CB12CC12CD12CE4
:1013A000EF2EFE2E8901272F362FBE016F5F7F4F54
:1013B0000E946B7209811A81F301008311831282EA
:1013C000138214821582168217820F900F900F904D
:1013D0000F90DF91CF911F910F91FF90EF90DF90D1
:1013E000CF90BF90AF909F908F907F906F90089517
:1013F0002F923F924F925F926F927F928F929F9225
:10140000AF92BF92CF92DF92EF92FF920F931F9312
:10141000CF93DF93CDB7DEB7C857D1090FB6F89495
:10142000DEBF0FBECDBFE5969FAF8EAFE597AB9603
:101430007FAF6EAFAB97E3965FAF4EAFE3974832A7
:10144000510510F40C942419FC0144AC55AC66AC65
:1014500077ACC080D180E280F38040895189628975
:10146000738980A991A9A2A9B3A900A111A122A160
:1014700033A184809580A680B78089A69AA6ABA662
:10148000BCA684889588A688B7888DAA9EAAAFAA8C
:10149000B8AE84A895A8A6A8B7A861968CAE9DAE54
:1014A000AEAEBFAE619784A095A0A6A0B7A02996C6
:1014B0008CAE9DAEAEAEBFAE299780849184A284DF
:1014C000B3848DA69EA6AFA6B8AA808C918CA28C60
:1014D000B38C89AA9AAAABAABCAA80AC91ACA2ACE4
:1014E000B3ACA5968CAE9DAEAEAEBFAEA59780A4B4
:1014F00091A4A2A4B3A42D968CAE9DAEAEAEBFAE09
:101500002D9784849584A684B784A9968CAE9DAECD
:10151000AEAEBFAEA997848C958CA68CB78C89AEE5
:101520009AAEABAEBCAE84A495A4A6A4B7A46996AB
:101530008CAE9DAEAEAEBFAE6997460157016596C3
:101540008CAF9DAFAEAFBFAF6597DB01CA01730132
:10155000620141E0C426A196CCAEDDAEEEAEFFAE98
:10156000A19744E0E42EF12CB501A40165968CAC62
:101570009DACAEACBFAC6597AF96FFAFEEAFAF978B
:10158000F7012C013D01442655266626772648237F
:1015900059236A237B23440F551F661F771F442658
:1015A00055266626772684249524A624B7245A2D0A
:1015B000AB2CB82C892C952EB501A40140275127BE
:1015C00062277327082119212A213B21000F111FAF
:1015D000221F331F4027512762277327842795270F
:1015E000A627B7278C019D010F2EFBE03695279586
:1015F00017950795FA95D1F7F02D072E75E1880F0D
:10160000991FAA1FBB1F7A95D1F7702D802B912BA4
:10161000A22BB32B6C017D01C424D524E624F7242E
:10162000482259226A227B22440C551C661C771CD6
:10163000C424D524E624F7242196CCAEDDAEEEAE4C
:10164000FFAE21978C249D24AE24BF248401750114
:101650006596ECAEFDAE0EAF1FAF6597E426F5269E
:101660000627172765962CAC3DAC4EAC5FAC659752
:101670004221532164217521440F551F661F771F96
:10168000E426F526062717272596ECAEFDAE0EAF0D
:101690001FAF2597E826F9260A271B27EE0CFF1C0B
:1016A000001F111FE11C6D96ECAEFDAE0EAF1FAF1B
:1016B0006D974DA95EA96FA978AD49A45AA46BA4F2
:1016C0007CA444255525662577258DA99EA9AFA91B
:1016D000B8AD84219521A621B721880F991FAA1F93
:1016E000BB1F482759276A277B276196CCACDDAC06
:1016F000EEACFFAC6197C426D526E626F7265E2C15
:10170000EF2CFC2CCD2CD52C29968CAD9DADAEADFF
:10171000BFAD29978C259D25AE25BF2529960CADFB
:101720001DAD2EAD3FAD29970C211D212E213F214E
:10173000000F111F221F331F80279127A227B327D5
:101740000DA91EA92FA938AD082719272A273B273D
:1017500048015901072E7BE0B694A794979487948B
:101760007A95D1F7702D0F2EF5E1000F111F221F72
:10177000331FFA95D1F7F02D082919292A293B2979
:101780003801490164267526862697264023512371
:1017900062237323440F551F661F771F6426752627
:1017A0008626972669A67AA68BA69CA6C624D72449
:1017B000E824F9245601470161968CAE9DAEAEAE89
:1017C000BFAE619788269926AA26BB2661962CACC7
:1017D0003DAC4EAC5FAC619782219321A421B52131
:1017E000880F991FAA1FBB1F88269926AA26BB26E9
:1017F00029968CAE9DAEAEAEBFAE299780269126BF
:10180000A226B326880C991CAA1CBB1C811C8DAA7D
:101810009EAAAFAAB8AE89A99AA9ABA9BCA94DA4A2
:101820005EA46FA478A884259525A625B72549A987
:101830005AA96BA97CA94421552166217721440F1F
:10184000551F661F771F84279527A627B727A596BC
:101850004CAD5DAD6EAD7FADA597482759276A2782
:101860007B27562E672F742F452F552D2D96CCACE8
:10187000DDACEEACFFAC2D97C426D526E626F726C8
:101880002D960CAD1DAD2EAD3FAD2D970423152328
:1018900026233723000F111F221F331FC026D126F6
:1018A000E226F32609A91AA92BA93CA90C251D2576
:1018B0002E253F2548015901072E7BE0B694A794B9
:1018C000979487947A95D1F7702D0F2EF5E1000F3C
:1018D000111F221F331FFA95D1F7F02D082919295E
:1018E0002A293B2938014901682679268A269B2620
:1018F00080239123A223B323880F991FAA1FBB1F04
:10190000682679268A269B266DA67EA68FA698AA8B
:1019100046255725682579255A014B01A5968CAE99
:101920009DAEAEAEBFAEA597D501C4018C259D2559
:10193000AE25BF25C820D920EA20FB20CC0CDD1C19
:10194000EE1CFF1C8C259D25AE25BF251C012D01FD
:101950002026312642265326220C331C441C551CBB
:10196000211C29AA3AAA4BAA5CAAC9ACDAACEBACF6
:10197000FCACA9964CAC5DAC6EAC7FACA997C42412
:10198000D524E624F72449AC5AAC6BAC7CACA996C0
:101990008CAC9DACAEACBFACA997482059206A2056
:1019A0007B20440C551C661C771CC424D524E624DB
:1019B000F724A1968CAC9DACAEACBFACA1978C24A7
:1019C0009D24AE24BF240A2DAB2CB82C892C902E3C
:1019D00069960CAD1DAD2EAD3FAD69970825192553
:1019E0002A253B2569964CAD5DAD6EAD7FAD6997FF
:1019F000482159216A217B21440F551F661F771FFB
:101A0000042715272627372749AD5AAD6BAD7CAD86
:101A100040275127622773272A013B01032E3BE011
:101A200076946794579447943A95D1F7302D032EC6
:101A300035E1440F551F661F771F3A95D1F7302DBA
:101A400044295529662977292A013B014C245D2424
:101A50006E247F24C422D522E622F722CC0CDD1C82
:101A6000EE1CFF1C4C245D246E247F2484249524CA
:101A7000A624B724740165012D96CCAEDDAEEEAE82
:101A8000FFAE2D97C026D126E226F3262D968CACEC
:101A90009DACAEACBFAC2D97082119212A213B216A
:101AA000000F111F221F331FC026D126E226F32666
:101AB000970186010427152726273727000F111FB6
:101AC000221F331F011D09AF1AAF2BAF3CAF0DA969
:101AD0001EA92FA938AD21964CAD5DAD6EAD7FAD81
:101AE000219704271527262737274DA95EA96FA917
:101AF00078AD21968CAC9DACAEACBFAC21974821A3
:101B000059216A217B21440F551F661F771F042727
:101B10001527262737272D968CAC9DACAEACBFACD5
:101B20002D9780269126A226B326782D492D5A2D51
:101B30006B2D69964CAF5DAF6EAF7FAF699748274D
:101B400059276A277B2769968CAC9DACAEACBFAC9D
:101B5000699788219921AA21BB21880F991FAA1F63
:101B6000BB1F482759276A277B278DA89EA8AFA8A7
:101B7000B8AC84269526A626B726D501C401072E23
:101B80007BE0B695A795979587957A95D1F7702DB7
:101B90002D968CAF9DAFAEAFBFAF2D97D501C401D1
:101BA000072E75E1880F991FAA1FBB1F7A95D1F7E1
:101BB000702D2D968CAC9DACAEACBFAC2D9788290A
:101BC0009929AA29BB294C015D0180269126A226CC
:101BD000B326082319232A233B23000F111F221F9A
:101BE000331F80269126A226B32621968CAE9DAE69
:101BF000AEAEBFAE219769968CAC9DACAEACBFAC1F
:101C0000699721960CAD1DAD2EAD3FAD2197802675
:101C10009126A226B32694018501A1960CAF1DAF93
:101C20002EAF3FAFA1970427152726273727A19668
:101C30008CAC9DACAEACBFACA197482159216A21B8
:101C40007B21440F551F661F771F04271527262762
:101C500037272D960CAF1DAF2EAF3FAF2D9708271E
:101C600019272A273B27000F111F221F331F011D91
:101C70000DAB1EAB2FAB38AF49A95AA96BA97CA9F4
:101C800009A51AA52BA53CA5402751276227732734
:101C900089A99AA9ABA9BCA980239123A223B32324
:101CA000880F991FAA1FBB1F482759276A277B2720
:101CB00065968CAC9DACAEACBFAC65978426952682
:101CC000A626B7261A2DAB2CB82C892C912ED5011F
:101CD000C4018C259D25AE25BF25C820D920EA202A
:101CE000FB20CC0CDD1CEE1CFF1C8C259D25AE259D
:101CF000BF2509A91AA92BA93CA9082719272A2712
:101D00003B27680179010B2EBBE0F694E794D7944A
:101D1000C794BA95D1F7B02D0F2EF5E1000F111F22
:101D2000221F331FFA95D1F7F02D0C291D292E29DA
:101D30003F2968017901C426D526E626F7264023E7
:101D4000512362237323440F551F661F771FC42638
:101D5000D526E626F726C9A6DAA6EBA6FCA68C248D
:101D60009D24AE24BF24B401A50165964CAF5DAFA0
:101D70006EAF7FAF6597482759276A277B276596FF
:101D80008CAC9DACAEACBFAC659788219921AA21E3
:101D9000BB21880F991FAA1FBB1F482759276A27F5
:101DA0007B2769964CAF5DAF6EAF7FAF69974027D9
:101DB000512762277327440F551F661F771F411D48
:101DC00049AB5AAB6BAB7CAB09AD1AAD2BAD3CAD9F
:101DD000ADA4BEA4CFA4D8A80A251B252C253D253B
:101DE00089AD9AADABADBCAD8A219B21AC21BD21A3
:101DF000880F991FAA1FBB1F082719272A273B27CF
:101E00006196CCACDDACEEACFFAC6197C026D126C0
:101E1000E226F326BE2CEF2CFC2CCD2CDB2C2596B9
:101E20008CAD9DADAEADBFAD25978C259D25AE2566
:101E3000BF2525964CAD5DAD6EAD7FAD25974C2190
:101E40005D216E217F21440F551F661F771F842758
:101E50009527A627B72749AD5AAD6BAD7CAD48276E
:101E600059276A277B274A015B01072E7BE0B6943E
:101E7000A794979487947A95D1F7702D032E35E126
:101E8000440F551F661F771F3A95D1F7302D48290B
:101E900059296A297B294A015B0180269126A226BD
:101EA000B3260423152326233723000F111F221FD7
:101EB000331F80269126A226B3268DA69EA6AFA606
:101EC000B8AAC824D924EA24FB2496018701619684
:101ED0000CAF1DAF2EAF3FAF619768017901C826E7
:101EE000D926EA26FB2680239123A223B323880F39
:101EF000991FAA1FBB1FC826D926EA26FB26460122
:101F0000570184269526A626B726880C991CAA1C5C
:101F1000BB1C811C89AE9AAEABAEBCAE6D960CAD4F
:101F20001DAD2EAD3FAD6D97042515252625372512
:101F30006D968CAD9DADAEADBFAD6D9784219521F5
:101F4000A621B721880F991FAA1FBB1F0827192791
:101F50002A273B27A5964CAD5DAD6EAD7FADA5970D
:101F60004027512762277327962E672F742F452FFE
:101F7000592D29968CAC9DACAEACBFAC299784266C
:101F80009526A626B72629968CAD9DADAEADBFADE4
:101F9000299784239523A623B723880F991FAA1F67
:101FA000BB1F88269926AA26BB266D968CAD9DADB3
:101FB000AEADBFAD6D9788259925AA25BB252C010F
:101FC0003D01032E3BE076946794579447943A95ED
:101FD000D1F7302D072E75E1880F991FAA1FBB1F5F
:101FE0007A95D1F7702D84299529A629B7292C0136
:101FF0003D014026512662267326082319232A23F1
:102000003B23000F111F221F331F4026512662263B
:10201000732644255525662577258A01AB01B8012D
:102020008A019B01082519252A253B258422952212
:10203000A622B722880C991CAA1CBB1C08251925AE
:102040002A253B254801590188269926AA26BB2620
:10205000880C991CAA1CBB1C811C25968CAE9DAEBD
:10206000AEAEBFAE25973197309719F1D501C401B7
:10207000A9964CAE5DAE6EAE7FAEA997A5964CAF5D
:102080005DAF6EAF7FAFA59729960CAF1DAF2EAF9A
:102090003FAF29979701860165968CAC9DACAEAC9D
:1020A000BFAC659721964CAD5DAD6EAD7FAD219710
:1020B00068CA2996CCAEDDAEEEAEFFAE2997A596E6
:1020C0000CAF1DAF2EAF3FAFA5972596CCACDDACC6
:1020D000EEACFFAC2597AF96EEADFFADAF97A196F6
:1020E0000CAD1DAD2EAD3FADA19704AF15AF26AF22
:1020F00037AF21968CAD9DADAEADBFAD219780833E
:102100009183A283B3832D968CAC9DACAEACBFAC57
:102110002D9780A691A6A2A6B3A60DA91EA92FA9A8
:1021200038AD048B158B268B378B89A59AA5ABA56B
:10213000BCA584839583A683B78365968CAC9DAC40
:10214000AEACBFAC659780AA91AAA2AAB3AA6996C1
:102150000CAD1DAD2EAD3FAD699704A715A726A701
:1021600037A789A99AA9ABA9BCA9808F918FA28F03
:10217000B38F8DA49EA4AFA4B8A880869186A286B2
:10218000B38661960CAD1DAD2EAD3FAD619704AB2E
:1021900015AB26AB37AB29968CAD9DADAEADBFADC3
:1021A000299780A391A3A2A3B3A389AC9AACABACAB
:1021B000BCAC848E958EA68EB78E44865586668678
:1021C000778640AF51AF62AF73AFA5960CAD1DAD32
:1021D0002EAD3FADA59704A315A326A337A3C08AB0
:1021E000D18AE28AF38AAB96AEADBFADAB978D9143
:1021F0009D910D90BC91A02D21968CAC9DACAEAC68
:10220000BFAC219788269926AA26BB26E1968CAEDC
:102210009DAEAEAEBFAEE19780829182A282B382C4
:10222000AB96AEADBFADAB9714960D911D912D91B0
:102230003C91179789A49AA4ABA4BCA480269126AC
:10224000A226B32621968CAE9DAEAEAEBFAE219730
:1022500084829582A682B78218960D911D912D9148
:102260003C911B978DA49EA4AFA4B8A8802691266C
:10227000A226B32689A69AA6ABA6BCA6808691867E
:10228000A286B3861C960D911D912D913C911F97AE
:102290000425152526253725A9960CAF1DAF2EAF91
:1022A0003FAFA997048715872687378750962D90CB
:1022B0003D904D905C9053972C243D244E245F24F8
:1022C00025962CAE3DAE4EAE5FAE2597208A318A64
:1022D000428A538A54962D903D904D905C9057972A
:1022E0006DA87EA88FA898AC6224732484249524BA
:1022F0006D966CAE7DAE8EAE9FAE6D97648A758A1C
:10230000868A978A58968D909D90AD90BC905B97E9
:10231000C9A8DAA8EBA8FCA88C249D24AE24BF246D
:10232000808E918EA28EB38E5C96CD90DD90ED90D6
:10233000FC905F9709AD1AAD2BAD3CADC026D12600
:10234000E226F326C48ED58EE68EF78E90960D91FA
:102350001D912D913C91939729968CAD9DADAEAD7D
:10236000BFAD2997082719272A273B2700A311A3C8
:1023700022A333A3AB96AEADBFADAB9794962D9091
:102380003D904D905C909797A5968CAD9DADAEAD70
:10239000BFADA597282639264A265B2629962CAE5E
:1023A0003DAE4EAE5FAE299724A235A246A257A2FB
:1023B000E396AEADBFADE3979897E396BFAFAEAFF0
:1023C000E397AB968EAD9FADAB978896AB969FAFDC
:1023D0008EAFAB979897E8F1C9AEDAAEEBAEFCAE34
:1023E000A5964CAF5DAF6EAF7FAFA59789AA9AAAAD
:1023F000ABAABCAA29A43AA44BA45CA42DA63EA6D1
:102400004FA658AA6D964CAC5DAC6EAC7FAC6D9788
:102410004DAA5EAA6FAA78AE21966CAC7DAC8EAC4C
:102420009FAC219769A67AA68BA69CA6E1968CAC58
:102430009DACAEACBFACE197A1964CAC5DAC6EACC4
:102440007FACA19725968CAD9DADAEADBFAD259768
:102450007EC8DB01CA01A9964CAC5DAC6EAC7FAC0A
:10246000A997CDA6DEA6EFA6F8AAE9964CAE5DAE7A
:102470006EAE7FAEE997A5968CAF9DAFAEAFBFAF06
:10248000A5978DAA9EAAAFAAB8AE09AB1AAB2BAB83
:102490003CAB65964CAC5DAC6EAC7FAC659725965D
:1024A0008CAC9DACAEACBFAC2597E196CCACDDACB2
:1024B000EEACFFACE1978E010F5F1F4F88E2D801B1
:1024C0001D928A95E9F7E3964EAD5FADE397AB9623
:1024D0006EAD7FADAB97C8010E94518BE396EEAD18
:1024E000FFADE397E00FF11F81E0808388A580684E
:1024F00088A7A1962CAD3DAD4EAD5FADA19761E033
:102500002627A1962CAF3DAF4EAF5FAFA197E4E079
:10251000F0E0D701C6017501640109A91AA92BA928
:102520003CA96D968CAC9DACAEACBFAC6D97B701C1
:10253000A601482759276A277B278C219D21AE2198
:10254000BF21880F991FAA1FBB1F482759276A2739
:102550007B27D301C20184279527A627B727782E8A
:10256000492E5A2E6B2ED301C20180279127A22714
:10257000B3270421152126213721000F111F221F07
:10258000331F80279127A227B327C826D926EA26FA
:10259000FB26970186010F2EFBE0369527951795B0
:1025A0000795FA95D1F7F02D0B2EB5E1CC0CDD1C7B
:1025B000EE1CFF1CBA95D1F7B02DC02AD12AE22A11
:1025C000F32A9701860104271527262737274C2150
:1025D0005D216E217F21440F551F661F771F042741
:1025E00015272627372709AB1AAB2BAB3CABB90114
:1025F000A80144255525662577252A011B016596E6
:102600002CAE3DAE4EAE5FAE6597282639264A26E3
:102610005B2665960CAD1DAD2EAD3FAD6597802355
:102620009123A223B323880F991FAA1FBB1F28261B
:1026300039264A265B2629AE3AAE4BAE5CAE2C2438
:102640003D244E245F24220C331C441C551C211CA9
:1026500025962CAE3DAE4EAE5FAE259721960CADC5
:102660001DAD2EAD3FAD2197082519252A253B2507
:1026700021968CAD9DADAEADBFAD2197882199213E
:10268000AA21BB21880F991FAA1FBB1F0827192742
:102690002A273B276196CCACDDACEEACFFAC619752
:1026A000C026D126E226F3264E2DEF2CFC2CCD2C75
:1026B000D42E29964CAD5DAD6EAD7FAD29974C25DE
:1026C0005D256E257F2529968CAD9DADAEADBFAD48
:1026D00029978C219D21AE21BF21880F991FAA1F08
:1026E000BB1F482759276A277B2784269526A626BD
:1026F000B726D501C401072E7BE0B695A79597951F
:1027000087957A95D1F7702D072E75E1880C991C65
:10271000AA1CBB1C7A95D1F7702D882A992AAA2A5F
:10272000BB2AD501C40180279127A227B3270821FE
:1027300019212A213B21000F111F221F331F80273F
:102740009127A227B32761968CAF9DAFAEAFBFAFE5
:102750006197C826D926EA26FB2626011701A996E5
:102760002CAE3DAE4EAE5FAEA9972426352646264A
:102770005726A996CCACDDACEEACFFACA9974C21AA
:102780005D216E217F21440F551F661F771F242670
:102790003526462657266D962CAE3DAE4EAE5FAE24
:1027A0006D97282439244A245B24220C331C441CB2
:1027B000551C211C21962CAE3DAE4EAE5FAE21972E
:1027C0008DA99EA9AFA9B8ADE9A4FAA40BA51CA533
:1027D0008E259F25A027B1274DA95EA96FA978ADA9
:1027E0004E215F2160237123440F551F661F771F01
:1027F00084279527A627B727A5964CAC5DAC6EAC71
:102800007FACA597482659266A267B26F62C672C8E
:10281000742C452C5F2C2D960CAD1DAD2EAD3FAD0F
:102820002D9704251525262537252D964CAD5DAD14
:102830006EAD7FAD2D974421552166217721440F40
:10284000551F661F771F04271527262737274DA9F1
:102850005EA96FA978AD40275127622773276A01C7
:102860007B010B2EBBE0F694E794D794C794BA95FE
:10287000D1F7B02D032E35E1440F551F661F771F8A
:102880003A95D1F7302D4C295D296E297F294A01CF
:102890005B0188269926AA26BB2684239523A62396
:1028A000B723880F991FAA1FBB1F88269926AA261F
:1028B000BB2689A69AA6ABA6BCA6482459246A249E
:1028C0007B2462015301A596ACAEBDAECEAEDFAEA9
:1028D000A597D601C50180279127A227B3270A21F2
:1028E0001B212C213D21000F111F221F331F802788
:1028F0009127A227B3272C013D01442655266626A1
:102900007726440C551C661C771C411CCDA4DEA404
:10291000EFA4F8A8E9962CAD3DAD4EAD5FADE997BB
:10292000C226D326E426F5264DA55EA56FA578A977
:10293000E9968CAC9DACAEACBFACE997482159216F
:102940006A217B21440F551F661F771FC426D52699
:10295000E626F726A1968CAC9DACAEACBFACA19799
:102960008C249D24AE24BF24382D092D1A2D2B2D07
:102970000DAB1EAB2FAB38AF69960CAD1DAD2EADB8
:102980003FAD69978DA89EA8AFA8B8AC08251925BA
:102990002A253B2569964CAD5DAD6EAD7FAD69973F
:1029A000482159216A217B21440F551F661F771F3B
:1029B00004271527262737278DA49EA4AFA4B8A8DF
:1029C00080269126A226B326B501A401032E3BE062
:1029D00076956795579547953A95D1F7302D2D9671
:1029E0004CAF5DAF6EAF7FAF2D97B501A401032E45
:1029F00035E1440F551F661F771F3A95D1F7302DEB
:102A00002D968CAC9DACAEACBFAC2D974829592906
:102A10006A297B294A015B018C249D24AE24BF24B2
:102A2000C422D522E622F722CC0CDD1CEE1CFF1CB2
:102A30008C249D24AE24BF2429968CAE9DAEAEAED0
:102A4000BFAE29978DA89EA8AFA8B8AC2996CCACEC
:102A5000DDACEEACFFAC29978C249D24AE24BF24C2
:102A600074016501CDAADEAAEFAAF8AEC026D12670
:102A7000E226F3268DA89EA8AFA8B8AC082119219C
:102A80002A213B21000F111F221F331FC026D126F0
:102A9000E226F326970186010427152726273727E4
:102AA000000F111F221F331F011D0DA71EA72FA7E7
:102AB00038AB21964CAD5DAD6EAD7FAD219789A849
:102AC0009AA8ABA8BCA8482559256A257B2521963C
:102AD0000CAD1DAD2EAD3FAD2197082119212A2146
:102AE0003B21000F111F221F331F40275127622750
:102AF00073278DA89EA8AFA8B8AC84269526A626D5
:102B0000B726382D092D1A2D2B2D0DAB1EAB2FAB53
:102B100038AF082719272A273B278DA89EA8AFA8DA
:102B2000B8AC88219921AA21BB21880F991FAA1F1F
:102B3000BB1F082719272A273B2721968CAC9DAC61
:102B4000AEACBFAC219780269126A226B326D50134
:102B5000C401072E7BE0B695A795979587957A9542
:102B6000D1F7702D2D968CAF9DAFAEAFBFAF2D9727
:102B7000D501C401072E75E1880F991FAA1FBB1F3D
:102B80007A95D1F7702D2D968CAC9DACAEACBFACC8
:102B90002D9788299929AA29BB294C015D018426F2
:102BA0009526A626B726482359236A237B23440F5C
:102BB000551F661F771F84269526A626B72689AA45
:102BC0009AAAABAABCAA8DA89EA8AFA8B8AC49A9DE
:102BD0005AA96BA97CA984269526A626B726B401F6
:102BE000A501A1964CAF5DAF6EAF7FAFA197402717
:102BF000512762277327A1968CAC9DACAEACBFACBD
:102C0000A197082119212A213B21000F111F221F02
:102C1000331F40275127622773272D964CAF5DAF96
:102C20006EAF7FAF2D97482759276A277B27440F20
:102C3000551F661F771F411DAD964CAF5DAF6EAF40
:102C40007FAFAD9761960CAD1DAD2EAD3FAD6197D9
:102C5000042515252625372561968CAD9DADAEAD95
:102C6000BFAD619784219521A621B721880F991FB7
:102C7000AA1FBB1F082719272A273B2765968CAD5B
:102C80009DADAEADBFAD659780279127A227B32735
:102C9000B82E892E9A2EAB2ED501C4018C259D25E8
:102CA000AE25BF25C820D920EA20FB20CC0CDD1C96
:102CB000EE1CFF1C8C259D25AE25BF25AC01BD015A
:102CC00044255525662577256A017B010B2EBBE03F
:102CD000F694E794D794C794BA95D1F7B02D032E04
:102CE00035E1440F551F661F771F3A95D1F7302DF8
:102CF0004C295D296E297F291A012B0120263126B6
:102D0000422653260423152326233723000F111FA1
:102D1000221F331F202631264226532621962CAE11
:102D20003DAE4EAE5FAE2197920181010825192577
:102D30002A253B253801290165964CAE5DAE6EAE65
:102D40007FAE6597482659266A267B266596ACACE9
:102D5000BDACCEACDFAC65978A219B21AC21BD21F7
:102D6000880F991FAA1FBB1F482659266A267B2653
:102D700069964CAE5DAE6EAE7FAE69974426552621
:102D800066267726440C551C661C771C411C4DAAF0
:102D90005EAA6FAA78AE0DA51EA52FA538A9C9A455
:102DA000DAA4EBA4FCA40C251D252E253F258DA51A
:102DB0009EA5AFA5B8A98C219D21AE21BF21880F6A
:102DC000991FAA1FBB1F082719272A273B27A99647
:102DD000CCACDDACEEACFFACA997C026D126E22688
:102DE000F3264E2DEF2CFC2CCD2CD42E89AD9AAD94
:102DF000ABADBCAD8C259D25AE25BF2549AD5AADEB
:102E00006BAD7CAD4C215D216E217F21440F551FA0
:102E1000661F771F84279527A627B7274DA55EA590
:102E20006FA578A9482759276A277B274A015B01A4
:102E3000072E7BE0B694A794979487947A95D1F760
:102E4000702D032E35E1440F551F661F771F3A95ED
:102E5000D1F7302D482959296A297B291A012B01DC
:102E600020263126422653260423152326233723E2
:102E7000000F111F221F331F202631264226532602
:102E800029A63AA64BA65CA6C224D324E424F524A2
:102E90003601270161964CAE5DAE6EAE7FAE619796
:102EA00093018201082719272A273B27842195218E
:102EB000A621B721880F991FAA1FBB1F0827192712
:102EC0002A273B2758016901A426B526C626D726FE
:102ED000AA0CBB1CCC1CDD1CA11CADA6BEA6CFA69B
:102EE000D8AA25968CAD9DADAEADBFAD25972996E0
:102EF000CCACDDACEEACFFAC29978C259D25AE2586
:102F0000BF2525964CAD5DAD6EAD7FAD25974C21AF
:102F10005D216E217F21440F551F661F771F842777
:102F20009527A627B727A5964CAC5DAC6EAC7FACB9
:102F3000A597482659266A267B26D62C672C742C02
:102F4000452C5D2C6D968CAC9DACAEACBFAC6D973A
:102F500084249524A624B7246D964CAD5DAD6EAD4A
:102F60007FAD6D974421552166217721440F551F70
:102F7000661F771F84269526A626B7262596CCACF5
:102F8000DDACEEACFFAC2597C824D924EA24FB24A1
:102F9000B701A601032E3BE07695679557954795B7
:102FA0003A95D1F7302D0B2EB5E1CC0CDD1CEE1C83
:102FB000FF1CBA95D1F7B02DC42AD52AE62AF72AE4
:102FC000B701A601482759276A277B278C219D2115
:102FD000AE21BF21880F991FAA1FBB1F4827592761
:102FE0006A277B274426552666267726C2012301B9
:102FF0003C01D301C20188259925AA25BB2584203F
:103000009520A620B720880C991CAA1CBB1C8825DB
:103010009925AA25BB25C826D926EA26FB26CC0C4D
:10302000DD1CEE1CFF1CC11C3197309719F1E9968D
:103030004CAF5DAF6EAF7FAFE997A5964CAE5DAE7E
:103040006EAE7FAEA59729968CAF9DAFAEAFBFAFEA
:103050002997AD968CAC9DACAEACBFACAD976596E8
:103060004CAC5DAC6EAC7FAC659789A99AA9ABA955
:10307000BCA95DCA43013201A1962CAC3DAC4EAC5B
:103080005FACA197E596EEADFFADE59724AE35AE0A
:1030900046AE57AE2D962CAC3DAC4EAC5FAC2D97EA
:1030A00020A631A642A653A665962CAC3DAC4EACEC
:1030B0005FAC659720AA31AA42AA53AA69962CACA4
:1030C0003DAC4EAC5FAC699724A635A646A657A684
:1030D00061962CAC3DAC4EAC5FAC619724AA35AA8E
:1030E00046AA57AA60AE71AE82AE93AE89809A802E
:1030F000AB80BC8029A83AA84BA85CA88224932462
:10310000A424B52480829182A282B3828D809E8085
:10311000AF80B88421962CAC3DAC4EAC5FAC21970F
:1031200082249324A424B52484829582A682B78223
:1031300089849A84AB84BC8429A43AA44BA45CA45B
:1031400082249324A424B52480869186A286B38603
:103150008D849E84AF84B88884269526A626B726BB
:1031600084869586A686B78649895A896B897C8923
:103170004C255D256E257F25408B518B628B738B93
:103180004D895E896F89788DAD962CAC3DAC4EAC87
:103190005FACAD974225532564257525448B558B2F
:1031A000668B778B498D5A8D6B8D7C8D2DA83EA8B3
:1031B0004FA858AC4225532564257525408F518F63
:1031C000628F738F4D8D5E8D6F8D78A12DA43EA47F
:1031D0004FA458A84225532564257525448F558F43
:1031E000668F778F49A15AA16BA17CA140275127F7
:1031F0006227732740A351A362A373A34DA15EA1CD
:103200006FA178A5482759276A277B2744A355A390
:1032100066A377A3C858DF4F0FB6F894DEBF0FBE82
:10322000CDBFDF91CF911F910F91FF90EF90DF9075
:10323000CF90BF90AF909F908F907F906F905F9056
:103240004F903F902F900895DC01DC962D903D909B
:103250004D905C90DF97A1962CAE3DAE4EAE5FAE2A
:10326000A197CD90DD90ED90FC90139750968D90A6
:103270009D90AD90BC905397D0964D905D906D9081
:103280007C90D39790962D913D914D915C91939721
:1032900029AB3AAB4BAB5CAB14962D913D914D9164
:1032A0005C91179721962CAF3DAF4EAF5FAF219742
:1032B00054962D913D914D915C9157976D962CAF01
:1032C0003DAF4EAF5FAF6D97D4962D913D914D912F
:1032D0005C91D79761962CAF3DAF4EAF5FAF6197D2
:1032E00094962D913D914D915C91979729962CAF95
:1032F0003DAF4EAF5FAF299718962D913D914D91FF
:103300005C911B9729A73AA74BA75CA758962D91CC
:103310003D914D915C915B972DAB3EAB4FAB58AF60
:10332000D8962D913D914D915C91DB97A5962CAF50
:103330003DAF4EAF5FAFA59798962D913D914D91C2
:103340005C919B972D962CAF3DAF4EAF5FAF2D9705
:103350001C962D913D914D915C911F97E9962CAF54
:103360003DAF4EAF5FAFE9975C962D913D914D918A
:103370005C915F972DA73EA74FA758AB9C962D91C8
:103380003D914D915C919F9769962CAF3DAF4EAFAB
:103390005FAF699790C82F923F924F925F926F9262
:1033A0007F928F929F92AF92BF92CF92DF92EF92D5
:1033B000FF920F931F93CF93DF93CDB7DEB7C8571C
:1033C000D1090FB6F894DEBF0FBECDBFE5969FAF13
:1033D0008EAFE597AB967FAF6EAFAB97E3965FAFDF
:1033E0004EAFE3974832510510F40C94F728FC01D6
:1033F00044AC55AC66AC77ACC080D180E280F38041
:10340000408951896289738980A991A9A2A9B3A928
:1034100000A111A122A133A184809580A680B7804C
:1034200089A69AA6ABA6BCA684889588A688B788E4
:103430008DAA9EAAAFAAB8AE84A895A8A6A8B7A838
:1034400061968CAE9DAEAEAEBFAE619784A095A0E6
:10345000A6A0B7A029968CAE9DAEAEAEBFAE299702
:1034600080849184A284B3848DA69EA6AFA6B8AAB8
:10347000808C918CA28CB38C89AA9AAAABAABCAA84
:1034800080AC91ACA2ACB3ACA5968CAE9DAEAEAE0A
:10349000BFAEA59780A491A4A2A4B3A42D968CAE90
:1034A0009DAEAEAEBFAE2D9784849584A684B784BE
:1034B000A9968CAE9DAEAEAEBFAEA997848C958C0E
:1034C000A68CB78C89AE9AAEABAEBCAE84A495A4E4
:1034D000A6A4B7A469968CAE9DAEAEAEBFAE6997FA
:1034E0004601570165968CAF9DAFAEAFBFAF6597F4
:1034F000DB01CA017301620144E0C426A196CCAE8F
:10350000DDAEEEAEFFAEA19744E0E42EF12CB501A6
:10351000A40165968CAC9DACAEACBFAC6597AF9684
:10352000FFAFEEAFAF97F7012C013D0144265526C2
:1035300066267726482359236A237B23440F551F89
:10354000661F771F442655266626772684249524F1
:10355000A624B7245A2DAB2CB82C892C952EB50156
:10356000A4014027512762277327082119212A2106
:103570003B21000F111F221F331F402751276227B5
:10358000732784279527A627B7278C019D010F2E27
:10359000FBE03695279517950795FA95D1F7F02D0D
:1035A000072E75E1880F991FAA1FBB1F7A95D1F7C7
:1035B000702D802B912BA22BB32B6C017D01C42489
:1035C000D524E624F724482259226A227B22440C7F
:1035D000551C661C771CC424D524E624F7242196A8
:1035E000CCAEDDAEEEAEFFAE21978C249D24AE2492
:1035F000BF24840175016596ECAEFDAE0EAF1FAF22
:103600006597E426F5260627172765962CAC3DAC72
:103610004EAC5FAC65974221532164217521440F64
:10362000551F661F771FE426F526062717272596C0
:10363000ECAEFDAE0EAF1FAF2597E826F9260A27A0
:103640001B27EE0CFF1C001F111FE11C6D96ECAE3A
:10365000FDAE0EAF1FAF6D974DA95EA96FA978ADF6
:1036600049A45AA46BA47CA4442555256625772536
:103670008DA99EA9AFA9B8AD84219521A621B72116
:10368000880F991FAA1FBB1F482759276A277B2726
:103690006196CCACDDACEEACFFAC6197C426D52610
:1036A000E626F7265E2CEF2CFC2CCD2CD52C29966B
:1036B0008CAD9DADAEADBFAD29978C259D25AE25BA
:1036C000BF2529960CAD1DAD2EAD3FAD29970C2120
:1036D0001D212E213F21000F111F221F331F802784
:1036E0009127A227B3270DA91EA92FA938AD082716
:1036F00019272A273B2748015901072E7BE0B6945A
:10370000A794979487947A95D1F7702D0F2EF5E1B1
:10371000000F111F221F331FFA95D1F7F02D082932
:1037200019292A293B29380149016426752686264C
:1037300097264023512362237323440F551F661F8E
:10374000771F642675268626972669A67AA68BA6F5
:103750009CA6C624D724E824F92456014701619683
:103760008CAE9DAEAEAEBFAE619788269926AA26D6
:10377000BB2661962CAC3DAC4EAC5FAC6197822110
:103780009321A421B521880F991FAA1FBB1F88264A
:103790009926AA26BB2629968CAE9DAEAEAEBFAEAC
:1037A000299780269126A226B326880C991CAA1C4C
:1037B000BB1C811C8DAA9EAAAFAAB8AE89A99AA9E2
:1037C000ABA9BCA94DA45EA46FA478A884259525B7
:1037D000A625B72549A95AA96BA97CA94421552139
:1037E00066217721440F551F661F771F8427952771
:1037F000A627B727A5964CAD5DAD6EAD7FADA5975D
:10380000482759276A277B27562E672F742F452F65
:10381000552D2D96CCACDDACEEACFFAC2D97C4266F
:10382000D526E626F7262D960CAD1DAD2EAD3FAD67
:103830002D970423152326233723000F111F221F42
:10384000331FC026D126E226F32609A91AA92BA9DF
:103850003CA90C251D252E253F2548015901072E81
:103860007BE0B694A794979487947A95D1F7702DBE
:103870000F2EF5E1000F111F221F331FFA95D1F70C
:10388000F02D082919292A293B29380149016826E0
:1038900079268A269B2680239123A223B323880F8F
:1038A000991FAA1FBB1F682679268A269B266DA60C
:1038B0007EA68FA698AA46255725682579255A0100
:1038C0004B01A5968CAE9DAEAEAEBFAEA597D50111
:1038D000C4018C259D25AE25BF25C820D920EA200E
:1038E000FB20CC0CDD1CEE1CFF1C8C259D25AE2581
:1038F000BF251C012D012026312642265326220CED
:10390000331C441C551C211C29AA3AAA4BAA5CAAA8
:10391000C9ACDAACEBACFCACA9964CAC5DAC6EAC13
:103920007FACA997C424D524E624F72449AC5AAC2B
:103930006BAC7CACA9968CAC9DACAEACBFACA99783
:10394000482059206A207B20440C551C661C771C9B
:10395000C424D524E624F724A1968CAC9DACAEAC4F
:10396000BFACA1978C249D24AE24BF240A2DAB2C80
:10397000B82C892C902E69960CAD1DAD2EAD3FADA7
:103980006997082519252A253B2569964CAD5DAD1B
:103990006EAD7FAD6997482159216A217B21440F83
:1039A000551F661F771F042715272627372749AD80
:1039B0005AAD6BAD7CAD40275127622773272A0192
:1039C0003B01032E3BE076946794579447943A95D5
:1039D000D1F7302D032E35E1440F551F661F771F99
:1039E0003A95D1F7302D44295529662977292A019E
:1039F0003B014C245D246E247F24C422D522E62280
:103A0000F722CC0CDD1CEE1CFF1C4C245D246E2424
:103A10007F2484249524A624B724740165012D965F
:103A2000CCAEDDAEEEAEFFAE2D97C026D126E2269F
:103A3000F3262D968CAC9DACAEACBFAC2D97082177
:103A400019212A213B21000F111F221F331FC026DD
:103A5000D126E226F326970186010427152726277B
:103A60003727000F111F221F331F011D09AF1AAF87
:103A70002BAF3CAF0DA91EA92FA938AD21964CAD97
:103A80005DAD6EAD7FAD219704271527262737271B
:103A90004DA95EA96FA978AD21968CAC9DACAEAC5A
:103AA000BFAC2197482159216A217B21440F551F22
:103AB000661F771F04271527262737272D968CACDE
:103AC0009DACAEACBFAC2D9780269126A226B32626
:103AD000782D492D5A2D6B2D69964CAF5DAF6EAF89
:103AE0007FAF6997482759276A277B2769968CAC4F
:103AF0009DACAEACBFAC699788219921AA21BB21AE
:103B0000880F991FAA1FBB1F482759276A277B27A1
:103B10008DA89EA8AFA8B8AC84269526A626B72661
:103B2000D501C401072E7BE0B695A795979587959B
:103B30007A95D1F7702D2D968CAF9DAFAEAFBFAFFC
:103B40002D97D501C401072E75E1880F991FAA1F73
:103B5000BB1F7A95D1F7702D2D968CAC9DACAEAC79
:103B6000BFAC2D9788299929AA29BB294C015D0151
:103B700080269126A226B326082319232A233B2335
:103B8000000F111F221F331F80269126A226B32665
:103B900021968CAE9DAEAEAEBFAE219769968CAC31
:103BA0009DACAEACBFAC699721960CAD1DAD2EADF2
:103BB0003FAD219780269126A226B3269401850148
:103BC000A1960CAF1DAF2EAF3FAFA19704271527CD
:103BD00026273727A1968CAC9DACAEACBFACA19785
:103BE000482159216A217B21440F551F661F771FE9
:103BF00004271527262737272D960CAF1DAF2EAF8C
:103C00003FAF2D97082719272A273B27000F111FA1
:103C1000221F331F011D0DAB1EAB2FAB38AF49A9BF
:103C20005AA96BA97CA909A51AA52BA53CA54027D3
:103C300051276227732789A99AA9ABA9BCA9802318
:103C40009123A223B323880F991FAA1FBB1F4827C4
:103C500059276A277B2765968CAC9DACAEACBFAC70
:103C6000659784269526A626B7261A2DAB2CB82C48
:103C7000892C912ED501C4018C259D25AE25BF250B
:103C8000C820D920EA20FB20CC0CDD1CEE1CFF1C38
:103C90008C259D25AE25BF2509A91AA92BA93CA9CC
:103CA000082719272A273B27680179010B2EBBE03B
:103CB000F694E794D794C794BA95D1F7B02D0F2E08
:103CC000F5E1000F111F221F331FFA95D1F7F02DD8
:103CD0000C291D292E293F2968017901C426D526E2
:103CE000E626F7264023512362237323440F551FF2
:103CF000661F771FC426D526E626F726C9A6DAA6AC
:103D0000EBA6FCA68C249D24AE24BF24B401A501FF
:103D100065964CAF5DAF6EAF7FAF6597482759276B
:103D20006A277B2765968CAC9DACAEACBFAC659723
:103D300088219921AA21BB21880F991FAA1FBB1F87
:103D4000482759276A277B2769964CAF5DAF6EAF2E
:103D50007FAF69974027512762277327440F551F6C
:103D6000661F771F411D49AB5AAB6BAB7CAB09ADEE
:103D70001AAD2BAD3CADADA4BEA4CFA4D8A80A25E6
:103D80001B252C253D2589AD9AADABADBCAD8A2157
:103D90009B21AC21BD21880F991FAA1FBB1F08279B
:103DA00019272A273B276196CCACDDACEEACFFACE3
:103DB0006197C026D126E226F326BE2CEF2CFC2CE0
:103DC000CD2CDB2C25968CAD9DADAEADBFAD259732
:103DD0008C259D25AE25BF2525964CAD5DAD6EADE0
:103DE0007FAD25974C215D216E217F21440F551F0A
:103DF000661F771F84279527A627B72749AD5AAD99
:103E00006BAD7CAD482759276A277B274A015B01A8
:103E1000072E7BE0B694A794979487947A95D1F770
:103E2000702D032E35E1440F551F661F771F3A95FD
:103E3000D1F7302D482959296A297B294A015B018C
:103E400080269126A226B326042315232623372372
:103E5000000F111F221F331F80269126A226B32692
:103E60008DA69EA6AFA6B8AAC824D924EA24FB240E
:103E70009601870161960CAF1DAF2EAF3FAF6197E2
:103E800068017901C826D926EA26FB2680239123DA
:103E9000A223B323880F991FAA1FBB1FC826D926A8
:103EA000EA26FB264601570184269526A626B72634
:103EB000880C991CAA1CBB1C811C89AE9AAEABAEA7
:103EC000BCAE6D960CAD1DAD2EAD3FAD6D9704250E
:103ED0001525262537256D968CAD9DADAEADBFADB4
:103EE0006D9784219521A621B721880F991FAA1FBC
:103EF000BB1F082719272A273B27A5964CAD5DAD88
:103F00006EAD7FADA5974027512762277327962E68
:103F1000672F742F452F592D29968CAC9DACAEACD4
:103F2000BFAC299784269526A626B72629968CAD60
:103F30009DADAEADBFAD299784239523A623B723AE
:103F4000880F991FAA1FBB1F88269926AA26BB2661
:103F50006D968CAD9DADAEADBFAD6D9788259925A5
:103F6000AA25BB252C013D01032E3BE076946794E6
:103F7000579447943A95D1F7302D072E75E1880F65
:103F8000991FAA1FBB1F7A95D1F7702D84299529F7
:103F9000A629B7292C013D01402651266226732609
:103FA000082319232A233B23000F111F221F331F2D
:103FB00040265126622673264425552566257725F9
:103FC0008A01AB01B8018A019B01082519252A2520
:103FD0003B2584229522A622B722880C991CAA1C74
:103FE000BB1C082519252A253B254801590188268F
:103FF0009926AA26BB26880C991CAA1CBB1C811CCE
:1040000025968CAE9DAEAEAEBFAE2597319730975C
:1040100019F1D501C401A9964CAE5DAE6EAE7FAE6E
:10402000A997A5964CAF5DAF6EAF7FAFA5972996C8
:104030000CAF1DAF2EAF3FAF299797018601659654
:104040008CAC9DACAEACBFAC659721964CAD5DAD74
:104050006EAD7FAD219768CA2996CCAEDDAEEEAECF
:10406000FFAE2997A5960CAF1DAF2EAF3FAFA5971A
:104070002596CCACDDACEEACFFAC2597AF96EEADA3
:10408000FFADAF97A1960CAD1DAD2EAD3FADA19785
:1040900004AF15AF26AF37AF21968CAD9DADAEAD59
:1040A000BFAD219780839183A283B3832D968CAC7F
:1040B0009DACAEACBFAC2D9780A691A6A2A6B3A630
:1040C0000DA91EA92FA938AD048B158B268B378B14
:1040D00089A59AA5ABA5BCA584839583A683B78340
:1040E00065968CAC9DACAEACBFAC659780AA91AA2E
:1040F000A2AAB3AA69960CAD1DAD2EAD3FAD6997CE
:1041000004A715A726A737A789A99AA9ABA9BCA96F
:10411000808F918FA28FB38F8DA49EA4AFA4B8A8D7
:1041200080869186A286B38661960CAD1DAD2EADBC
:104130003FAD619704AB15AB26AB37AB29968CAD81
:104140009DADAEADBFAD299780A391A3A2A3B3A3AC
:1041500089AC9AACABACBCAC848E958EA68EB78E77
:10416000448655866686778640AF51AF62AF73AF9F
:10417000A5960CAD1DAD2EAD3FADA59704A315A31F
:1041800026A337A3C08AD18AE28AF38AAB96AEAD62
:10419000BFADAB978D919D910D90BC91A02D2196B7
:1041A0008CAC9DACAEACBFAC219788269926AA26D4
:1041B000BB26E1968CAE9DAEAEAEBFAEE1978082DF
:1041C0009182A282B382AB96AEADBFADAB9714968F
:1041D0000D911D912D913C91179789A49AA4ABA4A0
:1041E000BCA480269126A226B32621968CAE9DAE35
:1041F000AEAEBFAE219784829582A682B782189612
:104200000D911D912D913C911B978DA49EA4AFA45F
:10421000B8A880269126A226B32689A69AA6ABA680
:10422000BCA680869186A286B3861C960D911D91B0
:104230002D913C911F970425152526253725A996F4
:104240000CAF1DAF2EAF3FAFA99704871587268708
:10425000378750962D903D904D905C9053972C242D
:104260003D244E245F2425962CAE3DAE4EAE5FAE6F
:104270002597208A318A428A538A54962D903D9000
:104280004D905C9057976DA87EA88FA898AC62243B
:104290007324842495246D966CAE7DAE8EAE9FAE55
:1042A0006D97648A758A868A978A58968D909D90B4
:1042B000AD90BC905B97C9A8DAA8EBA8FCA88C24A9
:1042C0009D24AE24BF24808E918EA28EB38E5C96E8
:1042D000CD90DD90ED90FC905F9709AD1AAD2BADC0
:1042E0003CADC026D126E226F326C48ED58EE68EBE
:1042F000F78E90960D911D912D913C919397299653
:104300008CAD9DADAEADBFAD2997082719272A27E3
:104310003B2700A311A322A333A3AB96AEADBFAD41
:10432000AB9794962D903D904D905C909797A59665
:104330008CAD9DADAEADBFADA597282639264A26DA
:104340005B2629962CAE3DAE4EAE5FAE299724A2D9
:1043500035A246A257A2E396AEADBFADE3979897BC
:10436000E396BFAFAEAFE397AB968EAD9FADAB9785
:104370008896AB969FAF8EAFAB979897E8F1C9AE92
:10438000DAAEEBAEFCAEA5964CAF5DAF6EAF7FAFD5
:10439000A59789AA9AAAABAABCAA29A43AA44BA415
:1043A0005CA42DA63EA64FA658AA6D964CAC5DAC5B
:1043B0006EAC7FAC6D974DAA5EAA6FAA78AE2196BF
:1043C0006CAC7DAC8EAC9FAC219769A67AA68BA60F
:1043D0009CA6E1968CAC9DACAEACBFACE197A1962F
:1043E0004CAC5DAC6EAC7FACA19725968CAD9DAD11
:1043F000AEADBFAD25977EC8DB01CA01A9964CAC16
:104400005DAC6EAC7FACA997CDA6DEA6EFA6F8AAF0
:10441000E9964CAE5DAE6EAE7FAEE997A5968CAFD9
:104420009DAFAEAFBFAFA5978DAA9EAAAFAAB8AEFB
:1044300009AB1AAB2BAB3CAB65964CAC5DAC6EAC30
:104440007FAC659725968CAC9DACAEACBFAC259788
:10445000E196CCACDDACEEACFFACE1978E010F5F2A
:104460001F4F88E2D8011D928A95E9F7E3964EAD79
:104470005FADE397AB966EAD7FADAB97C8010E9481
:10448000518BE396EEADFFADE397E00FF11F81E0B6
:10449000808388A5806888A7A1962CAD3DAD4EADE0
:1044A0005FADA19764E02627A1962CAF3DAF4EAF3C
:1044B0005FAFA197E4E0F0E0D701C60175016401A8
:1044C00009A91AA92BA93CA96D968CAC9DACAEACE0
:1044D000BFAC6D97B701A601482759276A277B27EC
:1044E0008C219D21AE21BF21880F991FAA1FBB1FC0
:1044F000482759276A277B27D301C201842795279C
:10450000A627B727782E492E5A2E6B2ED301C2012B
:1045100080279127A227B32704211521262137219F
:10452000000F111F221F331F80279127A227B327B7
:10453000C826D926EA26FB26970186010F2EFBE026
:104540003695279517950795FA95D1F7F02D0B2EEF
:10455000B5E1CC0CDD1CEE1CFF1CBA95D1F7B02DDB
:10456000C02AD12AE22AF32A9701860104271527B7
:10457000262737274C215D216E217F21440F551FAF
:10458000661F771F042715272627372709AB1AAB85
:104590002BAB3CABB901A8014425552566257725F1
:1045A0002A011B0165962CAE3DAE4EAE5FAE6597FF
:1045B000282639264A265B2665960CAD1DAD2EAD04
:1045C0003FAD659780239123A223B323880F991FC2
:1045D000AA1FBB1F282639264A265B2629AE3AAEDB
:1045E0004BAE5CAE2C243D244E245F24220C331CA5
:1045F000441C551C211C25962CAE3DAE4EAE5FAE24
:10460000259721960CAD1DAD2EAD3FAD2197082508
:1046100019252A253B2521968CAD9DADAEADBFADAC
:10462000219788219921AA21BB21880F991FAA1FB0
:10463000BB1F082719272A273B276196CCACDDAC86
:10464000EEACFFAC6197C026D126E226F3264E2DB4
:10465000EF2CFC2CCD2CD42E29964CAD5DAD6EAD3F
:104660007FAD29974C255D256E257F2529968CAD3C
:104670009DADAEADBFAD29978C219D21AE21BF214F
:10468000880F991FAA1FBB1F482759276A277B2716
:1046900084269526A626B726D501C401072E7BE0E1
:1046A000B695A795979587957A95D1F7702D072E92
:1046B00075E1880C991CAA1CBB1C7A95D1F7702D4A
:1046C000882A992AAA2ABB2AD501C40180279127C2
:1046D000A227B327082119212A213B21000F111FEE
:1046E000221F331F80279127A227B32761968CAF03
:1046F0009DAFAEAFBFAF6197C826D926EA26FB268D
:1047000026011701A9962CAE3DAE4EAE5FAEA9971D
:104710002426352646265726A996CCACDDACEEAC31
:10472000FFACA9974C215D216E217F21440F551FBD
:10473000661F771F24263526462657266D962CAEF3
:104740003DAE4EAE5FAE6D97282439244A245B24DB
:10475000220C331C441C551C211C21962CAE3DAE52
:104760004EAE5FAE21978DA99EA9AFA9B8ADE9A4C1
:10477000FAA40BA51CA58E259F25A027B1274DA91E
:104780005EA96FA978AD4E215F2160237123440F8C
:10479000551F661F771F84279527A627B727A5963D
:1047A0004CAC5DAC6EAC7FACA597482659266A260A
:1047B0007B26F62C672C742C452C5F2C2D960CAD8B
:1047C0001DAD2EAD3FAD2D9704251525262537258A
:1047D0002D964CAD5DAD6EAD7FAD2D97442155212D
:1047E00066217721440F551F661F771F0427152761
:1047F000262737274DA95EA96FA978AD40275127F5
:10480000622773276A017B010B2EBBE0F694E794C5
:10481000D794C794BA95D1F7B02D032E35E1440F44
:10482000551F661F771F3A95D1F7302D4C295D290A
:104830006E297F294A015B0188269926AA26BB2674
:1048400084239523A623B723880F991FAA1FBB1F74
:1048500088269926AA26BB2689A69AA6ABA6BCA618
:10486000482459246A247B2462015301A596ACAEE6
:10487000BDAECEAEDFAEA597D601C501802791278C
:10488000A227B3270A211B212C213D21000F111F34
:10489000221F331F80279127A227B3272C013D0118
:1048A0004426552666267726440C551C661C771C24
:1048B000411CCDA4DEA4EFA4F8A8E9962CAD3DAD33
:1048C0004EAD5FADE997C226D326E426F5264DA569
:1048D0005EA56FA578A9E9968CAC9DACAEACBFACDB
:1048E000E997482159216A217B21440F551F661FF2
:1048F000771FC426D526E626F726A1968CAC9DAC5C
:10490000AEACBFACA1978C249D24AE24BF24382D1F
:10491000092D1A2D2B2D0DAB1EAB2FAB38AF699681
:104920000CAD1DAD2EAD3FAD69978DA89EA8AFA86B
:10493000B8AC082519252A253B2569964CAD5DADF7
:104940006EAD7FAD6997482159216A217B21440FC3
:10495000551F661F771F04271527262737278DA485
:104960009EA4AFA4B8A880269126A226B326B5019E
:10497000A401032E3BE076956795579547953A95A8
:10498000D1F7302D2D964CAF5DAF6EAF7FAF2D9729
:10499000B501A401032E35E1440F551F661F771F93
:1049A0003A95D1F7302D2D968CAC9DACAEACBFAC0A
:1049B0002D97482959296A297B294A015B018C24B2
:1049C0009D24AE24BF24C422D522E622F722CC0C9B
:1049D000DD1CEE1CFF1C8C249D24AE24BF242996D4
:1049E0008CAE9DAEAEAEBFAE29978DA89EA8AFA8E7
:1049F000B8AC2996CCACDDACEEACFFAC29978C24DE
:104A00009D24AE24BF2474016501CDAADEAAEFAABD
:104A1000F8AEC026D126E226F3268DA89EA8AFA820
:104A2000B8AC082119212A213B21000F111F221F98
:104A3000331FC026D126E226F326970186010427DC
:104A4000152726273727000F111F221F331F011D8F
:104A50000DA71EA72FA738AB21964CAD5DAD6EAD4F
:104A60007FAD219789A89AA8ABA8BCA8482559254D
:104A70006A257B2521960CAD1DAD2EAD3FAD21974E
:104A8000082119212A213B21000F111F221F331F4A
:104A900040275127622773278DA89EA8AFA8B8ACDE
:104AA00084269526A626B726382D092D1A2D2B2DBE
:104AB0000DAB1EAB2FAB38AF082719272A273B2792
:104AC0008DA89EA8AFA8B8AC88219921AA21BB21A6
:104AD000880F991FAA1FBB1F082719272A273B27C2
:104AE00021968CAC9DACAEACBFAC219780269126B4
:104AF000A226B326D501C401072E7BE0B695A79563
:104B0000979587957A95D1F7702D2D968CAF9DAF9F
:104B1000AEAFBFAF2D97D501C401072E75E1880F49
:104B2000991FAA1FBB1F7A95D1F7702D2D968CACBB
:104B30009DACAEACBFAC2D9788299929AA29BB2979
:104B40004C015D0184269526A626B72648235923C5
:104B50006A237B23440F551F661F771F84269526E3
:104B6000A626B72689AA9AAAABAABCAA8DA89EA8EF
:104B7000AFA8B8AC49A95AA96BA97CA984269526E7
:104B8000A626B726B401A501A1964CAF5DAF6EAFC6
:104B90007FAFA1974027512762277327A1968CAC3E
:104BA0009DACAEACBFACA197082119212A213B21B5
:104BB000000F111F221F331F402751276227732721
:104BC0002D964CAF5DAF6EAF7FAF2D97482759271D
:104BD0006A277B27440F551F661F771F411DAD961F
:104BE0004CAF5DAF6EAF7FAFAD9761960CAD1DADB5
:104BF0002EAD3FAD619704251525262537256196F5
:104C00008CAD9DADAEADBFAD619784219521A62140
:104C1000B721880F991FAA1FBB1F082719272A270A
:104C20003B2765968CAD9DADAEADBFAD659780273A
:104C30009127A227B327B82E892E9A2EAB2ED50105
:104C4000C4018C259D25AE25BF25C820D920EA208A
:104C5000FB20CC0CDD1CEE1CFF1C8C259D25AE25FD
:104C6000BF25AC01BD0144255525662577256A0180
:104C70007B010B2EBBE0F694E794D794C794BA95CA
:104C8000D1F7B02D032E35E1440F551F661F771F56
:104C90003A95D1F7302D4C295D296E297F291A01CB
:104CA0002B012026312642265326042315232623B2
:104CB0003723000F111F221F331F202631264226C3
:104CC000532621962CAE3DAE4EAE5FAE219792019B
:104CD0008101082519252A253B25380129016596DA
:104CE0004CAE5DAE6EAE7FAE6597482659266A26FD
:104CF0007B266596ACACBDACCEACDFAC65978A21AB
:104D00009B21AC21BD21880F991FAA1FBB1F4826DC
:104D100059266A267B2669964CAE5DAE6EAE7FAE96
:104D200069974426552666267726440C551C661C32
:104D3000771C411C4DAA5EAA6FAA78AE0DA51EA5D0
:104D40002FA538A9C9A4DAA4EBA4FCA40C251D2521
:104D50002E253F258DA59EA5AFA5B8A98C219D2107
:104D6000AE21BF21880F991FAA1FBB1F0827192733
:104D70002A273B27A996CCACDDACEEACFFACA997BB
:104D8000C026D126E226F3264E2DEF2CFC2CCD2C6E
:104D9000D42E89AD9AADABADBCAD8C259D25AE258D
:104DA000BF2549AD5AAD6BAD7CAD4C215D216E2167
:104DB0007F21440F551F661F771F84279527A6273D
:104DC000B7274DA55EA56FA578A9482759276A275B
:104DD0007B274A015B01072E7BE0B694A79497944A
:104DE00087947A95D1F7702D032E35E1440F551F26
:104DF000661F771F3A95D1F7302D482959296A291E
:104E00007B291A012B012026312642265326042312
:104E1000152326233723000F111F221F331F20269F
:104E200031264226532629A63AA64BA65CA6C224C2
:104E3000D324E424F5243601270161964CAE5DAEFF
:104E40006EAE7FAE619793018201082719272A274A
:104E50003B2784219521A621B721880F991FAA1FDE
:104E6000BB1F082719272A273B2758016901A426B9
:104E7000B526C626D726AA0CBB1CCC1CDD1CA11C43
:104E8000ADA6BEA6CFA6D8AA25968CAD9DADAEADDB
:104E9000BFAD25972996CCACDDACEEACFFAC299725
:104EA0008C259D25AE25BF2525964CAD5DAD6EADFF
:104EB0007FAD25974C215D216E217F21440F551F29
:104EC000661F771F84279527A627B727A5964CAC82
:104ED0005DAC6EAC7FACA597482659266A267B262A
:104EE000D62C672C742C452C5D2C6D968CAC9DAC0F
:104EF000AEACBFAC6D9784249524A624B7246D96E0
:104F00004CAD5DAD6EAD7FAD6D97442155216621F1
:104F10007721440F551F661F771F84269526A626E6
:104F2000B7262596CCACDDACEEACFFAC2597C824FB
:104F3000D924EA24FB24B701A601032E3BE0769591
:104F40006795579547953A95D1F7302D0B2EB5E1DA
:104F5000CC0CDD1CEE1CFF1CBA95D1F7B02DC42A79
:104F6000D52AE62AF72AB701A601482759276A2732
:104F70007B278C219D21AE21BF21880F991FAA1F5D
:104F8000BB1F482759276A277B27442655266626B4
:104F90007726C20123013C01D301C201882599254E
:104FA000AA25BB2584209520A620B720880C991C13
:104FB000AA1CBB1C88259925AA25BB25C826D9264D
:104FC000EA26FB26CC0CDD1CEE1CFF1CC11C319715
:104FD000309719F1E9964CAF5DAF6EAF7FAFE997AF
:104FE000A5964CAE5DAE6EAE7FAEA59729968CAF02
:104FF0009DAFAEAFBFAF2997AD968CAC9DACAEACBC
:10500000BFACAD9765964CAC5DAC6EAC7FAC6597B4
:1050100089A99AA9ABA9BCA95DCA43013201A1968D
:105020002CAC3DAC4EAC5FACA197E596EEADFFADC0
:10503000E59724AE35AE46AE57AE2D962CAC3DACC2
:105040004EAC5FAC2D9720A631A642A653A665961E
:105050002CAC3DAC4EAC5FAC659720AA31AA42AAFD
:1050600053AA69962CAC3DAC4EAC5FAC699724A6B4
:1050700035A646A657A661962CAC3DAC4EAC5FACAF
:10508000619724AA35AA46AA57AA60AE71AE82AE2D
:1050900093AE89809A80AB80BC8029A83AA84BA89F
:1050A0005CA882249324A424B52480829182A282C5
:1050B000B3828D809E80AF80B88421962CAC3DACAD
:1050C0004EAC5FAC219782249324A424B52484821F
:1050D0009582A682B78289849A84AB84BC8429A4F1
:1050E0003AA44BA45CA482249324A424B5248086EF
:1050F0009186A286B3868D849E84AF84B8888426E8
:105100009526A626B72684869586A686B7864989DB
:105110005A896B897C894C255D256E257F25408BBE
:10512000518B628B738B4D895E896F89788DAD96BB
:105130002CAC3DAC4EAC5FACAD97422553256425FD
:105140007525448B558B668B778B498D5A8D6B8D6E
:105150007C8D2DA83EA84FA858AC42255325642528
:105160007525408F518F628F738F4D8D5E8D6F8D42
:1051700078A12DA43EA44FA458A842255325642508
:105180007525448F558F668F778F49A15AA16BA1E2
:105190007CA1402751276227732740A351A362A314
:1051A00073A34DA15EA16FA178A5482759276A274F
:1051B0007B2744A355A366A377A3C858DF4F0FB638
:1051C000F894DEBF0FBECDBFDF91CF911F910F913D
:1051D000FF90EF90DF90CF90BF90AF909F908F9017
:1051E0007F906F905F904F903F902F900895DC01DB
:1051F000DC962D903D904D905C90DF97A1962CAE63
:105200003DAE4EAE5FAEA197CD90DD90ED90FC909F
:10521000139750968D909D90AD90BC905397D096DB
:105220004D905D906D907C90D39790962D913D918F
:105230004D915C91939729AB3AAB4BAB5CAB149619
:105240002D913D914D915C91179721962CAF3DAFDB
:105250004EAF5FAF219754962D913D914D915C914A
:1052600057976D962CAF3DAF4EAF5FAF6D97D4960D
:105270002D913D914D915C91D79761962CAF3DAFAB
:105280004EAF5FAF619794962D913D914D915C919A
:10529000979729962CAF3DAF4EAF5FAF29971896E1
:1052A0002D913D914D915C911B9729A73AA74BA752
:1052B0005CA758962D913D914D915C915B972DABDC
:1052C0003EAB4FAB58AFD8962D913D914D915C912F
:1052D000DB97A5962CAF3DAF4EAF5FAFA5979896E5
:1052E0002D913D914D915C919B972D962CAF3DAFAB
:1052F0004EAF5FAF2D971C962D913D914D915C91D6
:105300001F97E9962CAF3DAF4EAF5FAFE9975C9624
:105310002D913D914D915C915F972DA73EA74FA791
:1053200058AB9C962D913D914D915C919F976996BC
:105330002CAF3DAF4EAF5FAF699790C82F923F92B1
:105340004F925F926F927F928F929F92AF92BF9295
:10535000CF92DF92EF92FF920F931F93CF93DF9341
:10536000CDB7DEB7C654D1090FB6F894DEBF0FBE75
:10537000CDBF1C01FB0108E81AE62FE334E2DC0193
:105380000D931D932D933C931397DA017C91119605
:105390006C91119712963C91129713962C91DC0107
:1053A00014967C93149715966C93159716963C93C8
:1053B000169717962C93DA011496CC90149715969D
:1053C000DC9015971696EC9016971796FC90DC01DA
:1053D0001896CC9218971996DC9219971A96EC9217
:1053E0001A971B96FC921B9713ED812E18E0912EB5
:1053F00013EAA12E15E8B12E1C968D929D92AD92C6
:10540000BC921F97508141819281838150965C9319
:10541000509751964C93519752969C93529753960E
:105420008C9304811581B681B98B47804982D10163
:1054300054960C93549755961C93559749885696B5
:105440004C925697598057965C92579780849184D6
:10545000A284B38458968C92589759969C925997E7
:105460005A96AC925A975B96BC9244845584668453
:1054700077844D865E866F86788A8D829E82AF8223
:10548000B886C986DA86EB86FC8628016988798029
:1054900079836A833B832C83052F142F292F382F80
:1054A00044E050E088E4882E8DE1982E83E5A82E14
:1054B00088E3B82E8DA29EA2AFA2B8A699E5A92E28
:1054C0009BEFB92E9AEEC92E91E1D92EADAABEAAB4
:1054D000CFAAD8AE63EDC62E68E0D62E63EAE62EDC
:1054E00065E8F62ECD8EDE8EEF8EF8A26AE773E5C4
:1054F0008FE495E26D8B7E8B8F8B988F8CE098E597
:10550000A5E9BCE921968CAF9DAFAEAFBFAF2197A7
:1055100074E4872E73E7972E70E7A72E73E0B72EFB
:10552000898E9A8EAB8EBC8EE5EEAE2EEAE3BE2E51
:10553000EAE7CE2EE9EFDE2EA9AEBAAECBAEDCAEF8
:10554000FEE2CF2EFAE8DF2EF9E1EF2EF3E1FF2E97
:10555000C98ADA8AEB8AFC8AA3E8CA2EAEE6DA2E7A
:10556000ACE9EA2EFC2CB8E88B2EBAE69B2EBFE302
:10557000AB2EB4E2BB2E27965FAF4EAF2797D50177
:10558000C40149A25AA26BA27CA2B901A801482772
:1055900059276A277B2780239123A223B323880FCF
:1055A000991FAA1FBB1F482759276A277B27260157
:1055B00037014426552666267726D62C672C742C70
:1055C000452C5D2C89899A89AB89BC8984259525D0
:1055D000A625B72589889A88AB88BC888420952021
:1055E000A620B720880C991CAA1CBB1C88259925CD
:1055F000AA25BB25082719272A273B2768017901F7
:10560000EBE0F694E794D794C794EA95D1F7F5E1E7
:10561000000F111F221F331FFA95D1F70C291D29E6
:105620002E293F294801590184269526A626B7260A
:105630004023512362237323440F551F661F771F96
:1056400084269526A626B726898A9A8AAB8ABC8A9A
:10565000482459246A247B2462015301A9A6BAA6CE
:10566000CBA6DCA6A826B926CA26DB2649A55AA5BC
:105670006BA57CA584239523A623B723880F991FA8
:10568000AA1FBB1FA826B926CA26DB26ADA6BEA622
:10569000CFA6D8AAA026B126C226D326AA0CBB1C08
:1056A000CC1CDD1CA11CA9AABAAACBAADCAA09A100
:1056B0001AA12BA13CA169817A818B819C8106274B
:1056C00017272827392789A19AA1ABA1BCA1498016
:1056D0005A806B807C8084219521A621B721880F78
:1056E000991FAA1FBB1F082719272A273B2749AC48
:1056F0005AAC6BAC7CAC4026512662267326862CB5
:10570000672C742C452C582C498D5A8D6B8D7C8DB3
:105710004425552566257725898D9A8DAB8DBC8DC1
:1057200084219521A621B721880F991FAA1FBB1F8D
:10573000482759276A277B27C9A0DAA0EBA0FCA03D
:10574000C426D526E626F726D701C601FBE0B69586
:10575000A79597958795FA95D1F7E5E1CC0CDD1CD7
:10576000EE1CFF1CEA95D1F7C82AD92AEA2AFB2A9F
:10577000D701C60180279127A227B3270C211D211D
:105780002E213F21000F111F221F331F8027912739
:10579000A227B32789839A83AB83BC8348265926E3
:1057A0006A267B265201430189AE9AAEABAEBCAEEF
:1057B00084269526A626B72689AD9AADABADBCAD9D
:1057C000482359236A237B23440F551F661F771FE5
:1057D00084269526A626B726898E9A8EAB8EBC8EF9
:1057E000240135014C245D246E247F24440C551C77
:1057F000661C771C411C8D819E81AF81B885898490
:105800009A84AB84BC8488259925AA25BB254D8123
:105810005E816F817885482159216A217B21440F5F
:10582000551F661F771F84279527A627B727219620
:105830004CAD5DAD6EAD7FAD2197482759276A27E6
:105840007B27962E672F742F452F592DCD88DE8804
:10585000EF88F88CC426D526E626F7260D891E8902
:105860002F89388D0423152326233723000F111F7A
:10587000221F331FC026D126E226F3260D811E816A
:105880002F8138850C251D252E253F2548015901DE
:10589000FBE0B694A79497948794FA95D1F7E5E145
:1058A000000F111F221F331FEA95D1F7082919296C
:1058B0002A293B294801590188269926AA26BB2670
:1058C00080239123A223B323880F991FAA1FBB1FF4
:1058D00088269926AA26BB2689869A86AB86BC8608
:1058E000482559256A257B25DA01CB0121968CAF05
:1058F0009DAFAEAFBFAF21978C259D25AE25BF25AF
:1059000021968CAC9DACAEACBFAC2197C820D92001
:10591000EA20FB20CC0CDD1CEE1CFF1C8C259D25F9
:10592000AE25BF255C016D01A026B126C226D32677
:10593000AA0CBB1CCC1CDD1CA11CAD82BE82CF827C
:10594000D8868D849E84AF84B888CD8CDE8CEF8C15
:10595000F8A08C249D24AE24BF24CD84DE84EF8463
:10596000F8880D8D1E8D2F8D38A1C022D122E22204
:10597000F322CC0CDD1CEE1CFF1C8C249D24AE24D9
:10598000BF24CDA8DEA8EFA8F8ACC824D924EA2407
:10599000FB245C2D2D2D3E2D4F2D29A33AA34BA387
:1059A0005CA30DA11EA12FA138A5C9A0DAA0EBA070
:1059B000FCA00C251D252E253F254DA15EA16FA124
:1059C00078A54C215D216E217F21440F551F661F54
:1059D000771F0427152726273727CD84DE84EF84F9
:1059E000F888C026D126E226F326B701A601FBE0FF
:1059F0007695679557954795FA95D1F74D8B5E8BC0
:105A00006F8B788FB701A601E5E1440F551F661F24
:105A1000771FEA95D1F7CD88DE88EF88F88C4C297E
:105A20005D296E297F296A017B01C824D924EA24D3
:105A3000FB2484229522A622B722880C991CAA1C3A
:105A4000BB1CC824D924EA24FB24CD8EDE8EEF8E25
:105A5000F8A2C9A0DAA0EBA0FCA08D8C9E8CAF8C24
:105A6000B8A0C824D924EA24FB2456016701750193
:105A70004601570180269126A226B3260C211D211E
:105A80002E213F21000F111F221F331F8026912638
:105A9000A226B32695018401042715272627372738
:105AA000000F111F221F331F011D0D871E872F8717
:105AB000388B09891A892B893C89042515252625C7
:105AC000372549895A896B897C894421552166216A
:105AD0007721440F551F661F771F04271527262798
