:100000000C9474000C9495000C9495000C9495003D
:100010000C9495000C9495000C9495000C9495000C
:100020000C9495000C9495000C9495000C949500FC
:100030000C9495000C9495000C9495000C949500EC
:100040000C9495000C9495000C9495000C949500DC
:100050000C9448090C9495000C9495000C94950010
:100060000C9495000C9495000C9495000C949500BC
:100070000C9495000C9495000C9495000C949500AC
:100080000C9495000C9495000C9495000C9495009C
:100090000C9495000C9495000C9495000C9495008C
:1000A0000C9495000C9495000C9495000C9495007C
:1000B0000C9495000C9495000C9495000C9495006C
:1000C0000C9495000C9495000C9495000C9495005C
:1000D0000C9495000C9495000C9495000C9495004C
:1000E0000C9495000C94649311241FBECFEFD1E2C1
:1000F000DEBFCDBF00E00CBF13E0A0E0B2E0EAE756
:10010000FCE201E00BBF02C007900D92A633B107DD
:10011000D9F713E0A6E3B3E001C01D92A239B107FD
:10012000E1F70E94B9920C943B960C9400002F9238
:100130003F924F925F926F927F928F929F92AF9277
:10014000BF92CF92DF92EF92FF920F931F93CF93C4
:10015000DF93CDB7DEB7C65DD1090FB6F894DEBF29
:100160000FBECDBF3C01C953DF4F79836883C75CA5
:10017000D040C753DF4F59834883C95CD0407901D1
:100180002DB73EB7C353DF4F39832883CD5CD040B2
:1001900000E810E020E030E040E050E060E070E097
:1001A000CE0101964C010E94630C00E420E030E097
:1001B00040E050E060E070E0CE018F579F4F0E941A
:1001C000630CC7018C7F8896EDB7FEB7E81BF90B6F
:1001D0000FB6F894FEBF0FBEEDBF2DB73EB72F5F31
:1001E0003F4FC553DF4F39832883CB5CD0400E94FB
:1001F0008709C153DF4F2883CF5CD040C053DF4F06
:100200003883C05DD040CF52DF4F4883C15DD040BE
:10021000CE52DF4F5883C25DD040CD52DF4F68834E
:10022000C35DD040CC52DF4F7883C45DD040CB5209
:10023000DF4F8883C55DD040CA52DF4F9883C65DCB
:10024000D0400E94870919012A01CD53DF4F6883EE
:10025000C35CD040CC53DF4F7883C45CD040CB53D9
:10026000DF4F8883C55CD040CA53DF4F9883C65C9C
:10027000D0409F928F92CE018F579F4F4C01A12C5F
:10028000B12CC12CD12CC753DF4F08811981C95C17
:10029000D040C953DF4F28813981C75CD040A301CA
:1002A000BE016F537F4FC553DF4F88819981CB5C6F
:1002B000D0400E94CF640E94870951016201CD5352
:1002C000DF4FE880C35CD040CC53DF4FF880C45C84
:1002D000D040CB53DF4F0881C55CD040CA53DF4FBD
:1002E0001881C65CD0400E94469349013A01B62F5E
:1002F000A72FF82FE92F9101A201B701C801C1531F
:10030000DF4FA880CF5CD040C053DF4FB880C05DC6
:10031000D040CF52DF4FC880C15DD040CE52DF4FBA
:10032000D880C25DD040CD52DF4FE880C35DD04061
:10033000CC52DF4FF880C45DD040CB52DF4F0881F4
:10034000C55DD040CA52DF4F1881C65DD0400E94C3
:10035000469359016A017B018C019401A3016B2F23
:100360007A2F8F2F9E2F0E9446930F900F90C3538A
:10037000DF4FE881F981CD5CD0400FB6F894FEBF25
:100380000FBEEDBFCA52DF4F0FB6F894DEBF0FBEEF
:10039000CDBFDF91CF911F910F91FF90EF90DF9034
:1003A000CF90BF90AF909F908F907F906F905F9015
:1003B0004F903F902F9008952F923F924F925F92CF
:1003C0006F927F928F929F92AF92BF92CF92DF9265
:1003D000EF92FF920F931F93CF93DF93CDB7DEB7CA
:1003E000C85ED1090FB6F894DEBF0FBECDBF2DB7E2
:1003F0003EB7C951DF4F39832883C75ED04086E0BE
:1004000092E00E94160A42E050E0C353DF4F598346
:100410004883CD5CD040BE016F5F7F4FCD53DF4F2F
:1004200079836883C35CD0408DB79EB7C752DF4FD6
:1004300099838883C95DD040212C312C21012394DC
:10044000C353DF4F0880CD5CD04004C0220C331C66
:10045000441C551C0A94D2F7A201910160E070E09F
:10046000CB01CB53DF4F2882C55CD040CA53DF4F4E
:100470003883C65CD040C953DF4F4883C75CD04047
:10048000C853DF4F5883C85CD040C753DF4F6883E1
:10049000C95CD040C653DF4F7883CA5CD040C55397
:1004A000DF4F8883CB5CD040C453DF4F9883CC5C54
:1004B000D0404DB75EB7421953090FB6F8945EBFEE
:1004C0000FBE4DBF6DB77EB76F5F7F4F3B018DB7DE
:1004D0009EB7821993090FB6F8949EBF0FBE8DBFC9
:1004E0002DB73EB72F5F3F4FC153DF4F398328836E
:1004F000CF5CD040CB53DF4F0881C55CD040CA539E
:10050000DF4F1881C65CD040C953DF4F2881C75CDC
:10051000D040C853DF4F3881C85CD04040E050E045
:1005200060E070E0C3010E94630CCB53DF4F088191
:10053000C55CD040CA53DF4F1881C65CD040C95358
:10054000DF4F2881C75CD040C853DF4F3881C85C7B
:10055000D04040E050E060E070E0C153DF4F888160
:100560009981CF5CD0400E94630C4DB75EB7C552F5
:10057000DF4F59834883CB5DD04000E810E020E096
:1005800030E040E050E060E070E0CE0101960E9473
:10059000630C00E420E030E040E050E060E070E018
:1005A000CE018F579F4F0E94630CC101969587958E
:1005B000969587950A96880F991F880F991F6DB792
:1005C0007EB7681B790B0FB6F8947EBF0FBE6DBF68
:1005D0008DB79EB70196C352DF4F99838883CD5D57
:1005E000D0400E948709C152DF4F2883CF5DD040A1
:1005F000C052DF4F3883C05ED040CF51DF4F4883B9
:10060000C15ED040CE51DF4F5883C25ED040CD5145
:10061000DF4F6883C35ED040CC51DF4F7883C45E28
:10062000D040CB51DF4F8883C55ED040CA51DF4FE9
:100630009883C65ED0400E948709CF52DF4F28833F
:10064000C15DD040CE52DF4F3883C25DD040CD5225
:10065000DF4F4883C35DD040CC52DF4F5883C45D29
:10066000D040CB52DF4F6883C55DD040CA52DF4FC8
:100670007883C65DD040C952DF4F8883C75DD040C4
:10068000C852DF4F9883C85DD040CC53DF4F98816C
:10069000C45CD0409F93CD53DF4F2881C35CD040D2
:1006A0002F93AE014F575F4F4A01A12CB12CC12CA3
:1006B000D12C7101C153DF4F08811981CF5CD0402B
:1006C0009101A301BE016F537F4FC352DF4F888159
:1006D0009981CD5DD0400E94CF640E948709CF529E
:1006E000DF4FA880C15DD040CE52DF4FB880C25DE1
:1006F000D040CD52DF4FC880C35DD040CC52DF4FD9
:10070000D880C45DD040CB52DF4FE880C55DD0407B
:10071000CA52DF4FF880C65DD040C952DF4F088112
:10072000C75DD040C852DF4F1881C85DD0400E94DD
:1007300046934901B42FA52FF62FE72F782E692E67
:100740009501A601B701C801C152DF4FA880CF5D56
:10075000D040C052DF4FB880C05ED040CF51DF4F95
:10076000C880C15ED040CE51DF4FD880C25ED0403D
:10077000CD51DF4FE880C35ED040CC51DF4FF880D1
:10078000C45ED040CB51DF4F0881C55ED040CA5116
:10079000DF4F1881C65ED0400E94469359016A011E
:1007A0007B018C0194014B2F5A2F6F2F7E2F872DA9
:1007B000962D0E9446934901742E652E562E472E83
:1007C000382E292EC552DF4F68817981CB5DD0400C
:1007D0000FB6F8947EBF0FBE6DBF87E292E00E9415
:1007E000160ACB53DF4F2881C55CD040CA53DF4F78
:1007F0003881C65CD040C953DF4F4881C75CD040C8
:10080000C853DF4F5881C85CD04060E070E080E0A2
:1008100090E001E00E94219359016A017B018C0163
:100820000E94F80A8BE592E00E94160A9401472D77
:10083000562D652D742D832D922D0E94F80A8EE47D
:1008400092E00E94160A9401472D562D652D742DB5
:10085000832D922D0E94C4920E94F80A82E193E0B7
:100860000E94160AC752DF4F88819981C95DD04026
:100870000FB6F8949EBF0FBE8DBFC353DF4F2881C4
:100880003981CD5CD0402F5F3F4FC353DF4F398359
:100890002883CD5CD0402B30310509F0C5CD82E1F5
:1008A00093E00E94160AC951DF4F48815981C75E03
:1008B000D0400FB6F8945EBF0FBE4DBFC851DF4F9A
:1008C0000FB6F894DEBF0FBECDBFDF91CF911F9161
:1008D0000F91FF90EF90DF90CF90BF90AF909F90DF
:1008E0008F907F906F905F904F903F902F900895E2
:1008F0002F923F924F925F926F927F928F929F9230
:10090000AF92BF92CF92DF92EF92FF920F931F931D
:10091000CF93DF93CDB7DEB7C85ED1090FB6F89499
:10092000DEBF0FBECDBF3E0189E8680E711C80E1BD
:10093000F301982F11929A95E9F7CF55DF4F18825E
:1009400019821A821B82C15AD040CB55DF4F1882C0
:1009500019821A821B82C55AD040C756DF4F1882AF
:1009600019821A821B82C959D040C356DF4F1882A0
:1009700019821A821B82CD59D0404E01E9E78E0EB2
:10098000911CF40111928A95E9F70E948709590197
:100990006A017B018C010E948709C755DF4F2883BC
:1009A000C95AD040C655DF4F3883CA5AD040C555C2
:1009B000DF4F4883CB5AD040C455DF4F5883CC5AC1
:1009C000D040C355DF4F6883CD5AD040C255DF4F6A
:1009D0007883CE5AD040C155DF4F8883CF5AD0405C
:1009E000C055DF4F9883C05BD0400E948709CF522B
:1009F000DF4F2883C15DD040CE52DF4F3883C25DC8
:100A0000D040CD52DF4F4883C35DD040CC52DF4F42
:100A10005883C45DD040CB52DF4F6883C55DD04062
:100A2000CA52DF4F7883C65DD040C952DF4F8883FA
:100A3000C75DD040C852DF4F9883C85DD040AE013B
:100A40004F555F4FB301CE0101960E944B320E9479
:100A50008709CF54DF4F2883C15BD040CE54DF4F8E
:100A60003883C25BD040CD54DF4F4883C35BD04056
:100A7000CC54DF4F5883C45BD040CB54DF4F6883E6
:100A8000C55BD040CA54DF4F7883C65BD040C954A1
:100A9000DF4F8883C75BD040C854DF4F9883C85B63
:100AA000D04048E050E0BE0167567F4FCE0101962E
:100AB0000E9423390E948709C754DF4F2883C95BEE
:100AC000D040C654DF4F3883CA5BD040C554DF4F97
:100AD0004883CB5BD040C454DF4F5883CC5BD040BD
:100AE000C354DF4F6883CD5BD040C254DF4F78835F
:100AF000CE5BD040C154DF4F8883CF5BD040C05421
:100B0000DF4F9883C05CD04020E130E0A401BE01FB
:100B10006F5B7F4FCE0101960E9429390E948709A1
:100B2000CF53DF4F2883C15CD040CE53DF4F388393
:100B3000C25CD040CD53DF4F4883C35CD040CC5320
:100B4000DF4F5883C45CD040CB53DF4F6883C55C14
:100B5000D040CA53DF4F7883C65CD040C953DF4FC3
:100B60008883C75CD040C853DF4F9883C85CD040AF
:100B700040E050E060E070E0CE0101960E94EE5748
:100B80000E948709C753DF4F2883C95CD040C653F2
:100B9000DF4F3883CA5CD040C553DF4F4883CB5CFE
:100BA000D040C453DF4F5883CC5CD040C353DF4F99
:100BB0006883CD5CD040C253DF4F7883CE5CD04099
:100BC000C153DF4F8883CF5CD040C053DF4F988341
:100BD000C05DD04061E470E06C0F7D1F605F7F4FAF
:100BE000CE0101960E94F4570E948709C752DF4F39
:100BF0002883C95DD040C652DF4F3883CA5DD040DC
:100C0000C552DF4F4883CB5DD040C452DF4F58837D
:100C1000CC5DD040C352DF4F6883CD5DD040C2521F
:100C2000DF4F7883CE5DD040C152DF4F8883CF5DE8
:100C3000D040C052DF4F9883C05ED040E0910002A8
:100C4000F091010240E450E060E070E0CE010196D6
:100C500019950E948709CF51DF4F2883C15ED0408C
:100C6000CE51DF4F3883C25ED040CD51DF4F488335
:100C7000C35ED040CC51DF4F5883C45ED040CB51CF
:100C8000DF4F6883C55ED040CA51DF4F7883C65EB0
:100C9000D040C951DF4F8883C75ED040C851DF4F75
:100CA0009883C85ED040C755DF4F2881C95AD040CD
:100CB000C655DF4F3881CA5AD040C555DF4F4881ED
:100CC000CB5AD040C455DF4F5881CC5AD040C35581
:100CD000DF4F6881CD5AD040C255DF4F7881CE5A60
:100CE000D040C155DF4F8881CF5AD040C055DF4F2B
:100CF0009881C05BD0400E944693622E232E342EF2
:100D0000452E562E772E4C018EE592E00E94160A53
:100D100085EA92E00E94160ACF54DF4F2881C15B1A
:100D2000D040CE54DF4F3881C25BD040CD54DF4F2E
:100D30004881C35BD040CC54DF4F5881C45BD04066
:100D4000CB54DF4F6881C55BD040CA54DF4F7881F8
:100D5000C65BD040C954DF4F8881C75BD040C854C0
:100D6000DF4F9881C85BD040CF52DF4FA880C15D74
:100D7000D040CE52DF4FB880C25DD040CD52DF4F61
:100D8000C880C35DD040CC52DF4FD880C45DD04016
:100D9000CB52DF4FE880C55DD040CA52DF4FF880AC
:100DA000C65DD040C952DF4F0881C75DD040C852F0
:100DB000DF4F1881C85DD0400E944693A62CB22C0C
:100DC000C32CD42CE52CF72C84010E9446930E945E
:100DD000F80A82E193E00E94160A87EB92E00E94F3
:100DE000160AC754DF4F2881C95BD040C654DF4F75
:100DF0003881CA5BD040C554DF4F4881CB5BD040BF
:100E0000C454DF4F5881CC5BD040C354DF4F68815E
:100E1000CD5BD040C254DF4F7881CE5BD040C1540F
:100E2000DF4F8881CF5BD040C054DF4F9881C05CDA
:100E3000D040CF54DF4FA880C15BD040CE54DF4FAD
:100E4000B880C25BD040CD54DF4FC880C35BD04078
:100E5000CC54DF4FD880C45BD040CB54DF4FE88008
:100E6000C55BD040CA54DF4FF880C65BD040C95440
:100E7000DF4F0881C75BD040C854DF4F1881C85B83
:100E8000D0400E944693A62CB22CC32CD42CE52C27
:100E9000F72C84010E9446930E94F80A82E193E0B5
:100EA0000E94160A8BEC92E00E94160ACF53DF4F85
:100EB0002881C15CD040CE53DF4F3881C25CD04026
:100EC000CD53DF4F4881C35CD040CC53DF4F5881B6
:100ED000C45CD040CB53DF4F6881C55CD040CA535F
:100EE000DF4F7881C65CD040C953DF4F8881C75C33
:100EF000D040C853DF4F9881C85CD040C754DF4F03
:100F0000A880C95BD040C654DF4FB880CA5BD040D0
:100F1000C554DF4FC880CB5BD040C454DF4FD8806E
:100F2000CC5BD040C354DF4FE880CD5BD040C2548F
:100F3000DF4FF880CE5BD040C154DF4F0881CF5BDC
:100F4000D040C054DF4F1881C05CD0400E9446930F
:100F5000A62CB22CC32CD42CE52CF72C84010E9497
:100F600046930E94F80A82E193E00E94160A80EEFE
:100F700092E00E94160AC753DF4F2881C95CD04017
:100F8000C653DF4F3881CA5CD040C553DF4F48811C
:100F9000CB5CD040C453DF4F5881CC5CD040C353AE
:100FA000DF4F6881CD5CD040C253DF4F7881CE5C8B
:100FB000D040C153DF4F8881CF5CD040C053DF4F5A
:100FC0009881C05DD040CF53DF4FA880C15CD04036
:100FD000CE53DF4FB880C25CD040CD53DF4FC880C6
:100FE000C35CD040CC53DF4FD880C45CD040CB53DF
:100FF000DF4FE880C55CD040CA53DF4FF880C65C45
:10100000D040C953DF4F0881C75CD040C853DF4F81
:101010001881C85CD0400E944693A62CB22CC32CE9
:10102000D42CE52CF72C84010E9446930E94F80AE8
:1010300082E193E00E94160A85EF92E00E94160A70
:10104000C752DF4F2881C95DD040C652DF4F38817B
:10105000CA5DD040C552DF4F4881CB5DD040C452FD
:10106000DF4F5881CC5DD040C352DF4F6881CD5DEA
:10107000D040C252DF4F7881CE5DD040C152DF4FA9
:101080008881CF5DD040C052DF4F9881C05ED04094
:10109000C753DF4FA880C95CD040C653DF4FB8802C
:1010A000CA5CD040C553DF4FC880CB5CD040C4532E
:1010B000DF4FD880CC5CD040C353DF4FE880CD5C9D
:1010C000D040C253DF4FF880CE5CD040C153DF4FD9
:1010D0000881CF5CD040C053DF4F1881C05DD04045
:1010E0000E944693A62CB22CC32CD42CE52CF72CB2
:1010F00084010E9446930E94F80A82E193E00E94D4
:10110000160A86E892E00E94160A87E093E00E94A1
:10111000160ACF51DF4F2881C15ED040CE51DF4F3C
:101120003881C25ED040CD51DF4F4881C35ED04090
:10113000CC51DF4F5881C45ED040CB51DF4F688126
:10114000C55ED040CA51DF4F7881C65ED040C951DC
:10115000DF4F8881C75ED040C851DF4F9881C85E9D
:10116000D040C755DF4FA880C95AD040C655DF4F81
:10117000B880CA5AD040C555DF4FC880CB5AD0403E
:10118000C455DF4FD880CC5AD040C355DF4FE880DC
:10119000CD5AD040C255DF4FF880CE5AD040C1550D
:1011A000DF4F0881CF5AD040C055DF4F1881C05B58
:1011B000D0400E944693C755DF4F2883C95AD0407C
:1011C000C655DF4F3883CA5AD040C555DF4F4883D4
:1011D000CB5AD040C455DF4F5883CC5AD040B62F9D
:1011E000A72FF82FE92F262D322D432D542D652DB5
:1011F000772DC40103E00E942193A62CB22CC32CAE
:10120000D42CE52CF72C84010E94469359016A01E5
:101210007B018C01C755DF4F2881C95AD040C65584
:10122000DF4F3881CA5AD040C555DF4F4881CB5A6D
:10123000D040C455DF4F5881CC5AD0406B2F7A2F05
:101240008F2F9E2F0E9446930E94F80A81E193E01F
:101250000E94160AC851DF4F0FB6F894DEBF0FBECA
:10126000CDBFDF91CF911F910F91FF90EF90DF9055
:10127000CF90BF90AF909F908F907F906F905F9036
:101280004F903F902F90089584E00E94000AFFCF76
:101290001F920F920FB60F9211242F933F934F93EB
:1012A0005F936F937F938F939F9320913703309138
:1012B00038034091390350913A0360913B03709198
:1012C0003C0380913D0390913E035F5F6F4F7F4FE2
:1012D0008F4F9F4F20933703309338034093390348
:1012E00050933A0360933B0370933C0380933D0318
:1012F00090933E039F918F917F916F915F914F915A
:101300003F912F910F900FBE0F901F9018957F92D5
:101310008F929F92AF92BF92CF92DF92EF92FF9205
:101320000F931F93CF93DF9380913603811123C0D6
:1013300010923703109238031092390310923A0337
:1013400010923B0310923C0310923D0310923E0317
:1013500081E085BD84E08093810080916F00816091
:1013600080936F0016BC10928500109284007894D0
:1013700081E080933603809084009090850086B54C
:10138000E0913703E82BD0913803C0913903B09135
:101390003A03A0913B03F0913C0370903D03109100
:1013A0003E03940140E050E060E070E080E090E0B7
:1013B00008E00E942193E22BD32BC42BB52BA62B44
:1013C000F72B2E2F3D2F4C2F5B2F6A2F7F2F872936
:1013D000912BDF91CF911F910F91FF90EF90DF90B4
:1013E000CF90BF90AF909F908F907F900895109274
:1013F000C50089E18093C40088E18093C10008950D
:1014000090913F0391110BC01092C50099E1909308
:10141000C40098E19093C10091E090933F039091B4
:10142000C00095FFFCCF8093C6000895FC01208189
:101430002223C9F0319649E138E191E080913F03E0
:10144000811108C01092C5004093C4003093C100C0
:1014500090933F038091C00085FFFCCF2093C6008E
:1014600021912111EBCF08955F926F927F928F921D
:101470009F92AF92BF92CF92DF92EF92FF920F9323
:101480001F93CF93DF93CDB7DEB72F970FB6F894A6
:10149000DEBF0FBECDBF4C0180913F0381110BC059
:1014A0001092C50089E18093C40088E18093C10057
:1014B00081E080933F038091C00085FFFCCF88E2EC
:1014C0008093C600E62EF12C8701015011091016F9
:1014D00011060CF088C0E80CF91CCE0101966C01D5
:1014E00084E1A82E83E0B82E99E1592E28E1622EDE
:1014F0007724739491E0E91AF1081F930F93F70191
:1015000080811F928F93BF92AF92DF92CF920E9401
:101510006B9399810FB6F894DEBF0FBECDBF9923B0
:10152000B9F0FE01329680913F03811108C01092FC
:10153000C5005092C4006092C10070923F03809138
:10154000C00085FFFCCF9093C60091919111EBCF25
:10155000015011090115110569F61F930F93F4014C
:1015600080811F928F9381E293E09F938F93DF920C
:10157000CF920E946B9399810FB6F894DEBF0FBE95
:10158000CDBF9923D1F0FE01329649E138E121E047
:1015900080913F03811108C01092C5004093C400A0
:1015A0003093C10020933F038091C00085FFFCCFA2
:1015B0009093C60091919111EBCF2F960FB6F894AE
:1015C000DEBF0FBECDBFDF91CF911F910F91FF9076
:1015D000EF90DF90CF90BF90AF909F908F907F90D3
:1015E0006F905F9008959E012F5F3F4F6901B5CFC7
:1015F0002F923F924F925F926F927F928F929F9223
:10160000AF92BF92CF92DF92EF92FF920F931F9310
:10161000CF93DF93CDB7DEB76C970FB6F894DEBFEC
:101620000FBECDBF922E832E742E652E562E472EC2
:10163000382E292E188EA0E00E944F9309F478C00E
:10164000CE0148969C8F8B8FE6E1F0E0FA8FE98F10
:101650003AE0A32EB12CC12CD12CE12CF12C00E0CE
:1016600010E0292D382D472D562D652D742D832DF5
:10167000922D0E94C292205DEB8DFC8D2293FC8FF7
:10168000EB8F898D9A8D01979A8F898F292D382D0F
:10169000472D562D652D742D832D922D0E94C492B9
:1016A000922E832E742E652E562E472E382E292EDE
:1016B000A0E00E944F9361F6898D9A8D0196FE01FC
:1016C0003196E80FF91F90819923C9F0319649E1CD
:1016D00038E121E080913F03811108C01092C500DC
:1016E0004093C4003093C10020933F038091C00019
:1016F00085FFFCCF9093C60091919111EBCF6C9632
:101700000FB6F894DEBF0FBECDBFDF91CF911F9112
:101710000F91FF90EF90DF90CF90BF90AF909F9090
:101720008F907F906F905F904F903F902F90089593
:1017300087E190E0C4CF5F926F927F928F929F92E9
:10174000AF92BF92CF92DF92EF92FF920F931F93CF
:10175000CF93DF93CDB7DEB7C054D1090FB6F8945D
:10176000DEBF0FBECDBF4C01EFE2F3E090E349E1F5
:1017700038E121E080913F03811108C01092C5003B
:101780004093C4003093C10020933F038091C00078
:1017900085FFFCCF9093C60091919111EBCFE62E7F
:1017A000F12C870101501109101611060CF087C0A9
:1017B000E80CF91CCE0101966C0141E3A42E43E034
:1017C000B42E59E1552E68E1662E7724739491E08A
:1017D000E91AF108F70180811F928F93BF92AF92AF
:1017E000DF92CF920E946B9399810F900F900F9090
:1017F0000F900F900F909923B9F0FE0132968091CF
:101800003F03811108C01092C5005092C40060923D
:10181000C10070923F038091C00085FFFCCF909380
:10182000C60091919111EBCF0150110901151105DD
:1018300071F6F40180811F928F9381E393E09F936F
:101840008F93DF92CF920E946B9399810F900F90AC
:101850000F900F900F900F909923D1F0FE013296C8
:1018600049E138E121E080913F03811108C01092E5
:10187000C5004093C4003093C10020933F03809182
:10188000C00085FFFCCF9093C60091919111EBCFE2
:10189000C05CDF4F0FB6F894DEBF0FBECDBFDF9147
:1018A000CF911F910F91FF90EF90DF90CF90BF905D
:1018B000AF909F908F907F906F905F900895CE0132
:1018C00001966C01B6CF2F923F924F925F926F922A
:1018D0007F928F929F92AF92BF92CF92DF92EF92C0
:1018E000FF920F931F93CF93DF93CDB7DEB7C4550D
:1018F000D1090FB6F894DEBF0FBECDBF25969FAFBE
:101900008EAF259722960FAF229723961FAF23976E
:101910001901FA01D62EB72F9801A101BF018D2D13
:101920009B2FA0E00E944F9309F43FC50091400314
:10193000109141037801E9A76296FFAF6297639621
:10194000DFAE63976596BFAF659742C001E0E01ACE
:10195000F108D701AA0FBB1FAA0FBB1FAE5BBC4F7C
:101960000C9165969FAD6597F0924103E09240031C
:101970002596EEADFFAD259701932596FFAFEEAF0F
:10198000259722962FAD229723963FAD2397A1014D
:1019900069A562967FAD629763968FAD6397AFEF4F
:1019A0000E943A9322962FAF229723963FAF239718
:1019B0001A0169A762967FAF629763968FAF6397AC
:1019C00065969FAF6597A0E00E944F9309F4EDC420
:1019D000E114F10409F0BACFC0906203D090630320
:1019E000E0906403F09065031FEFC11AD10AE10A89
:1019F000F10AC0926203D0926303E0926403F09212
:101A0000650300916603109167032091680330918C
:101A10006903C114D104E104F10409F0B5C40F5FF6
:101A20001F4F2F4F3F4F0093660310936703209380
:101A3000680330936903011511052105310509F08B
:101A4000A3C440916A0350916B0360916C03709141
:101A50006D034F5F5F4F6F4F7F4F40936A0350930B
:101A60006B0360936C0370936D0341155105610521
:101A7000710509F4B4C480906E0390906F03A09038
:101A80007003B09071032A013B0100E010E098015F
:101A9000B701A60189E04827498F5A8F6B8F7C8F49
:101AA000B901A80187E048274D8F5E8F6F8F78A31B
:101AB0009301820149E0042709A31AA32BA33CA3A5
:101AC000C501B401A3E06A276DA37EA38FA398A7E5
:101AD0008090720390907303A0907403B09075038C
:101AE00002E0802689829A82AB82BC8220917603B2
:101AF00030917703409178035091790363E0262772
:101B00002D833E834F83588780917A0390917B0386
:101B1000A0917C03B0917D03E8E08E2789879A87A6
:101B2000AB87BC8780907E0390907F03A09080035A
:101B3000B090810304E080268D869E86AF86B88AA9
:101B40002091820330918303409184035091850357
:101B500066E02627298B3A8B4B8B5C8B8091860322
:101B600090918703A0918803B0918903E2E08E27CA
:101B70008D8B9E8BAF8BB88F80908A0390908B0358
:101B8000A0908C03B0908D03F6E08F26C0908E035A
:101B9000D0908F03E0909003F090910304E0C02672
:101BA00025E030E040E050E061962CAF3DAF4EAF15
:101BB0005FAF619749E050E060E070E021964CAF84
:101BC0005DAF6EAF7FAF219767E070E080E090E09F
:101BD0002D966CAF7DAF8EAF9FAF2D9782E090E0DA
:101BE000A0E0B0E029968CAF9DAFAEAFBFAF299714
:101BF00003E010E020E030E009AF1AAF2BAF3CAFBC
:101C000028E030E040E050E02DAB3EAB4FAB58AFAA
:101C100043E050E060E070E049AB5AAB6BAB7CABAB
:101C200063E070E080E090E06DA77EA78FA798AB9F
:101C300040E050E0BA01B9A56496BFAF64976596DD
:101C4000FFAD65978A019B010057144628483C4127
:101C500009A71AA72BA73CA747545648684C7146BA
:101C6000D701C601E3E08E27840F951FA61FB71F7B
:101C7000260137012BE176946794579447942A956F
:101C8000D1F797018601000F111F221F331F000F8C
:101C9000111F221F331F000F111F221F331F000FA0
:101CA000111F221F331F000F111F221F331F402A35
:101CB000512A622A732A84259525A625B725098DE0
:101CC0001A8D2B8D3C8D080F191F2A1F3B1F098F62
:101CD0001A8F2B8F3C8F81E00827040F151F261FBA
:101CE000371F498C5A8C6B8C7C8CA9E17694679455
:101CF00057944794AA95D1F7898D9A8DAB8DBC8D59
:101D0000880F991FAA1FBB1F880F991FAA1FBB1FEF
:101D1000880F991FAA1FBB1F880F991FAA1FBB1FDF
:101D2000880F991FAA1FBB1F880F991FAA1FBB1FCF
:101D3000880F991FAA1FBB1F482A592A6A2A7B2A83
:101D400004251525262537258D8D9E8DAF8DB8A1AF
:101D5000800F911FA21FB31F8D8F9E8FAF8FB8A3CF
:101D6000E4E08E27840F951FA61FB71F0D8D1E8DD3
:101D70002F8D38A1E7E13695279517950795EA95B8
:101D8000D1F74D8C5E8C6F8C78A0E9E0440C551C2B
:101D9000661C771CEA95D1F70429152926293729CD
:101DA00080279127A227B32709A11AA12BA13CA123
:101DB000080F191F2A1F3B1F09A31AA32BA33CA31B
:101DC000D901C80111E08127840F951FA61FB71FF5
:101DD00009A11AA12BA13CA1E3E1369527951795FE
:101DE0000795EA95D1F749A05AA06BA07CA0EDE039
:101DF000440C551C661C771CEA95D1F7042915295B
:101E00002629372980279127A227B3270DA11EA1B4
:101E10002FA138A5080F191F2A1F3B1F0DA31EA3B2
:101E20002FA338A7D901C80115E08127840F951F7A
:101E3000A61FB71F4DA05EA06FA078A41BE17694EB
:101E40006794579447941A95D1F70DA11EA12FA11D
:101E500038A5000F111F221F331F000F111F221F53
:101E6000331F000F111F221F331F000F111F221FCE
:101E7000331F000F111F221F331F402A512A622ACD
:101E8000732A84259525A625B72509811A812B81DA
:101E90003C81080F191F2A1F3B1F09831A832B83BC
:101EA0003C8389E00827040F151F261F371F498030
:101EB0005A806B807C80A9E176946794579447940C
:101EC000AA95D1F789819A81AB81BC81880F991F2E
:101ED000AA1FBB1F880F991FAA1FBB1F880F991F1E
:101EE000AA1FBB1F880F991FAA1FBB1F880F991F0E
:101EF000AA1FBB1F880F991FAA1FBB1F880F991FFE
:101F0000AA1FBB1F482A592A6A2A7B2A042515259D
:101F1000262537258D819E81AF81B885800F911F41
:101F2000A21FB31F8D839E83AF83B887E2E08E2705
:101F3000840F951FA61FB71F0D811E812F81388525
:101F4000E7E13695279517950795EA95D1F74D80E6
:101F50005E806F807884E9E0440C551C661C771C19
:101F6000EA95D1F7042915292629372980279127B1
:101F7000A227B32709851A852B853C85080F191FD1
:101F80002A1F3B1F09871A872B873C87D901C80165
:101F900016E08127840F951FA61FB71F09851A8594
:101FA0002B853C85E3E13695279517950795EA95AE
:101FB000D1F749845A846B847C84EDE0440C551C31
:101FC000661C771CEA95D1F704291529262937299B
:101FD00080279127A227B3270D851E852F85388955
:101FE000080F191F2A1F3B1F0D871E872F87388B4D
:101FF000D901C80115E08127840F951FA61FB71FBF
:102000004D845E846F8478881BE17694679457943E
:1020100047941A95D1F70D851E852F853889000FB5
:10202000111F221F331F000F111F221F331F000F0C
:10203000111F221F331F000F111F221F331F000FFC
:10204000111F221F331F402A512A622A732A842516
:102050009525A625B72509891A892B893C89080F5A
:10206000191F2A1F3B1F098B1A8B2B8B3C8B83E07C
:102070000827040F151F261F371F49885A886B88A9
:102080007C88A9E17694679457944794AA95D1F7F0
:1020900089899A89AB89BC89880F991FAA1FBB1FA0
:1020A000880F991FAA1FBB1F880F991FAA1FBB1F4C
:1020B000880F991FAA1FBB1F880F991FAA1FBB1F3C
:1020C000880F991FAA1FBB1F880F991FAA1FBB1F2C
:1020D000482A592A6A2A7B2A0425152526253725C8
:1020E0008D899E89AF89B88D800F911FA21FB31F64
:1020F0008D8B9E8BAF8BB88FE5E08E27840F951F5D
:10210000A61FB71F0D891E892F89388DE7E13695E7
:10211000279517950795EA95D1F74D885E886F88C2
:10212000788CE9E0440C551C661C771CEA95D1F7C5
:10213000042915292629372980279127A227B32783
:10214000880E991EAA1EBB1ED501C40108E0802777
:10215000840F951FA61FB71F95018401E3E13695F3
:10216000279517950795EA95D1F724013501EDE0FC
:10217000440C551C661C771CEA95D1F704291529D7
:102180002629372980279127A227B327C80ED91ED1
:10219000EA1EFB1E89A59AA5ABA5BCA584179507C9
:1021A000A607B70709F058CD09811A812B813C8118
:1021B0008DA59EA5AFA5B8A9082719272A273B27D3
:1021C0000DA71EA72FA738AB0D811E812F81388543
:1021D00089A99AA9ABA9BCA9082719272A273B27AF
:1021E00009AB1AAB2BAB3CAB09851A852B853C851B
:1021F0008DA99EA9AFA9B8AD082719272A273B2783
:102200000DAB1EAB2FAB38AF0D851E852F853889E2
:1022100089AD9AADABADBCAD082719272A273B275E
:1022200009AF1AAF2BAF3CAF89899A89AB89BC89BA
:1022300029960CAD1DAD2EAD3FAD29978027912776
:10224000A227B3274D885E886F88788C2D960CADB9
:102250001DAD2EAD3FAD2D9740265126622673262B
:1022600021960CAD1DAD2EAD3FAD2197082519254A
:102270002A253B2521960CAF1DAF2EAF3FAF2197EE
:1022800061960CAD1DAD2EAD3FAD61970C251D25A2
:102290002E253F254032E7E35E07EFEE6E07E6ECC2
:1022A0007E0799F061960CAF1DAF2EAF3FAF6197DF
:1022B0002D964CAE5DAE6EAE7FAE2D9729968CAF4F
:1022C0009DAFAEAFBFAF2997BDCC64964FAD6497BD
:1022D00049A78DA49EA4AFA4B8A88092420390926F
:1022E0004303A0924403B092450349A95AA96BA99C
:1022F0007CA940934603509347036093480370932F
:1023000049038DA89EA8AFA8B8AC80924A039092CA
:102310004B03A0924C03B0924D0349AD5AAD6BAD47
:102320007CAD40934E0350934F03609350037093E2
:1023300051038093520390935303A0935403B0939B
:10234000550340925603509257036092580370927F
:10235000590321966CAD7DAD8EAD9FAD21976093F5
:102360005A0370935B0380935C0390935D03009327
:102370005E0310935F03209360033093610387E053
:10238000E82EF12C9F2FF0CA40906A0350906B0307
:1023900060906C0370906D0380906E0390906F035B
:1023A000A0907003B090710373CBCC5ADF4F0FB67F
:1023B000F894DEBF0FBECDBFDF91CF911F910F917B
:1023C000FF90EF90DF90CF90BF90AF909F908F9055
:1023D0007F906F905F904F903F902F9008958091E5
:1023E0006E0390916F03A0917003B09171030196F9
:1023F000A11DB11D80936E0390936F03A093700392
:10240000B09371034C015D01412C512C320100E06D
:1024100010E098013DCB6F927F928F929F92AF9286
:10242000BF92CF92DF92EF92FF920F931F93CF93C1
:10243000DF931F921F92CDB7DEB73B018A013C2D7F
:102440002D2DA5017C896D89E8A1F9A11A82198237
:10245000FF93EF938E8C9F8CA12CB12CC12CD12C8F
:10246000E32EF22E272F362FBE016F5F7F4F0E9483
:10247000CF6409811A81F3010083118312821382D0
:10248000148215821682178280E090E00F900F90E0
:102490000F900F90DF91CF911F910F91FF90EF90D0
:1024A000DF90CF90BF90AF909F908F907F906F9074
:1024B00008956F927F928F929F92AF92BF92CF9228
:1024C000DF92EF92FF920F931F93CF93DF931F92B0
:1024D0001F92CDB7DEB73B01FA2DEB2DA4017C890D
:1024E0006D89AE8DBF8D1A821982BF93AF938C8C8C
:1024F0009D8CA12CB12CC12CD12CEF2EFE2E89014C
:10250000272F362FBE016F5F7F4F0E94187B0981F6
:102510001A81F301008311831282138214821582BF
:10252000168217820F900F900F900F90DF91CF912E
:102530001F910F91FF90EF90DF90CF90BF90AF90E1
:102540009F908F907F906F9008952F923F924F921F
:102550005F926F927F928F929F92AF92BF92CF9233
:10256000DF92EF92FF920F931F93CF93DF93CDB73C
:10257000DEB7C857D1090FB6F894DEBF0FBECDBF86
:10258000E5969FAF8EAFE597AB967FAF6EAFAB97FB
:10259000E3965FAF4EAFE3974832510510F40C94C9
:1025A000D121FC0144AC55AC66AC77ACC080D18085
:1025B000E280F380408951896289738980A991A959
:1025C000A2A9B3A900A111A122A133A18480958061
:1025D000A680B78089A69AA6ABA6BCA68488958853
:1025E000A688B7888DAA9EAAAFAAB8AE84A895A8D7
:1025F000A6A8B7A861968CAE9DAEAEAEBFAE6197F1
:1026000084A095A0A6A0B7A029968CAE9DAEAEAE34
:10261000BFAE299780849184A284B3848DA69EA6A0
:10262000AFA6B8AA808C918CA28CB38C89AA9AAAE6
:10263000ABAABCAA80AC91ACA2ACB3ACA5968CAE54
:102640009DAEAEAEBFAEA59780A491A4A2A4B3A444
:102650002D968CAE9DAEAEAEBFAE2D978484958484
:10266000A684B784A9968CAE9DAEAEAEBFAEA99738
:10267000848C958CA68CB78C89AE9AAEABAEBCAE72
:1026800084A495A4A6A4B7A469968CAE9DAEAEAE64
:10269000BFAE69974601570165968CAF9DAFAEAF4F
:1026A000BFAF6597DB01CA017301620141E0C42637
:1026B000A196CCAEDDAEEEAEFFAEA19744E0E42E27
:1026C000F12CB501A40165968CAC9DACAEACBFAC51
:1026D0006597AF96FFAFEEAFAF97F7012C013D01C5
:1026E0004426552666267726482359236A237B23CA
:1026F000440F551F661F771F4426552666267726EA
:1027000084249524A624B7245A2DAB2CB82C892CCC
:10271000952EB501A4014027512762277327082170
:1027200019212A213B21000F111F221F331F40278F
:1027300051276227732784279527A627B7278C015F
:102740009D010F2EFBE03695279517950795FA9575
:10275000D1F7F02D072E75E1880F991FAA1FBB1F17
:102760007A95D1F7702D802B912BA22BB32B6C0176
:102770007D01C424D524E624F724482259226A2264
:102780007B22440C551C661C771CC424D524E624EB
:10279000F7242196CCAEDDAEEEAEFFAE21978C24B1
:1027A0009D24AE24BF24840175016596ECAEFDAE78
:1027B0000EAF1FAF6597E426F52606271727659607
:1027C0002CAC3DAC4EAC5FAC6597422153216421EB
:1027D0007521440F551F661F771FE426F52606272F
:1027E00017272596ECAEFDAE0EAF1FAF2597E82656
:1027F000F9260A271B27EE0CFF1C001F111FE11CE6
:102800006D96ECAEFDAE0EAF1FAF6D974DA95EA9F4
:102810006FA978AD49A45AA46BA47CA4442555257E
:10282000662577258DA99EA9AFA9B8AD84219521EC
:10283000A621B721880F991FAA1FBB1F4827592718
:102840006A277B276196CCACDDACEEACFFAC619720
:10285000C426D526E626F7265E2CEF2CFC2CCD2CA4
:10286000D52C29968CAD9DADAEADBFAD29978C25ED
:102870009D25AE25BF2529960CAD1DAD2EAD3FADD6
:1028800029970C211D212E213F21000F111F221FEE
:10289000331F80279127A227B3270DA91EA92FA98F
:1028A00038AD082719272A273B2748015901072E49
:1028B0007BE0B694A794979487947A95D1F7702D7E
:1028C0000F2EF5E1000F111F221F331FFA95D1F7CC
:1028D000F02D082919292A293B29380149016426A4
:1028E0007526862697264023512362237323440F9F
:1028F000551F661F771F642675268626972669A6AC
:102900007AA68BA69CA6C624D724E824F9245601CF
:10291000470161968CAE9DAEAEAEBFAE6197882684
:102920009926AA26BB2661962CAC3DAC4EAC5FAC7A
:10293000619782219321A421B521880F991FAA1F95
:10294000BB1F88269926AA26BB2629968CAE9DAE4B
:10295000AEAEBFAE299780269126A226B326880C5C
:10296000991CAA1CBB1C811C8DAA9EAAAFAAB8AE3A
:1029700089A99AA9ABA9BCA94DA45EA46FA478A803
:1029800084259525A625B72549A95AA96BA97CA90F
:102990004421552166217721440F551F661F771F5B
:1029A00084279527A627B727A5964CAD5DAD6EADBC
:1029B0007FADA597482759276A277B27562E672F73
:1029C000742F452F552D2D96CCACDDACEEACFFAC65
:1029D0002D97C426D526E626F7262D960CAD1DADDF
:1029E0002EAD3FAD2D970423152326233723000F4B
:1029F000111F221F331FC026D126E226F32609A964
:102A00001AA92BA93CA90C251D252E253F254801D7
:102A10005901072E7BE0B694A794979487947A95F2
:102A2000D1F7702D0F2EF5E1000F111F221F331F5C
:102A3000FA95D1F7F02D082919292A293B293801BF
:102A40004901682679268A269B2680239123A22382
:102A5000B323880F991FAA1FBB1F682679268A26D1
:102A60009B266DA67EA68FA698AA46255725682583
:102A700079255A014B01A5968CAE9DAEAEAEBFAE88
:102A8000A597D501C4018C259D25AE25BF25C8205D
:102A9000D920EA20FB20CC0CDD1CEE1CFF1C8C2571
:102AA0009D25AE25BF251C012D012026312642265D
:102AB0005326220C331C441C551C211C29AA3AAA5B
:102AC0004BAA5CAAC9ACDAACEBACFCACA9964CAC9A
:102AD0005DAC6EAC7FACA997C424D524E624F72462
:102AE00049AC5AAC6BAC7CACA9968CAC9DACAEAC92
:102AF000BFACA997482059206A207B20440C551C64
:102B0000661C771CC424D524E624F724A1968CAC3B
:102B10009DACAEACBFACA1978C249D24AE24BF2449
:102B20000A2DAB2CB82C892C902E69960CAD1DADBE
:102B30002EAD3FAD6997082519252A253B256996B5
:102B40004CAD5DAD6EAD7FAD6997482159216A21CD
:102B50007B21440F551F661F771F04271527262743
:102B6000372749AD5AAD6BAD7CAD40275127622761
:102B700073272A013B01032E3BE076946794579418
:102B800047943A95D1F7302D032E35E1440F551F68
:102B9000661F771F3A95D1F7302D442955296629AC
:102BA00077292A013B014C245D246E247F24C42212
:102BB000D522E622F722CC0CDD1CEE1CFF1C4C2497
:102BC0005D246E247F2484249524A624B7247401D4
:102BD00065012D96CCAEDDAEEEAEFFAE2D97C026D4
:102BE000D126E226F3262D968CAC9DACAEACBFACC4
:102BF0002D97082119212A213B21000F111F221F87
:102C0000331FC026D126E226F3269701860104272A
:102C1000152726273727000F111F221F331F011DDD
:102C200009AF1AAF2BAF3CAF0DA91EA92FA938AD24
:102C300021964CAD5DAD6EAD7FAD21970427152774
:102C4000262737274DA95EA96FA978AD21968CACB0
:102C50009DACAEACBFAC2197482159216A217B21A4
:102C6000440F551F661F771F042715272627372770
:102C70002D968CAC9DACAEACBFAC2D97802691262A
:102C8000A226B326782D492D5A2D6B2D69964CAF6F
:102C90005DAF6EAF7FAF6997482759276A277B27BB
:102CA00069968CAC9DACAEACBFAC6997882199217C
:102CB000AA21BB21880F991FAA1FBB1F482759278C
:102CC0006A277B278DA89EA8AFA8B8AC8426952636
:102CD000A626B726D501C401072E7BE0B695A79599
:102CE000979587957A95D1F7702D2D968CAF9DAFDE
:102CF000AEAFBFAF2D97D501C401072E75E1880F88
:102D0000991FAA1FBB1F7A95D1F7702D2D968CACF9
:102D10009DACAEACBFAC2D9788299929AA29BB29B7
:102D20004C015D0180269126A226B3260823192393
:102D30002A233B23000F111F221F331F80269126B9
:102D4000A226B32621968CAE9DAEAEAEBFAE219725
:102D500069968CAC9DACAEACBFAC699721960CADBE
:102D60001DAD2EAD3FAD219780269126A226B3261C
:102D700094018501A1960CAF1DAF2EAF3FAFA19777
:102D80000427152726273727A1968CAC9DACAEAC1F
:102D9000BFACA197482159216A217B21440F551FBF
:102DA000661F771F04271527262737272D960CAF78
:102DB0001DAF2EAF3FAF2D97082719272A273B2796
:102DC000000F111F221F331F011D0DAB1EAB2FABB8
:102DD00038AF49A95AA96BA97CA909A51AA52BA5A1
:102DE0003CA5402751276227732789A99AA9ABA937
:102DF000BCA980239123A223B323880F991FAA1F64
:102E0000BB1F482759276A277B2765968CAC9DAC4A
:102E1000AEACBFAC659784269526A626B7261A2D9C
:102E2000AB2CB82C892C912ED501C4018C259D2565
:102E3000AE25BF25C820D920EA20FB20CC0CDD1C04
:102E4000EE1CFF1C8C259D25AE25BF2509A91AA9BE
:102E50002BA93CA9082719272A273B2768017901B4
:102E60000B2EBBE0F694E794D794C794BA95D1F7AC
:102E7000B02D0F2EF5E1000F111F221F331FFA9501
:102E8000D1F7F02D0C291D292E293F296801790140
:102E9000C426D526E626F726402351236223732332
:102EA000440F551F661F771FC426D526E626F72632
:102EB000C9A6DAA6EBA6FCA68C249D24AE24BF24CA
:102EC000B401A50165964CAF5DAF6EAF7FAF65975E
:102ED000482759276A277B2765968CAC9DACAEACFA
:102EE000BFAC659788219921AA21BB21880F991F22
:102EF000AA1FBB1F482759276A277B2769964CAF13
:102F00005DAF6EAF7FAF6997402751276227732768
:102F1000440F551F661F771F411D49AB5AAB6BAB62
:102F20007CAB09AD1AAD2BAD3CADADA4BEA4CFA416
:102F3000D8A80A251B252C253D2589AD9AADABAD1A
:102F4000BCAD8A219B21AC21BD21880F991FAA1FEE
:102F5000BB1F082719272A273B276196CCACDDAC7D
:102F6000EEACFFAC6197C026D126E226F326BE2C3C
:102F7000EF2CFC2CCD2CDB2C25968CAD9DADAEAD75
:102F8000BFAD25978C259D25AE25BF2525964CAD3B
:102F90005DAD6EAD7FAD25974C215D216E217F210A
:102FA000440F551F661F771F84279527A627B7272D
:102FB00049AD5AAD6BAD7CAD482759276A277B27B1
:102FC0004A015B01072E7BE0B694A79497948794FF
:102FD0007A95D1F7702D032E35E1440F551F661FEA
:102FE000771F3A95D1F7302D482959296A297B292D
:102FF0004A015B0180269126A226B32604231523CD
:1030000026233723000F111F221F331F80269126EE
:10301000A226B3268DA69EA6AFA6B8AAC824D924F8
:10302000EA24FB249601870161960CAF1DAF2EAFF9
:103030003FAF619768017901C826D926EA26FB26A9
:1030400080239123A223B323880F991FAA1FBB1F9C
:10305000C826D926EA26FB2646015701842695264E
:10306000A626B726880C991CAA1CBB1C811C89AEFD
:103070009AAEABAEBCAE6D960CAD1DAD2EAD3FADF8
:103080006D9704251525262537256D968CAD9DADAC
:10309000AEADBFAD6D9784219521A621B721880FD4
:1030A000991FAA1FBB1F082719272A273B27A59668
:1030B0004CAD5DAD6EAD7FADA59740275127622722
:1030C0007327962E672F742F452F592D29968CAC78
:1030D0009DACAEACBFAC299784269526A626B72614
:1030E00029968CAD9DADAEADBFAD299784239523B8
:1030F000A623B723880F991FAA1FBB1F88269926CE
:10310000AA26BB266D968CAD9DADAEADBFAD6D97BD
:1031100088259925AA25BB252C013D01032E3BE0DE
:1031200076946794579447943A95D1F7302D072EAB
:1031300075E1880F991FAA1FBB1F7A95D1F7702DD3
:1031400084299529A629B7292C013D01402651261D
:1031500062267326082319232A233B23000F111FFD
:10316000221F331F402651266226732644255525EB
:10317000662577258A01AB01B8018A019B010825E4
:1031800019252A253B2584229522A622B722880CC0
:10319000991CAA1CBB1C082519252A253B2548017A
:1031A000590188269926AA26BB26880C991CAA1C98
:1031B000BB1C811C25968CAE9DAEAEAEBFAE2597D6
:1031C0003197309719F1D501C401A9964CAE5DAE87
:1031D0006EAE7FAEA997A5964CAF5DAF6EAF7FAFD9
:1031E000A59729960CAF1DAF2EAF3FAF299797013A
:1031F000860165968CAC9DACAEACBFAC6597219654
:103200004CAD5DAD6EAD7FAD219768CA2996CCAE51
:10321000DDAEEEAEFFAE2997A5960CAF1DAF2EAF7B
:103220003FAFA5972596CCACDDACEEACFFAC2597B7
:10323000AF96EEADFFADAF97A1960CAD1DAD2EAD27
:103240003FADA19704AF15AF26AF37AF21968CAD38
:103250009DADAEADBFAD219780839183A283B38333
:103260002D968CAC9DACAEACBFAC2D9780A691A634
:10327000A2A6B3A60DA91EA92FA938AD048B158B44
:10328000268B378B89A59AA5ABA5BCA5848395838E
:10329000A683B78365968CAC9DACAEACBFAC65978E
:1032A00080AA91AAA2AAB3AA69960CAD1DAD2EADB3
:1032B0003FAD699704A715A726A737A789A99AA99B
:1032C000ABA9BCA9808F918FA28FB38F8DA49EA430
:1032D000AFA4B8A880869186A286B38661960CAD0D
:1032E0001DAD2EAD3FAD619704AB15AB26AB37AB33
:1032F00029968CAD9DADAEADBFAD299780A391A3AE
:10330000A2A3B3A389AC9AACABACBCAC848E958EB3
:10331000A68EB78E448655866686778640AF51AFB7
:1033200062AF73AFA5960CAD1DAD2EAD3FADA597A9
:1033300004A315A326A337A3C08AD18AE28AF38AFD
:10334000AB96AEADBFADAB978D919D910D90BC91FD
:10335000A02D21968CAC9DACAEACBFAC219788263D
:103360009926AA26BB26E1968CAE9DAEAEAEBFAE28
:10337000E19780829182A282B382AB96AEADBFAD5F
:10338000AB9714960D911D912D913C91179789A49F
:103390009AA4ABA4BCA480269126A226B32621968B
:1033A0008CAE9DAEAEAEBFAE219784829582A682D2
:1033B000B78218960D911D912D913C911B978DA46C
:1033C0009EA4AFA4B8A880269126A226B32689A6DB
:1033D0009AA6ABA6BCA680869186A286B3861C96CA
:1033E0000D911D912D913C911F97042515252625A2
:1033F0003725A9960CAF1DAF2EAF3FAFA997048715
:1034000015872687378750962D903D904D905C907C
:1034100053972C243D244E245F2425962CAE3DAE9C
:103420004EAE5FAE2597208A318A428A538A5496DF
:103430002D903D904D905C9057976DA87EA88FA8D9
:1034400098AC62247324842495246D966CAE7DAE72
:103450008EAE9FAE6D97648A758A868A978A5896D3
:103460008D909D90AD90BC905B97C9A8DAA8EBA811
:10347000FCA88C249D24AE24BF24808E918EA28E25
:10348000B38E5C96CD90DD90ED90FC905F9709AD8A
:103490001AAD2BAD3CADC026D126E226F326C48E54
:1034A000D58EE68EF78E90960D911D912D913C91C3
:1034B000939729968CAD9DADAEADBFAD29970827EA
:1034C00019272A273B2700A311A322A333A3AB96D6
:1034D000AEADBFADAB9794962D903D904D905C9066
:1034E0009797A5968CAD9DADAEADBFADA59728269F
:1034F00039264A265B2629962CAE3DAE4EAE5FAEEF
:10350000299724A235A246A257A2E396AEADBFAD3D
:10351000E3979897E396BFAFAEAFE397AB968EADC8
:103520009FADAB978896AB969FAF8EAFAB979897B2
:10353000E8F1C9AEDAAEEBAEFCAEA5964CAF5DAF2E
:103540006EAF7FAFA59789AA9AAAABAABCAA29A4F5
:103550003AA44BA45CA42DA63EA64FA658AA6D96ED
:103560004CAC5DAC6EAC7FAC6D974DAA5EAA6FAAF9
:1035700078AE21966CAC7DAC8EAC9FAC219769A6E1
:103580007AA68BA69CA6E1968CAC9DACAEACBFACEB
:10359000E197A1964CAC5DAC6EAC7FACA197259643
:1035A0008CAD9DADAEADBFAD25977EC8DB01CA0128
:1035B000A9964CAC5DAC6EAC7FACA997CDA6DEA64F
:1035C000EFA6F8AAE9964CAE5DAE6EAE7FAEE99777
:1035D000A5968CAF9DAFAEAFBFAFA5978DAA9EAAA3
:1035E000AFAAB8AE09AB1AAB2BAB3CAB65964CACF3
:1035F0005DAC6EAC7FAC659725968CAC9DACAEACEB
:10360000BFAC2597E196CCACDDACEEACFFACE1975E
:103610008E010F5F1F4F88E2D8011D928A95E9F74E
:10362000E3964EAD5FADE397AB966EAD7FADAB97D6
:10363000C8010E945B93E396EEADFFADE397E00F08
:10364000F11F81E0808388A5806888A7A1962CADB2
:103650003DAD4EAD5FADA19761E02627A1962CAFA1
:103660003DAF4EAF5FAFA197E4E0F0E0D701C601F8
:103670007501640109A91AA92BA93CA96D968CAC06
:103680009DACAEACBFAC6D97B701A60148275927DA
:103690006A277B278C219D21AE21BF21880F991F8E
:1036A000AA1FBB1F482759276A277B27D301C201BE
:1036B00084279527A627B727782E492E5A2E6B2EBA
:1036C000D301C20180279127A227B3270421152106
:1036D00026213721000F111F221F331F802791271A
:1036E000A227B327C826D926EA26FB2697018601FA
:1036F0000F2EFBE03695279517950795FA95D1F78C
:10370000F02D0B2EB5E1CC0CDD1CEE1CFF1CBA9588
:10371000D1F7B02DC02AD12AE22AF32A97018601D7
:1037200004271527262737274C215D216E217F216D
:10373000440F551F661F771F042715272627372795
:1037400009AB1AAB2BAB3CABB901A80144255525FD
:10375000662577252A011B0165962CAE3DAE4EAE3F
:103760005FAE6597282639264A265B2665960CADFE
:103770001DAD2EAD3FAD659780239123A223B323CA
:10378000880F991FAA1FBB1F282639264A265B26A9
:1037900029AE3AAE4BAE5CAE2C243D244E245F24C1
:1037A000220C331C441C551C211C25962CAE3DAE0E
:1037B0004EAE5FAE259721960CAD1DAD2EAD3FAD43
:1037C0002197082519252A253B2521968CAD9DADED
:1037D000AEADBFAD219788219921AA21BB21880FC9
:1037E000991FAA1FBB1F082719272A273B27619665
:1037F000CCACDDACEEACFFAC6197C026D126E226A6
:10380000F3264E2DEF2CFC2CCD2CD42E29964CAD2E
:103810005DAD6EAD7FAD29974C255D256E257F256D
:1038200029968CAD9DADAEADBFAD29978C219D2164
:10383000AE21BF21880F991FAA1FBB1F48275927F8
:103840006A277B2784269526A626B726D501C4019C
:10385000072E7BE0B695A795979587957A95D1F732
:10386000702D072E75E1880C991CAA1CBB1C7A953B
:10387000D1F7702D882A992AAA2ABB2AD501C4011A
:1038800080279127A227B327082119212A213B212C
:10389000000F111F221F331F80279127A227B32754
:1038A00061968CAF9DAFAEAFBFAF6197C826D926EA
:1038B000EA26FB2626011701A9962CAE3DAE4EAE98
:1038C0005FAEA9972426352646265726A996CCAC66
:1038D000DDACEEACFFACA9974C215D216E217F21C0
:1038E000440F551F661F771F242635264626572668
:1038F0006D962CAE3DAE4EAE5FAE6D97282439244A
:103900004A245B24220C331C441C551C211C219688
:103910002CAE3DAE4EAE5FAE21978DA99EA9AFA94C
:10392000B8ADE9A4FAA40BA51CA58E259F25A02758
:10393000B1274DA95EA96FA978AD4E215F21602303
:103940007123440F551F661F771F84279527A627CD
:10395000B727A5964CAC5DAC6EAC7FACA59748265E
:1039600059266A267B26F62C672C742C452C5F2C56
:103970002D960CAD1DAD2EAD3FAD2D970425152513
:10398000262537252D964CAD5DAD6EAD7FAD2D97BF
:103990004421552166217721440F551F661F771F4B
:1039A00004271527262737274DA95EA96FA978ADCB
:1039B00040275127622773276A017B010B2EBBE04A
:1039C000F694E794D794C794BA95D1F7B02D032E07
:1039D00035E1440F551F661F771F3A95D1F7302DFB
:1039E0004C295D296E297F294A015B018826992689
:1039F000AA26BB2684239523A623B723880F991FC5
:103A0000AA1FBB1F88269926AA26BB2689A69AA686
:103A1000ABA6BCA6482459246A247B246201530126
:103A2000A596ACAEBDAECEAEDFAEA597D601C501B4
:103A300080279127A227B3270A211B212C213D2172
:103A4000000F111F221F331F80279127A227B327A2
:103A50002C013D014426552666267726440C551C2C
:103A6000661C771C411CCDA4DEA4EFA4F8A8E9963F
:103A70002CAD3DAD4EAD5FADE997C226D326E42611
:103A8000F5264DA55EA56FA578A9E9968CAC9DACF1
:103A9000AEACBFACE997482159216A217B21440F84
:103AA000551F661F771FC426D526E626F726A19642
:103AB0008CAC9DACAEACBFACA1978C249D24AE2445
:103AC000BF24382D092D1A2D2B2D0DAB1EAB2FAB7E
:103AD00038AF69960CAD1DAD2EAD3FAD69978DA881
:103AE0009EA8AFA8B8AC082519252A253B256996BC
:103AF0004CAD5DAD6EAD7FAD6997482159216A210E
:103B00007B21440F551F661F771F04271527262783
:103B100037278DA49EA4AFA4B8A880269126A226FC
:103B2000B326B501A401032E3BE076956795579522
:103B300047953A95D1F7302D2D964CAF5DAF6EAFCE
:103B40007FAF2D97B501A401032E35E1440F551F1A
:103B5000661F771F3A95D1F7302D2D968CAC9DAC12
:103B6000AEACBFAC2D97482959296A297B294A0157
:103B70005B018C249D24AE24BF24C422D522E622DE
:103B8000F722CC0CDD1CEE1CFF1C8C249D24AE24E3
:103B9000BF2429968CAE9DAEAEAEBFAE29978DA840
:103BA0009EA8AFA8B8AC2996CCACDDACEEACFFAC0F
:103BB00029978C249D24AE24BF2474016501CDAACD
:103BC000DEAAEFAAF8AEC026D126E226F3268DA8FB
:103BD0009EA8AFA8B8AC082119212A213B21000FCB
:103BE000111F221F331FC026D126E226F32697017C
:103BF00086010427152726273727000F111F221FAC
:103C0000331F011D0DA71EA72FA738AB21964CAD62
:103C10005DAD6EAD7FAD219789A89AA8ABA8BCA871
:103C2000482559256A257B2521960CAD1DAD2EAD65
:103C30003FAD2197082119212A213B21000F111F97
:103C4000221F331F40275127622773278DA89EA864
:103C5000AFA8B8AC84269526A626B726382D092D00
:103C60001A2D2B2D0DAB1EAB2FAB38AF0827192704
:103C70002A273B278DA89EA8AFA8B8AC88219921F8
:103C8000AA21BB21880F991FAA1FBB1F082719272C
:103C90002A273B2721968CAC9DACAEACBFAC2197BC
:103CA00080269126A226B326D501C401072E7BE0EB
:103CB000B695A795979587957A95D1F7702D2D96FE
:103CC0008CAF9DAFAEAFBFAF2D97D501C401072E0E
:103CD00075E1880F991FAA1FBB1F7A95D1F7702D28
:103CE0002D968CAC9DACAEACBFAC2D978829992994
:103CF000AA29BB294C015D0184269526A626B72654
:103D0000482359236A237B23440F551F661F771FBF
:103D100084269526A626B72689AA9AAAABAABCAA63
:103D20008DA89EA8AFA8B8AC49A95AA96BA97CA92F
:103D300084269526A626B726B401A501A1964CAFE8
:103D40005DAF6EAF7FAFA1974027512762277327E2
:103D5000A1968CAC9DACAEACBFACA197082119214B
:103D60002A213B21000F111F221F331F40275127FB
:103D7000622773272D964CAF5DAF6EAF7FAF2D9747
:103D8000482759276A277B27440F551F661F771F2F
:103D9000411DAD964CAF5DAF6EAF7FAFAD976196F5
:103DA0000CAD1DAD2EAD3FAD619704251525262523
:103DB000372561968CAD9DADAEADBFAD61978421C9
:103DC0009521A621B721880F991FAA1FBB1F08277D
:103DD00019272A273B2765968CAD9DADAEADBFADAB
:103DE000659780279127A227B327B82E892E9A2E70
:103DF000AB2ED501C4018C259D25AE25BF25C8203D
:103E0000D920EA20FB20CC0CDD1CEE1CFF1C8C25ED
:103E10009D25AE25BF25AC01BD0144255525662550
:103E200077256A017B010B2EBBE0F694E794D794CB
:103E3000C794BA95D1F7B02D032E35E1440F551F25
:103E4000661F771F3A95D1F7302D4C295D296E29D1
:103E50007F291A012B0120263126422653260423CE
:103E6000152326233723000F111F221F331F20265F
:103E700031264226532621962CAE3DAE4EAE5FAE85
:103E8000219792018101082519252A253B25380112
:103E9000290165964CAE5DAE6EAE7FAE6597482645
:103EA00059266A267B266596ACACBDACCEACDFACA1
:103EB00065978A219B21AC21BD21880F991FAA1FDC
:103EC000BB1F482659266A267B2669964CAE5DAEF6
:103ED0006EAE7FAE69974426552666267726440C3B
:103EE000551C661C771C411C4DAA5EAA6FAA78AEB1
:103EF0000DA51EA52FA538A9C9A4DAA4EBA4FCA47E
:103F00000C251D252E253F258DA59EA5AFA5B8A95D
:103F10008C219D21AE21BF21880F991FAA1FBB1F95
:103F2000082719272A273B27A996CCACDDACEEAC95
:103F3000FFACA997C026D126E226F3264E2DEF2C02
:103F4000FC2CCD2CD42E89AD9AADABADBCAD8C255F
:103F50009D25AE25BF2549AD5AAD6BAD7CAD4C213D
:103F60005D216E217F21440F551F661F771F842717
:103F70009527A627B7274DA55EA56FA578A9482741
:103F800059276A277B274A015B01072E7BE0B694FD
:103F9000A794979487947A95D1F7702D032E35E1E5
:103FA000440F551F661F771F3A95D1F7302D4829CA
:103FB00059296A297B291A012B01202631264226FC
:103FC00053260423152326233723000F111F221FF6
:103FD000331F202631264226532629A63AA64BA671
:103FE0005CA6C224D324E424F5243601270161967B
:103FF0004CAE5DAE6EAE7FAE619793018201082735
:1040000019272A273B2784219521A621B721880F2C
:10401000991FAA1FBB1F082719272A273B275801CA
:104020006901A426B526C626D726AA0CBB1CCC1C23
:10403000DD1CA11CADA6BEA6CFA6D8AA25968CAD28
:104040009DADAEADBFAD25972996CCACDDACEEAC49
:10405000FFAC29978C259D25AE25BF2525964CAD17
:104060005DAD6EAD7FAD25974C215D216E217F2129
:10407000440F551F661F771F84279527A627B7274C
:10408000A5964CAC5DAC6EAC7FACA5974826592686
:104090006A267B26D62C672C742C452C5D2C6D96BD
:1040A0008CAC9DACAEACBFAC6D9784249524A6249B
:1040B000B7246D964CAD5DAD6EAD7FAD6D9744216F
:1040C000552166217721440F551F661F771F8426CF
:1040D0009526A626B7262596CCACDDACEEACFFAC7B
:1040E0002597C824D924EA24FB24B701A601032E6E
:1040F0003BE076956795579547953A95D1F7302DE2
:104100000B2EB5E1CC0CDD1CEE1CFF1CBA95D1F7D3
:10411000B02DC42AD52AE62AF72AB701A6014827D6
:1041200059276A277B278C219D21AE21BF21880F2B
:10413000991FAA1FBB1F482759276A277B27442698
:10414000552666267726C20123013C01D301C20110
:1041500088259925AA25BB2584209520A620B7204F
:10416000880C991CAA1CBB1C88259925AA25BB254F
:10417000C826D926EA26FB26CC0CDD1CEE1CFF1C2B
:10418000C11C3197309719F1E9964CAF5DAF6EAF16
:104190007FAFE997A5964CAE5DAE6EAE7FAEA597AC
:1041A00029968CAF9DAFAEAFBFAF2997AD968CACC3
:1041B0009DACAEACBFACAD9765964CAC5DAC6EAC97
:1041C0007FAC659789A99AA9ABA9BCA95DCA43012F
:1041D0003201A1962CAC3DAC4EAC5FACA197E596FC
:1041E000EEADFFADE59724AE35AE46AE57AE2D969B
:1041F0002CAC3DAC4EAC5FAC2D9720A631A642A6B0
:1042000053A665962CAC3DAC4EAC5FAC659720AA2E
:1042100031AA42AA53AA69962CAC3DAC4EAC5FAC15
:10422000699724A635A646A657A661962CAC3DAC48
:104230004EAC5FAC619724AA35AA46AA57AA60AED5
:1042400071AE82AE93AE89809A80AB80BC8029A883
:104250003AA84BA85CA882249324A424B524808285
:104260009182A282B3828D809E80AF80B884219695
:104270002CAC3DAC4EAC5FAC219782249324A4249B
:10428000B52484829582A682B78289849A84AB847D
:10429000BC8429A43AA44BA45CA482249324A4241F
:1042A000B52480869186A286B3868D849E84AF8451
:1042B000B88884269526A626B72684869586A6865F
:1042C000B78649895A896B897C894C255D256E257D
:1042D0007F25408B518B628B738B4D895E896F89F3
:1042E000788DAD962CAC3DAC4EAC5FACAD97422515
:1042F000532564257525448B558B668B778B498DAB
:104300005A8D6B8D7C8D2DA83EA84FA858AC4225A8
:10431000532564257525408F518F628F738F4D8D86
:104320005E8D6F8D78A12DA43EA44FA458A8422580
:10433000532564257525448F558F668F778F49A146
:104340005AA16BA17CA1402751276227732740A364
:1043500051A362A373A34DA15EA16FA178A54827C5
:1043600059276A277B2744A355A366A377A3C85878
:10437000DF4F0FB6F894DEBF0FBECDBFDF91CF91F8
:104380001F910F91FF90EF90DF90CF90BF90AF9073
:104390009F908F907F906F905F904F903F902F9065
:1043A0000895DC01DC962D903D904D905C90DF9758
:1043B000A1962CAE3DAE4EAE5FAEA197CD90DD90F6
:1043C000ED90FC90139750968D909D90AD90BC9081
:1043D0005397D0964D905D906D907C90D39790962A
:1043E0002D913D914D915C91939729AB3AAB4BAB9D
:1043F0005CAB14962D913D914D915C911797219650
:104400002CAF3DAF4EAF5FAF219754962D913D91AC
:104410004D915C9157976D962CAF3DAF4EAF5FAF0E
:104420006D97D4962D913D914D915C91D797619662
:104430002CAF3DAF4EAF5FAF619794962D913D91FC
:104440004D915C91979729962CAF3DAF4EAF5FAFE2
:10445000299718962D913D914D915C911B9729A715
:104460003AA74BA75CA758962D913D914D915C9131
:104470005B972DAB3EAB4FAB58AFD8962D913D918E
:104480004D915C91DB97A5962CAF3DAF4EAF5FAFE2
:10449000A59798962D913D914D915C919B972D9666
:1044A0002CAF3DAF4EAF5FAF2D971C962D913D9138
:1044B0004D915C911F97E9962CAF3DAF4EAF5FAF2A
:1044C000E9975C962D913D914D915C915F972DA759
:1044D0003EA74FA758AB9C962D913D914D915C9175
:1044E0009F9769962CAF3DAF4EAF5FAF699790C86D
:1044F0002F923F924F925F926F927F928F929F92F4
:10450000AF92BF92CF92DF92EF92FF920F931F93E1
:10451000CF93DF93CDB7DEB7C857D1090FB6F89464
:10452000DEBF0FBECDBFE5969FAF8EAFE597AB96D2
:104530007FAF6EAFAB97E3965FAF4EAFE397483276
:10454000510510F40C94A431FC0144AC55AC66AC9C
:1045500077ACC080D180E280F38040895189628944
:10456000738980A991A9A2A9B3A900A111A122A12F
:1045700033A184809580A680B78089A69AA6ABA631
:10458000BCA684889588A688B7888DAA9EAAAFAA5B
:10459000B8AE84A895A8A6A8B7A861968CAE9DAE23
:1045A000AEAEBFAE619784A095A0A6A0B7A0299695
:1045B0008CAE9DAEAEAEBFAE299780849184A284AE
:1045C000B3848DA69EA6AFA6B8AA808C918CA28C2F
:1045D000B38C89AA9AAAABAABCAA80AC91ACA2ACB3
:1045E000B3ACA5968CAE9DAEAEAEBFAEA59780A483
:1045F00091A4A2A4B3A42D968CAE9DAEAEAEBFAED8
:104600002D9784849584A684B784A9968CAE9DAE9C
:10461000AEAEBFAEA997848C958CA68CB78C89AEB4
:104620009AAEABAEBCAE84A495A4A6A4B7A469967A
:104630008CAE9DAEAEAEBFAE699746015701659692
:104640008CAF9DAFAEAFBFAF6597DB01CA01730101
:10465000620144E0C426A196CCAEDDAEEEAEFFAE64
:10466000A19744E0E42EF12CB501A40165968CAC31
:104670009DACAEACBFAC6597AF96FFAFEEAFAF975A
:10468000F7012C013D01442655266626772648234E
:1046900059236A237B23440F551F661F771F442627
:1046A00055266626772684249524A624B7245A2DD9
:1046B000AB2CB82C892C952EB501A401402751278D
:1046C00062277327082119212A213B21000F111F7E
:1046D000221F331F402751276227732784279527DE
:1046E000A627B7278C019D010F2EFBE03695279555
:1046F00017950795FA95D1F7F02D072E75E1880FDC
:10470000991FAA1FBB1F7A95D1F7702D802B912B73
:10471000A22BB32B6C017D01C424D524E624F724FD
:10472000482259226A227B22440C551C661C771CA5
:10473000C424D524E624F7242196CCAEDDAEEEAE1B
:10474000FFAE21978C249D24AE24BF2484017501E3
:104750006596ECAEFDAE0EAF1FAF6597E426F5266D
:104760000627172765962CAC3DAC4EAC5FAC659721
:104770004221532164217521440F551F661F771F65
:10478000E426F526062717272596ECAEFDAE0EAFDC
:104790001FAF2597E826F9260A271B27EE0CFF1CDA
:1047A000001F111FE11C6D96ECAEFDAE0EAF1FAFEA
:1047B0006D974DA95EA96FA978AD49A45AA46BA4C1
:1047C0007CA444255525662577258DA99EA9AFA9EA
:1047D000B8AD84219521A621B721880F991FAA1F62
:1047E000BB1F482759276A277B276196CCACDDACD5
:1047F000EEACFFAC6197C426D526E626F7265E2CE4
:10480000EF2CFC2CCD2CD52C29968CAD9DADAEADCE
:10481000BFAD29978C259D25AE25BF2529960CADCA
:104820001DAD2EAD3FAD29970C211D212E213F211D
:10483000000F111F221F331F80279127A227B327A4
:104840000DA91EA92FA938AD082719272A273B270C
:1048500048015901072E7BE0B694A794979487945A
:104860007A95D1F7702D0F2EF5E1000F111F221F41
:10487000331FFA95D1F7F02D082919292A293B2948
:104880003801490164267526862697264023512340
:1048900062237323440F551F661F771F64267526F6
:1048A0008626972669A67AA68BA69CA6C624D72418
:1048B000E824F9245601470161968CAE9DAEAEAE58
:1048C000BFAE619788269926AA26BB2661962CAC96
:1048D0003DAC4EAC5FAC619782219321A421B52100
:1048E000880F991FAA1FBB1F88269926AA26BB26B8
:1048F00029968CAE9DAEAEAEBFAE2997802691268E
:10490000A226B326880C991CAA1CBB1C811C8DAA4C
:104910009EAAAFAAB8AE89A99AA9ABA9BCA94DA471
:104920005EA46FA478A884259525A625B72549A956
:104930005AA96BA97CA94421552166217721440FEE
:10494000551F661F771F84279527A627B727A5968B
:104950004CAD5DAD6EAD7FADA597482759276A2751
:104960007B27562E672F742F452F552D2D96CCACB7
:10497000DDACEEACFFAC2D97C426D526E626F72697
:104980002D960CAD1DAD2EAD3FAD2D9704231523F7
:1049900026233723000F111F221F331FC026D126C5
:1049A000E226F32609A91AA92BA93CA90C251D2545
:1049B0002E253F2548015901072E7BE0B694A79488
:1049C000979487947A95D1F7702D0F2EF5E1000F0B
:1049D000111F221F331FFA95D1F7F02D082919292D
:1049E0002A293B2938014901682679268A269B26EF
:1049F00080239123A223B323880F991FAA1FBB1FD3
:104A0000682679268A269B266DA67EA68FA698AA5A
:104A100046255725682579255A014B01A5968CAE68
:104A20009DAEAEAEBFAEA597D501C4018C259D2528
:104A3000AE25BF25C820D920EA20FB20CC0CDD1CE8
:104A4000EE1CFF1C8C259D25AE25BF251C012D01CC
:104A50002026312642265326220C331C441C551C8A
:104A6000211C29AA3AAA4BAA5CAAC9ACDAACEBACC5
:104A7000FCACA9964CAC5DAC6EAC7FACA997C424E1
:104A8000D524E624F72449AC5AAC6BAC7CACA9968F
:104A90008CAC9DACAEACBFACA997482059206A2025
:104AA0007B20440C551C661C771CC424D524E624AA
:104AB000F724A1968CAC9DACAEACBFACA1978C2476
:104AC0009D24AE24BF240A2DAB2CB82C892C902E0B
:104AD00069960CAD1DAD2EAD3FAD69970825192522
:104AE0002A253B2569964CAD5DAD6EAD7FAD6997CE
:104AF000482159216A217B21440F551F661F771FCA
:104B0000042715272627372749AD5AAD6BAD7CAD55
:104B100040275127622773272A013B01032E3BE0E0
:104B200076946794579447943A95D1F7302D032E95
:104B300035E1440F551F661F771F3A95D1F7302D89
:104B400044295529662977292A013B014C245D24F3
:104B50006E247F24C422D522E622F722CC0CDD1C51
:104B6000EE1CFF1C4C245D246E247F248424952499
:104B7000A624B724740165012D96CCAEDDAEEEAE51
:104B8000FFAE2D97C026D126E226F3262D968CACBB
:104B90009DACAEACBFAC2D97082119212A213B2139
:104BA000000F111F221F331FC026D126E226F32635
:104BB000970186010427152726273727000F111F85
:104BC000221F331F011D09AF1AAF2BAF3CAF0DA938
:104BD0001EA92FA938AD21964CAD5DAD6EAD7FAD50
:104BE000219704271527262737274DA95EA96FA9E6
:104BF00078AD21968CAC9DACAEACBFAC2197482172
:104C000059216A217B21440F551F661F771F0427F6
:104C10001527262737272D968CAC9DACAEACBFACA4
:104C20002D9780269126A226B326782D492D5A2D20
:104C30006B2D69964CAF5DAF6EAF7FAF699748271C
:104C400059276A277B2769968CAC9DACAEACBFAC6C
:104C5000699788219921AA21BB21880F991FAA1F32
:104C6000BB1F482759276A277B278DA89EA8AFA876
:104C7000B8AC84269526A626B726D501C401072EF2
:104C80007BE0B695A795979587957A95D1F7702D86
:104C90002D968CAF9DAFAEAFBFAF2D97D501C401A0
:104CA000072E75E1880F991FAA1FBB1F7A95D1F7B0
:104CB000702D2D968CAC9DACAEACBFAC2D978829D9
:104CC0009929AA29BB294C015D0180269126A2269B
:104CD000B326082319232A233B23000F111F221F69
:104CE000331F80269126A226B32621968CAE9DAE38
:104CF000AEAEBFAE219769968CAC9DACAEACBFACEE
:104D0000699721960CAD1DAD2EAD3FAD2197802644
:104D10009126A226B32694018501A1960CAF1DAF62
:104D20002EAF3FAFA1970427152726273727A19637
:104D30008CAC9DACAEACBFACA197482159216A2187
:104D40007B21440F551F661F771F04271527262731
:104D500037272D960CAF1DAF2EAF3FAF2D970827ED
:104D600019272A273B27000F111F221F331F011D60
:104D70000DAB1EAB2FAB38AF49A95AA96BA97CA9C3
:104D800009A51AA52BA53CA5402751276227732703
:104D900089A99AA9ABA9BCA980239123A223B323F3
:104DA000880F991FAA1FBB1F482759276A277B27EF
:104DB00065968CAC9DACAEACBFAC65978426952651
:104DC000A626B7261A2DAB2CB82C892C912ED501EE
:104DD000C4018C259D25AE25BF25C820D920EA20F9
:104DE000FB20CC0CDD1CEE1CFF1C8C259D25AE256C
:104DF000BF2509A91AA92BA93CA9082719272A27E1
:104E00003B27680179010B2EBBE0F694E794D79419
:104E1000C794BA95D1F7B02D0F2EF5E1000F111FF1
:104E2000221F331FFA95D1F7F02D0C291D292E29A9
:104E30003F2968017901C426D526E626F7264023B6
:104E4000512362237323440F551F661F771FC42607
:104E5000D526E626F726C9A6DAA6EBA6FCA68C245C
:104E60009D24AE24BF24B401A50165964CAF5DAF6F
:104E70006EAF7FAF6597482759276A277B276596CE
:104E80008CAC9DACAEACBFAC659788219921AA21B2
:104E9000BB21880F991FAA1FBB1F482759276A27C4
:104EA0007B2769964CAF5DAF6EAF7FAF69974027A8
:104EB000512762277327440F551F661F771F411D17
:104EC00049AB5AAB6BAB7CAB09AD1AAD2BAD3CAD6E
:104ED000ADA4BEA4CFA4D8A80A251B252C253D250A
:104EE00089AD9AADABADBCAD8A219B21AC21BD2172
:104EF000880F991FAA1FBB1F082719272A273B279E
:104F00006196CCACDDACEEACFFAC6197C026D1268F
:104F1000E226F326BE2CEF2CFC2CCD2CDB2C259688
:104F20008CAD9DADAEADBFAD25978C259D25AE2535
:104F3000BF2525964CAD5DAD6EAD7FAD25974C215F
:104F40005D216E217F21440F551F661F771F842727
:104F50009527A627B72749AD5AAD6BAD7CAD48273D
:104F600059276A277B274A015B01072E7BE0B6940D
:104F7000A794979487947A95D1F7702D032E35E1F5
:104F8000440F551F661F771F3A95D1F7302D4829DA
:104F900059296A297B294A015B0180269126A2268C
:104FA000B3260423152326233723000F111F221FA6
:104FB000331F80269126A226B3268DA69EA6AFA6D5
:104FC000B8AAC824D924EA24FB2496018701619653
:104FD0000CAF1DAF2EAF3FAF619768017901C826B6
:104FE000D926EA26FB2680239123A223B323880F08
:104FF000991FAA1FBB1FC826D926EA26FB264601F1
:10500000570184269526A626B726880C991CAA1C2B
:10501000BB1C811C89AE9AAEABAEBCAE6D960CAD1E
:105020001DAD2EAD3FAD6D970425152526253725E1
:105030006D968CAD9DADAEADBFAD6D9784219521C4
:10504000A621B721880F991FAA1FBB1F0827192760
:105050002A273B27A5964CAD5DAD6EAD7FADA597DC
:105060004027512762277327962E672F742F452FCD
:10507000592D29968CAC9DACAEACBFAC299784263B
:105080009526A626B72629968CAD9DADAEADBFADB3
:10509000299784239523A623B723880F991FAA1F36
:1050A000BB1F88269926AA26BB266D968CAD9DAD82
:1050B000AEADBFAD6D9788259925AA25BB252C01DE
:1050C0003D01032E3BE076946794579447943A95BC
:1050D000D1F7302D072E75E1880F991FAA1FBB1F2E
:1050E0007A95D1F7702D84299529A629B7292C0105
:1050F0003D014026512662267326082319232A23C0
:105100003B23000F111F221F331F4026512662260A
:10511000732644255525662577258A01AB01B801FC
:105120008A019B01082519252A253B2584229522E1
:10513000A622B722880C991CAA1CBB1C082519257D
:105140002A253B254801590188269926AA26BB26EF
:10515000880C991CAA1CBB1C811C25968CAE9DAE8C
:10516000AEAEBFAE25973197309719F1D501C40186
:10517000A9964CAE5DAE6EAE7FAEA997A5964CAF2C
:105180005DAF6EAF7FAFA59729960CAF1DAF2EAF69
:105190003FAF29979701860165968CAC9DACAEAC6C
:1051A000BFAC659721964CAD5DAD6EAD7FAD2197DF
:1051B00068CA2996CCAEDDAEEEAEFFAE2997A596B5
:1051C0000CAF1DAF2EAF3FAFA5972596CCACDDAC95
:1051D000EEACFFAC2597AF96EEADFFADAF97A196C5
:1051E0000CAD1DAD2EAD3FADA19704AF15AF26AFF1
:1051F00037AF21968CAD9DADAEADBFAD219780830D
:105200009183A283B3832D968CAC9DACAEACBFAC26
:105210002D9780A691A6A2A6B3A60DA91EA92FA977
:1052200038AD048B158B268B378B89A59AA5ABA53A
:10523000BCA584839583A683B78365968CAC9DAC0F
:10524000AEACBFAC659780AA91AAA2AAB3AA699690
:105250000CAD1DAD2EAD3FAD699704A715A726A7D0
:1052600037A789A99AA9ABA9BCA9808F918FA28FD2
:10527000B38F8DA49EA4AFA4B8A880869186A28681
:10528000B38661960CAD1DAD2EAD3FAD619704ABFD
:1052900015AB26AB37AB29968CAD9DADAEADBFAD92
:1052A000299780A391A3A2A3B3A389AC9AACABAC7A
:1052B000BCAC848E958EA68EB78E44865586668647
:1052C000778640AF51AF62AF73AFA5960CAD1DAD01
:1052D0002EAD3FADA59704A315A326A337A3C08A7F
:1052E000D18AE28AF38AAB96AEADBFADAB978D9112
:1052F0009D910D90BC91A02D21968CAC9DACAEAC37
:10530000BFAC219788269926AA26BB26E1968CAEAB
:105310009DAEAEAEBFAEE19780829182A282B38293
:10532000AB96AEADBFADAB9714960D911D912D917F
:105330003C91179789A49AA4ABA4BCA4802691267B
:10534000A226B32621968CAE9DAEAEAEBFAE2197FF
:1053500084829582A682B78218960D911D912D9117
:105360003C911B978DA49EA4AFA4B8A8802691263B
:10537000A226B32689A69AA6ABA6BCA6808691864D
:10538000A286B3861C960D911D912D913C911F977D
:105390000425152526253725A9960CAF1DAF2EAF60
:1053A0003FAFA997048715872687378750962D909A
:1053B0003D904D905C9053972C243D244E245F24C7
:1053C00025962CAE3DAE4EAE5FAE2597208A318A33
:1053D000428A538A54962D903D904D905C905797F9
:1053E0006DA87EA88FA898AC622473248424952489
:1053F0006D966CAE7DAE8EAE9FAE6D97648A758AEB
:10540000868A978A58968D909D90AD90BC905B97B8
:10541000C9A8DAA8EBA8FCA88C249D24AE24BF243C
:10542000808E918EA28EB38E5C96CD90DD90ED90A5
:10543000FC905F9709AD1AAD2BAD3CADC026D126CF
:10544000E226F326C48ED58EE68EF78E90960D91C9
:105450001D912D913C91939729968CAD9DADAEAD4C
:10546000BFAD2997082719272A273B2700A311A397
:1054700022A333A3AB96AEADBFADAB9794962D9060
:105480003D904D905C909797A5968CAD9DADAEAD3F
:10549000BFADA597282639264A265B2629962CAE2D
:1054A0003DAE4EAE5FAE299724A235A246A257A2CA
:1054B000E396AEADBFADE3979897E396BFAFAEAFBF
:1054C000E397AB968EAD9FADAB978896AB969FAFAB
:1054D0008EAFAB979897E8F1C9AEDAAEEBAEFCAE03
:1054E000A5964CAF5DAF6EAF7FAFA59789AA9AAA7C
:1054F000ABAABCAA29A43AA44BA45CA42DA63EA6A0
:105500004FA658AA6D964CAC5DAC6EAC7FAC6D9757
:105510004DAA5EAA6FAA78AE21966CAC7DAC8EAC1B
:105520009FAC219769A67AA68BA69CA6E1968CAC27
:105530009DACAEACBFACE197A1964CAC5DAC6EAC93
:105540007FACA19725968CAD9DADAEADBFAD259737
:105550007EC8DB01CA01A9964CAC5DAC6EAC7FACD9
:10556000A997CDA6DEA6EFA6F8AAE9964CAE5DAE49
:105570006EAE7FAEE997A5968CAF9DAFAEAFBFAFD5
:10558000A5978DAA9EAAAFAAB8AE09AB1AAB2BAB52
:105590003CAB65964CAC5DAC6EAC7FAC659725962C
:1055A0008CAC9DACAEACBFAC2597E196CCACDDAC81
:1055B000EEACFFACE1978E010F5F1F4F88E2D80180
:1055C0001D928A95E9F7E3964EAD5FADE397AB96F2
:1055D0006EAD7FADAB97C8010E945B93E396EEADD5
:1055E000FFADE397E00FF11F81E0808388A580681D
:1055F00088A7A1962CAD3DAD4EAD5FADA19764E0FF
:105600002627A1962CAF3DAF4EAF5FAFA197E4E048
:10561000F0E0D701C6017501640109A91AA92BA9F7
:105620003CA96D968CAC9DACAEACBFAC6D97B70190
:10563000A601482759276A277B278C219D21AE2167
:10564000BF21880F991FAA1FBB1F482759276A2708
:105650007B27D301C20184279527A627B727782E59
:10566000492E5A2E6B2ED301C20180279127A227E3
:10567000B3270421152126213721000F111F221FD6
:10568000331F80279127A227B327C826D926EA26C9
:10569000FB26970186010F2EFBE03695279517957F
:1056A0000795FA95D1F7F02D0B2EB5E1CC0CDD1C4A
:1056B000EE1CFF1CBA95D1F7B02DC02AD12AE22AE0
:1056C000F32A9701860104271527262737274C211F
:1056D0005D216E217F21440F551F661F771F042710
:1056E00015272627372709AB1AAB2BAB3CABB901E3
:1056F000A80144255525662577252A011B016596B5
:105700002CAE3DAE4EAE5FAE6597282639264A26B2
:105710005B2665960CAD1DAD2EAD3FAD6597802324
:105720009123A223B323880F991FAA1FBB1F2826EA
:1057300039264A265B2629AE3AAE4BAE5CAE2C2407
:105740003D244E245F24220C331C441C551C211C78
:1057500025962CAE3DAE4EAE5FAE259721960CAD94
:105760001DAD2EAD3FAD2197082519252A253B25D6
:1057700021968CAD9DADAEADBFAD2197882199210D
:10578000AA21BB21880F991FAA1FBB1F0827192711
:105790002A273B276196CCACDDACEEACFFAC619721
:1057A000C026D126E226F3264E2DEF2CFC2CCD2C44
:1057B000D42E29964CAD5DAD6EAD7FAD29974C25AD
:1057C0005D256E257F2529968CAD9DADAEADBFAD17
:1057D00029978C219D21AE21BF21880F991FAA1FD7
:1057E000BB1F482759276A277B2784269526A6268C
:1057F000B726D501C401072E7BE0B695A7959795EE
:1058000087957A95D1F7702D072E75E1880C991C34
:10581000AA1CBB1C7A95D1F7702D882A992AAA2A2E
:10582000BB2AD501C40180279127A227B3270821CD
:1058300019212A213B21000F111F221F331F80270E
:105840009127A227B32761968CAF9DAFAEAFBFAFB4
:105850006197C826D926EA26FB2626011701A996B4
:105860002CAE3DAE4EAE5FAEA99724263526462619
:105870005726A996CCACDDACEEACFFACA9974C2179
:105880005D216E217F21440F551F661F771F24263F
:105890003526462657266D962CAE3DAE4EAE5FAEF3
:1058A0006D97282439244A245B24220C331C441C81
:1058B000551C211C21962CAE3DAE4EAE5FAE2197FD
:1058C0008DA99EA9AFA9B8ADE9A4FAA40BA51CA502
:1058D0008E259F25A027B1274DA95EA96FA978AD78
:1058E0004E215F2160237123440F551F661F771FD0
:1058F00084279527A627B727A5964CAC5DAC6EAC40
:105900007FACA597482659266A267B26F62C672C5D
:10591000742C452C5F2C2D960CAD1DAD2EAD3FADDE
:105920002D9704251525262537252D964CAD5DADE3
:105930006EAD7FAD2D974421552166217721440F0F
:10594000551F661F771F04271527262737274DA9C0
:105950005EA96FA978AD40275127622773276A0196
:105960007B010B2EBBE0F694E794D794C794BA95CD
:10597000D1F7B02D032E35E1440F551F661F771F59
:105980003A95D1F7302D4C295D296E297F294A019E
:105990005B0188269926AA26BB2684239523A62365
:1059A000B723880F991FAA1FBB1F88269926AA26EE
:1059B000BB2689A69AA6ABA6BCA6482459246A246D
:1059C0007B2462015301A596ACAEBDAECEAEDFAE78
:1059D000A597D601C50180279127A227B3270A21C1
:1059E0001B212C213D21000F111F221F331F802757
:1059F0009127A227B3272C013D0144265526662670
:105A00007726440C551C661C771C411CCDA4DEA4D3
:105A1000EFA4F8A8E9962CAD3DAD4EAD5FADE9978A
:105A2000C226D326E426F5264DA55EA56FA578A946
:105A3000E9968CAC9DACAEACBFACE997482159213E
:105A40006A217B21440F551F661F771FC426D52668
:105A5000E626F726A1968CAC9DACAEACBFACA19768
:105A60008C249D24AE24BF24382D092D1A2D2B2DD6
:105A70000DAB1EAB2FAB38AF69960CAD1DAD2EAD87
:105A80003FAD69978DA89EA8AFA8B8AC0825192589
:105A90002A253B2569964CAD5DAD6EAD7FAD69970E
:105AA000482159216A217B21440F551F661F771F0A
:105AB00004271527262737278DA49EA4AFA4B8A8AE
:105AC00080269126A226B326B501A401032E3BE031
:105AD00076956795579547953A95D1F7302D2D9640
