:100000000C9474000C9495000C9495000C9495003D
:100010000C9495000C9495000C9495000C9495000C
:100020000C9495000C9495000C9495000C949500FC
:100030000C9495000C9495000C9495000C949500EC
:100040000C9495000C9495000C9495000C949500DC
:100050000C949B000C9495000C9495000C949500C6
:100060000C9495000C9495000C9495000C949500BC
:100070000C9495000C9495000C9495000C949500AC
:100080000C9495000C9495000C9495000C9495009C
:100090000C9495000C9495000C9495000C9495008C
:1000A0000C9495000C9495000C9495000C9495007C
:1000B0000C9495000C9495000C9495000C9495006C
:1000C0000C9495000C9495000C9495000C9495005C
:1000D0000C9495000C9495000C9495000C9495004C
:1000E0000C9495000C94F51B11241FBECFEFD1E2A8
:1000F000DEBFCDBF00E00CBF12E0A0E0B2E0ECE953
:10010000FDE300E00BBF02C007900D92A03AB107DB
:10011000D9F712E0A0EAB2E001C01D92AC3FB107EE
:10012000E1F70E94A71A0C94CC1E0C94000084E006
:100130000E945301FFCF1F920F920FB60F9211240E
:100140002F933F934F935F936F937F938F939F93DF
:100150002091A1023091A2024091A3025091A402E9
:100160006091A5027091A6028091A7029091A802C9
:100170005F5F6F4F7F4F8F4F9F4F2093A102309350
:10018000A2024093A3025093A4026093A50270932D
:10019000A6028093A7029093A8029F918F917F91CE
:1001A0006F915F914F913F912F910F900FBE0F90E4
:1001B0001F9018957F928F929F92AF92BF92CF928D
:1001C000DF92EF92FF920F931F93CF93DF93809173
:1001D000A002811123C01092A1021092A2021092DB
:1001E000A3021092A4021092A5021092A6021092ED
:1001F000A7021092A80281E085BD84E0809381006F
:1002000080916F00816080936F0016BC1092850012
:1002100010928400789481E08093A0028090840002
:100220009090850086B5E091A102E82BD091A202C2
:10023000C091A302B091A402A091A502F091A602E0
:100240007090A7021091A802940140E050E060E095
:1002500070E080E090E008E00E94BB1BE22BD32B13
:10026000C42BB52BA62BF72B2E2F3D2F4C2F5B2FFE
:100270006A2F7F2F8729912BDF91CF911F910F91AB
:10028000FF90EF90DF90CF90BF90AF909F908F90B6
:100290007F9008951092C50089E18093C40088E1A1
:1002A0008093C10008959091A90291110BC0109202
:1002B000C50099E19093C40098E19093C10091E04A
:1002C0009093A9029091C00095FFFCCF8093C60047
:1002D0000895FC0120812223C9F0319649E138E1DB
:1002E00091E08091A902811108C01092C50040934D
:1002F000C4003093C1009093A9028091C00085FF93
:10030000FCCF2093C60021912111EBCF08955F927D
:100310006F927F928F929F92AF92BF92CF92DF9215
:10032000EF92FF920F931F93CF93DF93CDB7DEB77A
:100330002F970FB6F894DEBF0FBECDBF4C01809152
:10034000A90281110BC01092C50089E18093C400FD
:1003500088E18093C10081E08093A9028091C00070
:1003600085FFFCCF88E28093C600E62EF12C870142
:1003700001501109101611060CF088C0E80CF91C88
:10038000CE0101966C018EE7A82E82E0B82E99E18D
:10039000592E28E1622E7724739491E0E91AF1082E
:1003A0001F930F93F70180811F928F93BF92AF929B
:1003B000DF92CF920E94FC1B99810FB6F894DEBFAA
:1003C0000FBECDBF9923B9F0FE0132968091A902EC
:1003D000811108C01092C5005092C4006092C10003
:1003E0007092A9028091C00085FFFCCF9093C60057
:1003F00091919111EBCF015011090115110569F689
:100400001F930F93F40180811F928F938BE892E0EA
:100410009F938F93DF92CF920E94FC1B99810FB61E
:10042000F894DEBF0FBECDBF9923D1F0FE01329606
:1004300049E138E121E08091A902811108C01092C0
:10044000C5004093C4003093C1002093A90280915D
:10045000C00085FFFCCF9093C60091919111EBCF26
:100460002F960FB6F894DEBF0FBECDBFDF91CF91B0
:100470001F910F91FF90EF90DF90CF90BF90AF90C2
:100480009F908F907F906F905F9008959E012F5F57
:100490003F4F6901B5CF2F923F924F925F926F927B
:1004A0007F928F929F92AF92BF92CF92DF92EF9204
:1004B000FF920F931F93CF93DF93CDB7DEB76C9767
:1004C0000FB6F894DEBF0FBECDBF922E832E742ED2
:1004D000652E562E472E382E292E188EA0E00E940B
:1004E000E01B09F478C0CE0148969C8F8B8FE6E123
:1004F000F0E0FA8FE98F3AE0A32EB12CC12CD12C79
:10050000E12CF12C00E010E0292D382D472D562D3F
:10051000652D742D832D922D0E945C1B205DEB8D2B
:10052000FC8D2293FC8FEB8F898D9A8D01979A8F8A
:10053000898F292D382D472D562D652D742D832D0E
:10054000922D0E945E1B922E832E742E652E562EA7
:10055000472E382E292EA0E00E94E01B61F6898DDF
:100560009A8D0196FE013196E80FF91F908199232B
:10057000C9F0319649E138E121E08091A902811169
:1005800008C01092C5004093C4003093C10020936E
:10059000A9028091C00085FFFCCF9093C600919185
:1005A0009111EBCF6C960FB6F894DEBF0FBECDBFA6
:1005B000DF91CF911F910F91FF90EF90DF90CF903F
:1005C000BF90AF909F908F907F906F905F904F9073
:1005D0003F902F90089587E190E0C4CF5F926F9293
:1005E0007F928F929F92AF92BF92CF92DF92EF92C3
:1005F000FF920F931F93CF93DF93CDB7DEB7C05415
:10060000D1090FB6F894DEBF0FBECDBF4C01E9E9AA
:10061000F2E090E349E138E121E08091A902811103
:1006200008C01092C5004093C4003093C1002093CD
:10063000A9028091C00085FFFCCF9093C6009191E4
:100640009111EBCFE62EF12C870101501109101604
:1006500011060CF087C0E80CF91CCE0101966C0164
:100660004BE9A42E42E0B42E59E1552E68E1662EE6
:100670007724739491E0E91AF108F70180811F92C1
:100680008F93BF92AF92DF92CF920E94FC1B998111
:100690000F900F900F900F900F900F909923B9F03B
:1006A000FE0132968091A902811108C01092C50006
:1006B0005092C4006092C1007092A9028091C00063
:1006C00085FFFCCF9093C60091919111EBCF015023
:1006D00011090115110571F6F40180811F928F93A4
:1006E0008BE992E09F938F93DF92CF920E94FC1B45
:1006F00099810F900F900F900F900F900F9099236A
:10070000D1F0FE01329649E138E121E08091A90261
:10071000811108C01092C5004093C4003093C100FD
:100720002093A9028091C00085FFFCCF9093C60062
:1007300091919111EBCFC05CDF4F0FB6F894DEBF03
:100740000FBECDBFDF91CF911F910F91FF90EF9022
:10075000DF90CF90BF90AF909F908F907F906F90E1
:100760005F900895CE0101966C01B6CF2F923F9213
:100770004F925F926F927F928F929F92AF92BF92B1
:10078000CF92DF92EF92FF920F931F93CF93DF935D
:10079000CDB7DEB7C455D1090FB6F894DEBF0FBE92
:1007A000CDBF25969FAF8EAF259722960FAF22978C
:1007B00023961FAF23971901FA01D62EB72F980160
:1007C000A101BF018D2D9B2FA0E00E94E01B09F429
:1007D0003FC50091AA021091AB027801E9A7629689
:1007E000FFAF62976396DFAE63976596BFAF65977D
:1007F00042C001E0E01AF108D701AA0FBB1FAA0FFF
:10080000BB1FA455BD4F0C9165969FAD6597F092A7
:10081000AB02E092AA022596EEADFFAD25970193BB
:100820002596FFAFEEAF259722962FAD2297239600
:100830003FAD2397A10169A562967FAD629763964C
:100840008FAD6397AFEF0E94D41B22962FAF2297F4
:1008500023963FAF23971A0169A762967FAF6297ED
:1008600063968FAF639765969FAF6597A0E00E94F0
:10087000E01B09F4EDC4E114F10409F0BACFC09013
:10088000CC02D090CD02E090CE02F090CF021FEFCC
:10089000C11AD10AE10AF10AC092CC02D092CD026B
:1008A000E092CE02F092CF020091D0021091D102DC
:1008B0002091D2023091D302C114D104E104F10499
:1008C00009F0B5C40F5F1F4F2F4F3F4F0093D00269
:1008D0001093D1022093D2023093D3020115110557
:1008E0002105310509F0A3C44091D4025091D502ED
:1008F0006091D6027091D7024F5F5F4F6F4F7F4F6D
:100900004093D4025093D5026093D6027093D702DD
:10091000411551056105710509F4B4C48090D802F0
:100920009090D902A090DA02B090DB022A013B013C
:1009300000E010E09801B701A60189E04827498F3F
:100940005A8F6B8F7C8FB901A80187E048274D8FA4
:100950005E8F6F8F78A39301820149E0042709A37A
:100960001AA32BA33CA3C501B401A3E06A276DA37E
:100970007EA38FA398A78090DC029090DD02A090C8
:10098000DE02B090DF0202E0802689829A82AB828A
:10099000BC822091E0023091E1024091E20250914C
:1009A000E30263E026272D833E834F83588780919F
:1009B000E4029091E502A091E602B091E702E8E03E
:1009C0008E2789879A87AB87BC878090E8029090B2
:1009D000E902A090EA02B090EB0204E080268D8646
:1009E0009E86AF86B88A2091EC023091ED0240914C
:1009F000EE025091EF0266E02627298B3A8B4B8B53
:100A00005C8B8091F0029091F102A091F202B09182
:100A1000F302E2E08E278D8B9E8BAF8BB88F809098
:100A2000F4029090F502A090F602B090F702F6E082
:100A30008F26C090F802D090F902E090FA02F09070
:100A4000FB0204E0C02625E030E040E050E0619683
:100A50002CAF3DAF4EAF5FAF619749E050E060E033
:100A600070E021964CAF5DAF6EAF7FAF219767E02E
:100A700070E080E090E02D966CAF7DAF8EAF9FAFC1
:100A80002D9782E090E0A0E0B0E029968CAF9DAF7A
:100A9000AEAFBFAF299703E010E020E030E009AF30
:100AA0001AAF2BAF3CAF28E030E040E050E02DAB78
:100AB0003EAB4FAB58AF43E050E060E070E049AB75
:100AC0005AAB6BAB7CAB63E070E080E090E06DA76D
:100AD0007EA78FA798AB40E050E0BA01B9A5649615
:100AE000BFAF64976596FFAD65978A019B0100577C
:100AF000144628483C4109A71AA72BA73CA74754EE
:100B00005648684C7146D701C601E3E08E27840F32
:100B1000951FA61FB71F260137012BE17694679416
:100B2000579447942A95D1F797018601000F111F1A
:100B3000221F331F000F111F221F331F000F111F11
:100B4000221F331F000F111F221F331F000F111F01
:100B5000221F331F402A512A622A732A8425952591
:100B6000A625B725098D1A8D2B8D3C8D080F191FD1
:100B70002A1F3B1F098F1A8F2B8F3C8F81E008277C
:100B8000040F151F261F371F498C5A8C6B8C7C8CC9
:100B9000A9E17694679457944794AA95D1F7898DE3
:100BA0009A8DAB8DBC8D880F991FAA1FBB1F880F14
:100BB000991FAA1FBB1F880F991FAA1FBB1F880F51
:100BC000991FAA1FBB1F880F991FAA1FBB1F880F41
:100BD000991FAA1FBB1F880F991FAA1FBB1F482A56
:100BE000592A6A2A7B2A04251525262537258D8D25
:100BF0009E8DAF8DB8A1800F911FA21FB31F8D8F47
:100C00009E8FAF8FB8A3E4E08E27840F951FA61F99
:100C1000B71F0D8D1E8D2F8D38A1E7E136952795D5
:100C200017950795EA95D1F74D8C5E8C6F8C78A05F
:100C3000E9E0440C551C661C771CEA95D1F70429A1
:100C400015292629372980279127A227B32709A10B
:100C50001AA12BA13CA1080F191F2A1F3B1F09A392
:100C60001AA32BA33CA3D901C80111E08127840F4B
:100C7000951FA61FB71F09A11AA12BA13CA1E3E153
:100C80003695279517950795EA95D1F749A05AA06B
:100C90006BA07CA0EDE0440C551C661C771CEA950B
:100CA000D1F7042915292629372980279127A2273A
:100CB000B3270DA11EA12FA138A5080F191F2A1FA8
:100CC0003B1F0DA31EA32FA338A7D901C80115E010
:100CD0008127840F951FA61FB71F4DA05EA06FA090
:100CE00078A41BE176946794579447941A95D1F7AA
:100CF0000DA11EA12FA138A5000F111F221F331F08
:100D0000000F111F221F331F000F111F221F331F3F
:100D1000000F111F221F331F000F111F221F331F2F
:100D2000402A512A622A732A84259525A625B725AB
:100D300009811A812B813C81080F191F2A1F3B1F33
:100D400009831A832B833C8389E00827040F151F2E
:100D5000261F371F49805A806B807C80A9E17694DA
:100D6000679457944794AA95D1F789819A81AB816A
:100D7000BC81880F991FAA1FBB1F880F991FAA1F2C
:100D8000BB1F880F991FAA1FBB1F880F991FAA1F7F
:100D9000BB1F880F991FAA1FBB1F880F991FAA1F6F
:100DA000BB1F880F991FAA1FBB1F482A592A6A2AEE
:100DB0007B2A04251525262537258D819E81AF8127
:100DC000B885800F911FA21FB31F8D839E83AF83B1
:100DD000B887E2E08E27840F951FA61FB71F0D81ED
:100DE0001E812F813885E7E1369527951795079560
:100DF000EA95D1F74D805E806F807884E9E0440CFD
:100E0000551C661C771CEA95D1F70429152926295B
:100E1000372980279127A227B32709851A852B8593
:100E20003C85080F191F2A1F3B1F09871A872B872C
:100E30003C87D901C80116E08127840F951FA61FA2
:100E4000B71F09851A852B853C85E3E136952795E3
:100E500017950795EA95D1F749845A846B847C8469
:100E6000EDE0440C551C661C771CEA95D1F704296B
:100E700015292629372980279127A227B3270D85F1
:100E80001E852F853889080F191F2A1F3B1F0D87C4
:100E90001E872F87388BD901C80115E08127840F61
:100EA000951FA61FB71F4D845E846F8478881BE151
:100EB00076946794579447941A95D1F70D851E85BB
:100EC0002F853889000F111F221F331F000F111F9C
:100ED000221F331F000F111F221F331F000F111F6E
:100EE000221F331F000F111F221F331F402A512AB8
:100EF000622A732A84259525A625B72509891A898A
:100F00002B893C89080F191F2A1F3B1F098B1A8B3D
:100F10002B8B3C8B83E00827040F151F261F371FE0
:100F200049885A886B887C88A9E17694679457949D
:100F30004794AA95D1F789899A89AB89BC89880F8A
:100F4000991FAA1FBB1F880F991FAA1FBB1F880FBD
:100F5000991FAA1FBB1F880F991FAA1FBB1F880FAD
:100F6000991FAA1FBB1F880F991FAA1FBB1F880F9D
:100F7000991FAA1FBB1F482A592A6A2A7B2A0425BF
:100F80001525262537258D899E89AF89B88D800F37
:100F9000911FA21FB31F8D8B9E8BAF8BB88FE5E087
:100FA0008E27840F951FA61FB71F0D891E892F89B5
:100FB000388DE7E13695279517950795EA95D1F78E
:100FC0004D885E886F88788CE9E0440C551C661C5F
:100FD000771CEA95D1F70429152926293729802776
:100FE0009127A227B327880E991EAA1EBB1ED501E2
:100FF000C40108E08027840F951FA61FB71F950125
:101000008401E3E13695279517950795EA95D1F781
:1010100024013501EDE0440C551C661C771CEA9553
:10102000D1F7042915292629372980279127A227B6
:10103000B327C80ED91EEA1EFB1E89A59AA5ABA52B
:10104000BCA584179507A607B70709F058CD0981F5
:101050001A812B813C818DA59EA5AFA5B8A9082733
:1010600019272A273B270DA71EA72FA738AB0D81CD
:101070001E812F81388589A99AA9ABA9BCA9082707
:1010800019272A273B2709AB1AAB2BAB3CAB0985A9
:101090001A852B853C858DA99EA9AFA9B8AD0827D7
:1010A00019272A273B270DAB1EAB2FAB38AF0D8579
:1010B0001E852F85388989AD9AADABADBCAD0827AB
:1010C00019272A273B2709AF1AAF2BAF3CAF8989D5
:1010D0009A89AB89BC8929960CAD1DAD2EAD3FAD6B
:1010E000299780279127A227B3274D885E886F888C
:1010F000788C2D960CAD1DAD2EAD3FAD2D974026B5
:1011000051266226732621960CAD1DAD2EAD3FAD46
:101110002197082519252A253B2521960CAF1DAFBF
:101120002EAF3FAF219761960CAD1DAD2EAD3FADFB
:1011300061970C251D252E253F254032E7E35E07EC
:10114000EFEE6E07E6EC7E0799F061960CAF1DAFEF
:101150002EAF3FAF61972D964CAE5DAE6EAE7FAEBB
:101160002D9729968CAF9DAFAEAFBFAF2997BDCC61
:1011700064964FAD649749A78DA49EA4AFA4B8A868
:101180008092AC029092AD02A092AE02B092AF02F9
:1011900049A95AA96BA97CA94093B0025093B10206
:1011A0006093B2027093B3028DA89EA8AFA8B8ACAA
:1011B0008092B4029092B502A092B602B092B702A9
:1011C00049AD5AAD6BAD7CAD4093B8025093B902B6
:1011D0006093BA027093BB028093BC029093BD02ED
:1011E000A093BE02B093BF024092C0025092C102CF
:1011F0006092C2027092C30221966CAD7DAD8EAD3D
:101200009FAD21976093C4027093C5028093C6027C
:101210009093C7020093C8021093C9022093CA0298
:101220003093CB0287E0E82EF12C9F2FF0CA40903C
:10123000D4025090D5026090D6027090D702809070
:10124000D8029090D902A090DA02B090DB0273CB62
:10125000CC5ADF4F0FB6F894DEBF0FBECDBFDF9183
:10126000CF911F910F91FF90EF90DF90CF90BF90A3
:10127000AF909F908F907F906F905F904F903F9036
:101280002F9008958091D8029091D902A091DA020E
:10129000B091DB020196A11DB11D8093D8029093FD
:1012A000D902A093DA02B093DB024C015D01412C1C
:1012B000512C320100E010E098013DCB6F927F92FB
:1012C0008F929F92AF92BF92CF92DF92EF92FF9256
:1012D0000F931F93CF93DF931F921F92CDB7DEB76B
:1012E0003B018A013C2D2D2DA5017C896D89E8A14A
:1012F000F9A11A821982FF93EF938E8C9F8CA12CF7
:10130000B12CC12CD12CE32EF22E272F362FBE016B
:101310006F5F7F4F0E94121309811A81F3010083CE
:10132000118312821382148215821682178280E042
:1013300090E00F900F900F900F90DF91CF911F9141
:101340000F91FF90EF90DF90CF90BF90AF909F9064
:101350008F907F906F9008956F927F928F929F925F
:10136000AF92BF92CF92DF92EF92FF920F931F93B3
:10137000CF93DF931F921F92CDB7DEB73B01FA2DBB
:10138000EB2DA4017C896D89AE8DBF8D1A821982E7
:10139000BF93AF938C8C9D8CA12CB12CC12CD12CE4
:1013A000EF2EFE2E8901272F362FBE016F5F7F4F54
:1013B0000E94521409811A81F30100831183128261
:1013C000138214821582168217820F900F900F904D
:1013D0000F90DF91CF911F910F91FF90EF90DF90D1
:1013E000CF90BF90AF909F908F907F906F90089517
:1013F000AF92BF92CF92DF92EF92FF920F931F9323
:10140000CF93DF93CDB7DEB7A8970FB6F894DEBFC2
:101410000FBECDBF7C016B015A014832510508F463
:10142000D0C0F70184AD95ADA6ADB7ADF4E08F2780
:10143000F70184AF95AFA6AFB7AF64E0C7010E94D4
:101440001616F70180819181A281B381F601408156
:1014500051816281738184279527A627B727F701D9
:1014600080839183A283B38384819581A681B78190
:10147000F601448155816681778184279527A627C7
:10148000B727F70184839583A683B78380859185E9
:10149000A285B385F60140855185628573858427D1
:1014A0009527A627B727F70180879187A287B3875B
:1014B00084859585A685B785F6014485558566851D
:1014C000778584279527A627B727F70184879587EF
:1014D000A687B78780899189A289B389F601408957
:1014E00051896289738984279527A627B727F70131
:1014F000808B918BA28BB38B84899589A689B789C0
:10150000F601448955896689778984279527A62716
:10151000B727F701848B958BA68BB78B808D918D28
:10152000A28DB38DF601408D518D628D738D842710
:101530009527A627B727F701808F918FA28FB38FAA
:10154000848D958DA68DB78DF601448D558D668D54
:10155000778D84279527A627B727F701848F958F46
:10156000A68FB78F80A191A1A2A1B3A1F60140A13E
:1015700051A162A173A184279527A627B727F70158
:1015800080A391A3A2A3B3A304A115A126A137A16F
:10159000F60184A195A1A6A1B7A1082719272A279A
:1015A0003B27F70104A315A326A337A3F8E2AF1A3C
:1015B000B10828E2C20ED11C88E2A816B10408F0D6
:1015C00030CF8E010F5F1F4F88E2F80111928A958C
:1015D000E9F7A501B601C8010E94EC1BF801EA0D6C
:1015E000FB1D81E0808388A5806888A7F70184AD12
:1015F00095ADA6ADB7ADF4E08F27F70184AF95AFF9
:10160000A6AFB7AF64E0C7010E941616F70180814C
:101610009181A281B38149815A816B817C81842728
:101620009527A627B72780839183A283B3838481DC
:101630009581A681B7814D815E816F8178858427F0
:101640009527A627B72784839583A683B7838085AC
:101650009185A285B38549855A856B857C858427CC
:101660009527A627B72780879187A287B387848588
:101670009585A685B7854D855E856F857889842794
:101680009527A627B72784879587A687B787808958
:101690009189A289B38949895A896B897C89842770
:1016A0009527A627B727808B918BA28BB38B848934
:1016B0009589A689B7894D895E896F89788D842738
:1016C0009527A627B727848B958BA68BB78B808D04
:1016D000918DA28DB38D498D5A8D6B8D7C8D842714
:1016E0009527A627B727808F918FA28FB38F848DE0
:1016F000958DA68DB78D4D8D5E8D6F8D78A18427CC
:101700009527A627B727848F958FA68FB78F80A19F
:1017100091A1A2A1B3A149A15AA16BA17CA1842747
:101720009527A627B72780A391A3A2A3B3A384A13B
:1017300095A1A6A1B7A14DA15EA16FA178A584270F
:101740009527A627B72784A395A3A6A3B7A3A896F2
:101750000FB6F894DEBF0FBECDBFDF91CF911F91C2
:101760000F91FF90EF90DF90CF90BF90AF900895D2
:10177000AF92BF92CF92DF92EF92FF920F931F939F
:10178000CF93DF93CDB7DEB7A8970FB6F894DEBF3F
:101790000FBECDBF7C016B015A014832510508F4E0
:1017A000D0C0F70184AD95ADA6ADB7ADF1E08F2700
:1017B000F70184AF95AFA6AFB7AF64E0C7010E9451
:1017C0001616F70180819181A281B381F6014081D3
:1017D00051816281738184279527A627B727F70156
:1017E00080839183A283B38384819581A681B7810D
:1017F000F601448155816681778184279527A62744
:10180000B727F70184839583A683B7838085918565
:10181000A285B385F601408551856285738584274D
:101820009527A627B727F70180879187A287B387D7
:1018300084859585A685B785F60144855585668599
:10184000778584279527A627B727F701848795876B
:10185000A687B78780899189A289B389F6014089D3
:1018600051896289738984279527A627B727F701AD
:10187000808B918BA28BB38B84899589A689B7893C
:10188000F601448955896689778984279527A62793
:10189000B727F701848B958BA68BB78B808D918DA5
:1018A000A28DB38DF601408D518D628D738D84278D
:1018B0009527A627B727F701808F918FA28FB38F27
:1018C000848D958DA68DB78DF601448D558D668DD1
:1018D000778D84279527A627B727F701848F958FC3
:1018E000A68FB78F80A191A1A2A1B3A1F60140A1BB
:1018F00051A162A173A184279527A627B727F701D5
:1019000080A391A3A2A3B3A304A115A126A137A1EB
:10191000F60184A195A1A6A1B7A1082719272A2716
:101920003B27F70104A315A326A337A3F8E2AF1AB8
:10193000B10828E2C20ED11C88E2A816B10408F052
:1019400030CF8E010F5F1F4F88E2F80111928A9508
:10195000E9F7A501B601C8010E94EC1BF801EA0DE8
:10196000FB1D81E0808388A5806888A7F70184AD8E
:1019700095ADA6ADB7ADF1E08F27F70184AF95AF78
:10198000A6AFB7AF64E0C7010E941616F7018081C9
:101990009181A281B38149815A816B817C818427A5
:1019A0009527A627B72780839183A283B383848159
:1019B0009581A681B7814D815E816F81788584276D
:1019C0009527A627B72784839583A683B783808529
:1019D0009185A285B38549855A856B857C85842749
:1019E0009527A627B72780879187A287B387848505
:1019F0009585A685B7854D855E856F857889842711
:101A00009527A627B72784879587A687B7878089D4
:101A10009189A289B38949895A896B897C898427EC
:101A20009527A627B727808B918BA28BB38B8489B0
:101A30009589A689B7894D895E896F89788D8427B4
:101A40009527A627B727848B958BA68BB78B808D80
:101A5000918DA28DB38D498D5A8D6B8D7C8D842790
:101A60009527A627B727808F918FA28FB38F848D5C
:101A7000958DA68DB78D4D8D5E8D6F8D78A1842748
:101A80009527A627B727848F958FA68FB78F80A11C
:101A900091A1A2A1B3A149A15AA16BA17CA18427C4
:101AA0009527A627B72780A391A3A2A3B3A384A1B8
:101AB00095A1A6A1B7A14DA15EA16FA178A584278C
:101AC0009527A627B72784A395A3A6A3B7A3A8966F
:101AD0000FB6F894DEBF0FBECDBFDF91CF911F913F
:101AE0000F91FF90EF90DF90CF90BF90AF9008954F
:101AF0000F931F93CF93DF93FC01DB0108E81AE6F5
:101B00002FE334E20083118322833383EA010881C7
:101B100019812A813B8104831583268337834C8175
:101B20005D816E817F81408751876287738743ED36
:101B300058E063EA75E844875587668777874D9153
:101B40005D916D917C911397408B518B628B738B60
:101B500014964D915D916D917C911797448B558BA7
:101B6000668B778B18964D915D916D917C911B974B
:101B7000408F518F628F738F1C964D915D916D9147
:101B80007C911F97448F558F668F778F4EE25AE86E
:101B900069E173E140A351A362A373A344E453E753
:101BA00060E773E044A355A366A377A34AE753E530
:101BB0006FE475E240A751A762A773A748E45DE10F
:101BC00063E578E344A755A766A777A743E85EE6F1
:101BD0006CE973E840AB51AB62AB73AB45EE5AE3D3
:101BE0006AE779EF44AB55AB66AB77AB49E55BEFA2
:101BF0006AEE71E144AF55AF66AF77AF4CE058E5A0
:101C000065E97CE940AF51AF62AF73AF64E0DF914B
:101C1000CF911F910F910C9416164115510511F09B
:101C20000C94B80B08958F929F92AF92BF92CF926F
:101C3000DF92EF92FF920F931F93CF93DF93CDB775
:101C4000DEB7A8970FB6F894DEBF0FBECDBF8C01EC
:101C50007B016A0159012115310509F4FBC128E214
:101C6000A216B10408F404C1F80184AD95ADA6AD87
:101C7000B7ADF2E08F27F80184AF95AFA6AFB7AF4D
:101C800064E0C8010E941616F60180819181A2814C
:101C9000B381F80140815181628173818427952746
:101CA000A627B72780839183A283B383F70180831C
:101CB0009183A283B383F60184819581A681B78144
:101CC000F801448155816681778184279527A6276D
:101CD000B72784839583A683B783F701848395838D
:101CE000A683B783F60180859185A285B385F80127
:101CF000408551856285738584279527A627B72758
:101D000080879187A287B387F70180879187A28711
:101D1000B387F60184859585A685B785F801448546
:101D200055856685778584279527A627B7278487D5
:101D30009587A687B787F70184879587A687B78792
:101D4000F60180899189A289B389F8014089518976
:101D50006289738984279527A627B727808B918B63
:101D6000A28BB38BF701808B918BA28BB38BF60187
:101D700084899589A689B789F80144895589668936
:101D8000778984279527A627B727848B958BA68BE1
:101D9000B78BF701848B958BA68BB78BF601808D63
:101DA000918DA28DB38DF801408D518D628D738D13
:101DB00084279527A627B727808F918FA28FB38F6F
:101DC000F701808F918FA28FB38FF601848D958D4F
:101DD000A68DB78DF801448D558D668D778D84273E
:101DE0009527A627B727848F958FA68FB78FF701E2
:101DF000848F958FA68FB78FF60180A191A1A2A1A4
:101E0000B3A1F80140A151A162A173A18427952734
:101E1000A627B72780A391A3A2A3B3A3F70180A30A
:101E200091A3A2A3B3A3F60184A195A1A6A1B7A1F2
:101E3000F80144A155A166A177A184279527A6277B
:101E4000B72784A395A3A6A3B7A3F70184A395A35B
:101E5000A6A3B7A3F8E2AF1AB10828E2C20ED11CBC
:101E600088E2E80EF11C98E2A916B10408F0FCCE55
:101E7000FE0131964F0188E211928A95E9F7A5019A
:101E8000B601C4010E94EC1BF401EA0DFB1D81E0C8
:101E9000808388A5806888A7F80184AD95ADA6AD3C
:101EA000B7ADF2E08F27F80184AF95AFA6AFB7AF1B
:101EB00064E0C8010E941616F80180819181A28118
:101EC000B38149815A816B817C8184279527A6271C
:101ED000B72780839183A283B38389839A83AB835B
:101EE000BC8384819581A681B7814D815E816F819C
:101EF000788584279527A627B72784839583A6838B
:101F0000B7838D839E83AF83B88780859185A285B3
:101F1000B38549855A856B857C8584279527A627B7
:101F2000B72780879187A287B38789879A87AB87EE
:101F3000BC8784859585A685B7854D855E856F852B
:101F4000788984279527A627B72784879587A6872A
:101F5000B7878D879E87AF87B88B80899189A28943
:101F6000B38949895A896B897C8984279527A62753
:101F7000B727808B918BA28BB38B898B9A8BAB8B82
:101F8000BC8B84899589A689B7894D895E896F89BB
:101F9000788D84279527A627B727848B958BA68BCA
:101FA000B78B8D8B9E8BAF8BB88F808D918DA28DD3
:101FB000B38D498D5A8D6B8D7C8D84279527A627EF
:101FC000B727808F918FA28FB38F898F9A8FAB8F16
:101FD000BC8F848D958DA68DB78D4D8D5E8D6F8D4B
:101FE00078A184279527A627B727848F958FA68F5A
:101FF000B78F8D8F9E8FAF8FB8A380A191A1A2A123
:10200000B3A149A15AA16BA17CA184279527A6273A
:10201000B72780A391A3A2A3B3A389A39AA3ABA339
:10202000BCA384A195A1A6A1B7A14DA15EA16FA15A
:1020300078A584279527A627B72784A395A3A6A3C9
:10204000B7A38DA39EA3AFA3B8A7A501B401C701F1
:102050000E94EC1BA8960FB6F894DEBF0FBECDBF52
:10206000DF91CF911F910F91FF90EF90DF90CF9074
:10207000BF90AF909F908F9008952F923F924F9274
:102080005F926F927F928F929F92AF92BF92CF9208
:10209000DF92EF92FF920F931F93CF93DF9300D0C5
:1020A0001F92CDB7DEB79C838B837B016A015901F8
:1020B0002115310509F02AC1D4C1EB81FC8184AD21
:1020C00095ADA6ADB7ADF2E08F27EB81FC8184AF73
:1020D00095AFA6AFB7AF64E0CF010E941616D60148
:1020E0004D915D916D917C91EB81FC81808191811D
:1020F000A281B38184279527A627B727F70180837C
:102100009183A283B383AB81BC814D935D936D9327
:102110007C931397F6014481558166817781FD0197
:1021200084819581A681B78184279527A627B72723
:10213000F70184839583A683B783AB81BC81149612
:102140004D935D936D937C931797F6014085518570
:1021500062857385FD0180859185A285B38584277D
:102160009527A627B727F70180879187A287B3878E
:10217000AB81BC8118964D935D936D937C931B97B7
:10218000F6014485558566857785FD0184859585AD
:10219000A685B78584279527A627B727F7018487C3
:1021A0009587A687B787AB81BC811C964D935D93BD
:1021B0006D937C931F97F6014089518962897389D9
:1021C000FD0180899189A289B38984279527A62753
:1021D000B727F701808B918BA28BB38BAB81BC812E
:1021E00050964D935D936D937C935397F60144897C
:1021F000558966897789FD0184899589A689B7897A
:1022000084279527A627B727F701848B958BA68B64
:10221000B78BAB81BC8154964D935D936D937C934A
:102220005797F601408D518D628D738DFD01808D24
:10223000918DA28DB38D84279527A627B727F70107
:10224000808F918FA28FB38FAB81BC8158964D93B5
:102250005D936D937C935B97F601448D558D668DF0
:10226000778DFD01848D958DA68DB78D842795275B
:10227000A627B727F701848F958FA68FB78FAB81DD
:10228000BC815C964D935D936D937C935F97F60153
:1022900040A151A162A173A1FD0180A191A1A2A1C0
:1022A000B3A184279527A627B727F70180A391A379
:1022B000A2A3B3A3AB81BC8190964D935D936D9324
:1022C0007C939397F60144A155A166A177A1FD01E6
:1022D00084A195A1A6A1B7A184279527A627B727F2
:1022E000F70184A395A3A6A3B7A3AB81BC81949661
:1022F0004D935D936D937C939797B8E2AB1AB108B9
:10230000E8E2CE0ED11CF8E2EF0EF11C28E2A21694
:10231000B10408F0D2CEEB81FC8184AD95ADA6ADC1
:10232000B7ADF2E08F27EB81FC8184AF95AFA6AF0C
:10233000B7AF64E0CF010E941616F501EC7F6B8108
:102340007C81E60FF71FD501A370BB27BA83A98351
:102350008D01000F111F000F111F000F111F21E031
:1023600030E040E050E060E070E080E090E00E940B
:10237000BB1B19012A014081518162817381422571
:102380005325642575254083518362837383EB81D4
:10239000FC8144A155A166A177A1705844A355A31F
:1023A00066A377A3B4E0AB16B10408F474C0A60129
:1023B000B701C501DA010D911D912D913D91AD013E
:1023C00040805180628073804026512662267326A9
:1023D000DB014D925D926D927D92BD01019311934F
:1023E0002193319304978430910520F7C501049718
:1023F0008C7F0496C80ED91EE80EF91EE981FA8179
:10240000AB81BC81A80FB91F6C9111969C9111975B
:1024100012968C91129713965C9113979C01EF2B57
:10242000B9F1F60140816427F7016083E981FA81FF
:10243000329770F0F60131819327F7019183E9819A
:10244000FA81339728F0F60122818227F7018283EF
:102450004C9311963C93119712962C9312971396C6
:102460005C930F900F900F900F90DF91CF911F9181
:102470000F91FF90EF90DF90CF90BF90AF909F9023
:102480008F907F906F905F904F903F902F90089526
:10249000462F9C01DDCFBA82A98280E090E0F50151
:1024A000AFCF4115510511F00C94F8090895EF9242
:1024B000FF920F931F93CF93DF93CDB7DEB7A8970B
:1024C0000FB6F894DEBF0FBECDBF8C017B01FC01BF
:1024D00044AD55AD66AD77ADF8E04F27FC0144AF94
:1024E00055AF66AF77AF64E00E94161664E0C8018E
:1024F0000E94161688E2F801DE01119601900D92F5
:102500008A95E1F780E1FE013196D70101900D92A5
:102510008A95E1F7E0910402F091050248E250E06B
:1025200060E070E0CE0101961995E0910402F0910F
:10253000050240E450E060E070E0C8011995A896FB
:102540000FB6F894DEBF0FBECDBFDF91CF911F91C4
:102550000F91FF90EF900895FC01DB0180819C9129
:102560008927518111969C91119759279281129632
:102570002C9112979227438113962C9113974227FF
:10258000348114962C911497322715962C91159717
:1025900065812627952B942B932B922B892B1696AE
:1025A0009C91169726819227892B17969C911797B5
:1025B00027819227892B18969C911897208592271E
:1025C000892B19969C91199721859227892B1A9608
:1025D0009C911A9722859227892B1B969C911B9779
:1025E00023859227892B1C969C911C9724859227E2
:1025F000892B1D969C911D9725859227892B1E96C8
:102600009C911E9726859227892B1F969C91278542
:102610009227892B90E0919581959109990F880BCC
:10262000982F08952F923F924F925F926F927F92D0
:102630008F929F92AF92BF92CF92DF92EF92FF92D2
:102640000F931F93CF93DF93CDB7DEB7CA56D1094F
:102650000FB6F894DEBF0FBECDBF3C012B01AB9689
:102660005FAF4EAFAB971901D401C058DF4FE8817F
:10267000F981C058D04048E85AE66FE374E24983D4
:102680005A836B837C834D915D916D917C911397FF
:102690004D835E836F83788714968D919D910D9005
:1026A000BC91A02D89879A87AB87BC8783ED98E082
:1026B000A3EAB5E88D879E87AF87B88B808191812B
:1026C000A281B381898B9A8BAB8BBC8B84819581E2
:1026D000A681B7818D8B9E8BAF8BB88F80859185BE
:1026E000A285B385898F9A8FAB8FBC8F84859585A2
:1026F000A685B7858D8F9E8FAF8FB8A38EE29AE89F
:10270000A9E1B3E189A39AA3ABA3BCA384E493E7B3
:10271000A0E7B3E08DA39EA3AFA3B8A78AE793E594
:10272000AFE4B5E289A79AA7ABA7BCA788E49DE16F
:10273000A3E5B8E38DA79EA7AFA7B8AB83E89EE655
:10274000ACE9B3E889AB9AABABABBCAB85EE9AE333
:10275000AAE7B9EF8DAB9EABAFABB8AF89E59BEF06
:10276000AAEEB1E121968CAF9DAFAEAFBFAF21977E
:102770008CE098E5A5E9BCE989AF9AAFABAFBCAFF7
:1027800064E0CE0101960E9416162114310409F06E
:102790007FC09701A801B301CE0101960E94130EDC
:1027A000A114B10431F0A501B601CE0101960E9439
:1027B000F8096E0C7F1C21968CAD9DADAEADBFAD02
:1027C000219728E0822721968CAF9DAFAEAFBFAF97
:1027D000219764E0CE0101960E94161664E0CE01B6
:1027E00001960E94161688E2FE013196DE01AF5B6B
:1027F000BF4F01900D928A95E1F780E1FE01EF5BFA
:10280000FF4FD30101900D928A95E1F7E091040208
:10281000F091050248E250E060E070E0CE018F5B8D
:102820009F4F1995E0910402F091050240E450E0B9
:1028300060E070E0CE010196199580E1E80EF11C90
:10284000F201F182E082E0910402F091050240E49D
:1028500050E060E070E0CE0101961995C659DF4F57
:102860000FB6F894DEBF0FBECDBFDF91CF911F91A1
:102870000F91FF90EF90DF90CF90BF90AF909F901F
:102880008F907F906F905F904F903F902F90089522
:10289000A101AB966EAD7FADAB97CE0101960E94C4
:1028A000B80B77CF2F923F924F925F926F927F92A9
:1028B0008F929F92AF92BF92CF92DF92EF92FF9250
:1028C0000F931F93CF93DF93CDB7DEB7CA57D109CC
:1028D0000FB6F894DEBF0FBECDBF3C012B011A012D
:1028E000C057DF4F48815981C059D04080E1E81678
:1028F000F10408F498C188E89AE6AFE3B4E289836A
:102900009A83AB83BC83F40180819181A281B381DE
:102910008D839E83AF83B88784819581A681B7819B
:1029200089879A87AB87BC8783ED98E0A3EAB5E8EF
:102930008D879E87AF87B88BFA0180819181A281B4
:10294000B381898B9A8BAB8BBC8B84819581A6815B
:10295000B7818D8B9E8BAF8BB88F80859185A2853B
:10296000B385898F9A8FAB8FBC8F84859585A6851B
:10297000B7858D8F9E8FAF8FB8A38EE29AE8A9E1BD
:10298000B3E189A39AA3ABA3BCA384E493E7A0E734
:10299000B3E08DA39EA3AFA3B8A78AE793E5AFE406
:1029A000B5E289A79AA7ABA7BCA788E49DE1A3E5F8
:1029B000B8E38DA79EA7AFA7B8AB83E89EE6ACE9C6
:1029C000B3E889AB9AABABABBCAB85EE9AE3AAE7B5
:1029D000B9EF8DAB9EABAFABB8AF89E59BEFAAEE7D
:1029E000B1E121968CAF9DAFAEAFBFAF21978CE028
:1029F00098E5A5E9BCE989AF9AAFABAFBCAF64E09D
:102A0000CE010196EA962FAFEA97EB963FAFEB9790
:102A10000E941616EA962FADEA97EB963FADEB971C
:102A20002115310509F0E7C0F0E1EF1AF10897012F
:102A3000A801B301CE0101960E943D10A114B1047A
:102A400009F0EAC021968CAD9DADAEADBFAD21972A
:102A500028E0822721968CAF9DAFAEAFBFAF219704
:102A600064E0CE0101960E94161664E0CE01019644
:102A70000E94161688E2FE013196DE01AF5BBF4F61
:102A800001900D928A95E1F780E1FE01EF5BFF4F27
:102A9000DE01A759BF4F01900D928A95E1F7E091B1
:102AA0000402F091050248E250E060E070E0CE01DF
:102AB0008F5B9F4F1995E0910402F091050240E46D
:102AC00050E060E070E0CE0101961995F201F182CC
:102AD000E082F801EE0DFF1D0081AA968FADAA9746
:102AE0000827B180AB968FADAB97B8268281AC96A4
:102AF0009FADAC978927C380AD969FADAD97C92692
:102B0000D480AE969FADAE97D9261581AF969FAD76
:102B1000AF971927B681E0969FADE097B927A781B7
:102B2000E1969FADE197A9277085E2969FADE29768
:102B300079276185E3969FADE39769275285E496EF
:102B40009FADE49759274385E5969FADE5974927C3
:102B50003485E6969FADE69739272585E7969FADA4
:102B6000E79729279685E896AFACE8979A25E996E6
:102B7000AFACE997E785AE268A298B298C298D2968
:102B8000812B8B2B8A2B872B862B852B842B832BBE
:102B9000822B892B082B10E0119501951109110F3B
:102BA000000B102F0115110569F5E0910402F09159
:102BB000050240E450E060E070E0CE010196199516
:102BC000C801C658DF4F0FB6F894DEBF0FBECDBFA9
:102BD000DF91CF911F910F91FF90EF90DF90CF90F9
:102BE000BF90AF909F908F907F906F905F904F902D
:102BF0003F902F900895A901B101CE0101960E9446
:102C0000B80B12CFE0910402F0910502A70160E039
:102C100070E0C3011995C9CFA501B601CE01019697
:102C20000E94F8090FCF0FEF1FEFCACF2F923F92EC
:102C30004F925F926F927F928F929F92AF92BF92CC
:102C4000CF92DF92EF92FF920F931F93CF93DF9378
:102C5000FC01D62E208031804280538064807580B4
:102C600086809780A084B184C2842089318942897A
:102C7000538960A171A182A193A1A0A9B1A9C2A900
:102C8000D3A9010122260222000C2024A2253326EA
:102C90001322111C3124B325020144260422001CF6
:102CA0004024C42555261522111C5124D5250B017D
:102CB0006B270B22000C602526277C271C22111C69
:102CC000712537270C018D270D22001C80254827F0
:102CD0009A271A22111C91255927022E06945795DE
:102CE000479537952795022E069457954795379522
:102CF0002795022E069457954795379527950101FC
:102D000023260322000C2024B22534261422111C71
:102D10003124C325020145260522001C4024D42568
:102D200052261222111C5124A5250B016D270D22BC
:102D3000000C602536277A271A22111C7125472797
:102D40000C018B270B22001C802558279C271C2256
:102D5000111C91252927022E001C331F441F551FCB
:102D6000221F308B418B528B238B60A371A382A3D4
:102D700093A3D0ABA1ABB2ABC3AB24893589468951
:102D8000578964A175A186A197A1A4A9B5A9C6A9CF
:102D9000D7A9030162260222000C6024A62573260F
:102DA0001322111C7124B725040184260422001C5F
:102DB0008024C82595261522111C9124D9250B01A4
:102DC0006B270B22000C602526277C271C22111C58
:102DD000712537270C018D270D22001C80254827DF
:102DE0009A271A22111C91255927022E06945795CD
:102DF000479537952795022E069457954795379511
:102E00002795022E069457954795379527950301E8
:102E100063260322000C6024B62574261422111C9C
:102E20007124C725040185260522001C8024D8258D
:102E300092261222111C9124A9250B016D270D2227
:102E4000000C602536277A271A22111C7125472786
:102E50000C018B270B22001C802558279C271C2245
:102E6000111C91252927022E001C331F441F551FBA
:102E7000221F348B458B568B278B64A375A386A3A7
:102E800097A3D4ABA5ABB6ABC7AB1385208D318D63
:102E9000428D538D60A571A582A593A5A0ADB1AD5E
:102EA000C2ADD3AD0501A2260222000CA024AA25A2
:102EB000B3261322111CB124BB250C2CC4260422DA
:102EC000001CC024CC25112E15271522111C1125FC
:102ED000D1270B016B270B22000C602526277C27AE
:102EE0001C22111C712537270C018D270D22001C77
:102EF000802548279A271A22111C91255927022E2E
:102F000006945795479537952795022E0694579521
:102F1000479537952795022E0694579547953795EF
:102F200027950501A3260322000CA024BA25B42668
:102F30001422111CB124CB250C2CC5260522001C03
:102F4000C024DC25112E12271222111C1125A127C5
:102F50000B016D270D22000C602536277A271A22D7
:102F6000111C712547270C018B270B22001C802583
:102F700058279C271C22111C91252927022E001C52
:102F8000331F441F551F221F1387308F418F528FCD
:102F9000238F60A771A782A793A7D0AFA1AFB2AFCD
:102FA000C3AFE484F58406851785248D358D468D61
:102FB000578D64A575A586A597A5A4ADB5ADC6AD7D
:102FC000D7AD0701E2260222000CE024AE25F3264D
:102FD0001322111CF124BF25080104270422001C20
:102FE0000025C02715271522111C1125D1270B01FB
:102FF0006B270B22000C602526277C271C22111C26
:10300000712537270C018D270D22001C80254827AC
:103010009A271A22111C91255927022E069457959A
:10302000479537952795022E0694579547953795DE
:103030002795022E069457954795379527950701B2
:10304000E3260322000CE024BE25F4261422111CE2
:10305000F124CF25080105270522001C0025D027D3
:1030600012271222111C1125A1270B016D270D22F9
:10307000000C602536277A271A22111C7125472754
:103080000C018B270B22001C802558279C271C2213
:10309000111C91252927022E001C331F441F551F88
:1030A000221FE486F58606871787348F458F568F53
:1030B000278F64A775A786A797A72489358946898E
:1030C000578960A571A582A593A501012226022238
:1030D000000C2024D22533261322111C3124A325D1
:1030E000020144260422001C4024B4255526152242
:1030F000111C5124C5250B016A270A22000C6025EA
:1031000026277B271B22111C712537270C018C27B2
:103110000C22001C802548279D271D22111C91256B
:103120005927022E06945795479537952795022ED5
:1031300006945795479537952795022E06945795EF
:10314000479537952795010123260322000C20245B
:10315000A22534261422111C3124B3250201452650
:103160000522001C4024C42552261222111C512481
:10317000D5250B016C270C22000C602536277D27F6
:103180001D22111C712547270C018A270A22001CC9
:10319000802558279B271B22111C91252927022EA9
:1031A000001C331F441F551F221F348B458B568B29
:1031B000278B60A771A782A793A7C4AFD5AFA6AF8F
:1031C000B7AF208D318D428D538D64A575A586A531
:1031D00097A5A0A9B1A9C2A9D3A903016226022279
:1031E000000C6024A62573261322111C7124B72518
:1031F000040184260422001C8024C825952615225B
:10320000111C9124D9250B016B270B22000C602582
:1032100026277C271C22111C712537270C018D279E
:103220000D22001C802548279A271A22111C91255F
:103230005927022E06945795479537952795022EC4
:1032400006945795479537952795022E06945795DE
:10325000479537952795030163260322000C6024C8
:10326000B62574261422111C7124C7250401852655
:103270000522001C8024D82592261222111C91249C
:10328000A9250B016D270D22000C602536277A2712
:103290001A22111C712547270C018B270B22001CB9
:1032A000802558279C271C22111C91252927022E96
:1032B000001C331F441F551F221F308F418F528F18
:1032C000238F64A775A786A797A7D0ABA1ABB2AB96
:1032D000C3AB1385248D358D468D578D60A171A1AB
:1032E00082A193A1A4A9B5A9C6A9D7A90501A2261F
:1032F0000222000CA024AA25B3261322111CB124FB
:10330000BB250C2CC4260422001CC024CC25112E65
:1033100015271522111C1125D1270B016B270B2214
:10332000000C602526277C271C22111C71253727BD
:103330000C018D270D22001C802548279A271A2270
:10334000111C91255927022E0694579547953795BC
:103350002795022E06945795479537952795022E67
:10336000069457954795379527950501A32603227F
:10337000000CA024BA25B4261422111CB124CB259C
:103380000C2CC5260522001CC024DC25112E12277A
:103390001222111C1125A1270B016D270D22000CF3
:1033A000602536277A271A22111C712547270C0120
:1033B0008B270B22001C802558279C271C22111CC0
:1033C00091252927022E001C331F441F551F221F41
:1033D0001387348F458F568F278F60A371A382A3E5
:1033E00093A3D4ABA5ABB6ABC7ABE484F584068599
:1033F0001785208931894289538964A175A186A1E5
:1034000097A1A0ADB1ADC2ADD3AD0701E2260222B6
:10341000000CE024AE25F3261322111CF124BF2555
:10342000080104270422001C0025C02715271522A7
:10343000111C1125D1270B016B270B22000C6025D5
:1034400026277C271C22111C712537270C018D276C
:103450000D22001C802548279A271A22111C91252D
:103460005927022E06945795479537952795022E92
:1034700006945795479537952795022E06945795AC
:103480004795379527950701E3260322000CE02492
:10349000BE25F4261422111CF124CF25080105278E
:1034A0000522001C0025D02712271222111C1125ED
:1034B000A1270B016D270D22000C602536277A27E6
:1034C0001A22111C712547270C018B270B22001C87
:1034D000802558279C271C22111C91252927022E64
:1034E000001C331F441F551F221FE486F5860687E4
:1034F0001787308B418B528B238B64A375A386A3D4
:1035000097A3D0AFA1AFB2AFC3AFDA9409F0ADCB00
:1035100020823182428253826482758286829782BF
:10352000A086B186C2861124DF91CF911F910F91A1
:10353000FF90EF90DF90CF90BF90AF909F908F90D3
:103540007F906F905F904F903F902F9008958F9253
:103550009F92AF92BF92CF92DF92EF92FF920F9322
:103560001F93CF93DF93CDB7DEB7CA56D1090FB6FD
:10357000F894DEBF0FBECDBF8E01075B1F4F80E109
:10358000E6E0F2E0D80101900D928A95E1F788E03B
:10359000E6E1F2E0DE01AF59BF4F01900D928A954E
:1035A000E1F788E0EEE1F2E0DE01A75ABF4F0190BB
:1035B0000D928A95E1F780E1E6E2F2E0DE01D9962C
:1035C00001900D928A95E1F786E392E00E946901ED
:1035D00060E1C8010E94EE0281E592E00E9469016B
:1035E00068E0CE018F599F4F0E94EE0286E592E07F
:1035F0000E94690168E0CE01875A9F4F0E94EE0247
:103600008BE592E00E94690160E1CE01C9960E94BB
:10361000EE0280E692E00E9469011F930F93CE01B3
:103620008F599F4F4C01A12CB12CC12CD12C80E182
:10363000E82EF12C8E01075C1F4F28E030E0AE0130
:10364000475A5F4FBE0167597F4FCE0101960E94D6
:10365000121382E692E00E94690160E1CE010196B8
:103660000E94EE0289E792E00E946901AA966FAD7E
:10367000AA976051CE0141960E94EE0280E692E048
:103680000E9469010E9497000F900F9080E090E0E7
:10369000C659DF4F0FB6F894DEBF0FBECDBFDF9126
:1036A000CF911F910F91FF90EF90DF90CF90BF903F
:1036B000AF909F908F900895689401C0E8948F9286
:1036C0009F92CF93DF930E946A1BDF91CF919F90CF
:1036D0008F90089588249924F401E401B0E49F9325
:1036E000AA279A158B049C04ED05FE05CF05D0078B
:1036F000A10798F4AD2FDC2FCF2FFE2FE92D982CAA
:10370000892E982F872F762F652F542F432F322FF6
:103710002227B85031F7BF9127C01B2EBF91BB277E
:10372000220F331F441F551F661F771F881F991FC5
:10373000881C991CEE1FFF1FCC1FDD1FAA1FBB1F7B
:103740008A149B04EC05FD05CE05DF05A007B10733
:1037500048F08A189B08EC09FD09CE09DF09A00B87
:10376000B10B21601A94E1F62EF49401AF01BE0171
:10377000CD01000C08950F93083090F0982F872FFB
:10378000762F652F542F432F322F22270850F4CF46
:10379000220F331F441F551F661F771F881F991F55
:1037A0000A95B2F70F9108950024A7FD00942A0FFF
:1037B000301D401D501D601D701D801D901D089501
:1037C0000024A7FD00942A17300540055005600528
:1037D0007005800590050895FB01DC0102C0019091
:1037E0000D9241505040D8F70895DC0101C06D930F
:1037F00041505040E0F708950F931F93CF93DF930C
:10380000CDB7DEB72E970FB6F894DEBF0FBECDBF93
:103810000E891F8986E08C831A8309838FEF9FE7C7
:103820009E838D83AE01465E5F4F688D798DCE019C
:1038300001960E942B1CEF81F885E00FF11F10828A
:103840002E960FB6F894DEBF0FBECDBFDF91CF919D
:103850001F910F9108952F923F924F925F926F9216
:103860007F928F929F92AF92BF92CF92DF92EF9210
:10387000FF920F931F93CF93DF93CDB7DEB72C97B3
:103880000FB6F894DEBF0FBECDBF7C016B018A017D
:10389000FC0117821682838181FFBDC1CE01019692
:1038A0004C01F7019381F60193FD859193FF81917E
:1038B0006F01882309F4ABC1853239F493FD8591FA
:1038C00093FF81916F01853229F4B70190E00E9446
:1038D0003C1EE7CF512C312C20E02032A0F48B325B
:1038E00069F030F4803259F0833269F420612CC0E1
:1038F0008D3239F0803339F4216026C02260246093
:1039000023C0286021C027FD27C030ED380F3A3092
:1039100078F426FF06C0FAE05F9E300D1124532E86
:1039200013C08AE0389E300D1124332E20620CC063
:103930008E3221F426FD6BC1206406C08C3611F452
:10394000206802C0883641F4F60193FD859193FF0B
:1039500081916F018111C1CF982F9F7D9554933034
:1039600028F40C5F1F4FFFE3F9830DC0833631F05D
:10397000833771F0833509F05BC022C0F801808184
:1039800089830E5F1F4F44244394512C540115C06A
:103990003801F2E06F0E711CF801A080B18026FFA3
:1039A00003C0652D70E002C06FEF7FEFC5012C876B
:1039B0000E94311E2C0183012C852F77222E17C0E7
:1039C0003801F2E06F0E711CF801A080B18026FF73
:1039D00003C0652D70E002C06FEF7FEFC5012C873B
:1039E0000E94261E2C012C852068222E830123FC98
:1039F0001BC0832D90E048165906B0F4B70180E251
:103A000090E00E943C1E3A94F4CFF50127FC85918A
:103A100027FE81915F01B70190E00E943C1E3110AA
:103A20003A94F1E04F1A51084114510471F7E5C07E
:103A3000843611F0893639F5F80127FF07C0608117
:103A40007181828193810C5F1F4F08C060817181F9
:103A5000882777FD8095982F0E5F1F4F2F76B22E07
:103A600097FF09C090958095709561957F4F8F4F16
:103A70009F4F2068B22E2AE030E0A4010E946E1E03
:103A8000A82EA81844C0853729F42F7EB22E2AE02C
:103A900030E025C0F22FF97FBF2E8F36C1F018F429
:103AA000883579F0B4C0803719F0883721F0AFC07D
:103AB0002F2F2061B22EB4FE0DC08B2D8460B82E46
:103AC00009C024FF0AC09F2F9660B92E06C028E0C7
:103AD00030E005C020E130E002C020E132E0F80132
:103AE000B7FE07C060817181828193810C5F1F4F97
:103AF00006C06081718180E090E00E5F1F4FA401DD
:103B00000E946E1EA82EA818FB2DFF77BF2EB6FEB2
:103B10000BC02B2D2E7FA51450F4B4FE0AC0B2FCAE
:103B200008C02B2D2E7E05C07A2C2B2D03C07A2C9D
:103B300001C0752C24FF0DC0FE01EA0DF11D80812E
:103B4000803311F4297E09C022FF06C07394739458
:103B500004C0822F867809F0739423FD13C020FFE0
:103B600006C05A2C731418F4530C5718732C731482
:103B700068F4B70180E290E02C870E943C1E7394A9
:103B80002C85F5CF731410F4371801C0312C24FFA5
:103B900012C0B70180E390E02C870E943C1E2C8568
:103BA00022FF17C021FF03C088E590E002C088E72C
:103BB00090E0B7010CC0822F867859F021FD02C039
:103BC00080E201C08BE227FD8DE2B70190E00E9408
:103BD0003C1EA51438F4B70180E390E00E943C1E1F
:103BE0005A94F7CFAA94F401EA0DF11D8081B70130
:103BF00090E00E943C1EA110F5CF332009F451CE75
:103C0000B70180E290E00E943C1E3A94F6CFF701A3
:103C10008681978102C08FEF9FEF2C960FB6F894A4
:103C2000DEBF0FBECDBFDF91CF911F910F91FF90EF
:103C3000EF90DF90CF90BF90AF909F908F907F904C
:103C40006F905F904F903F902F900895FC010590EA
:103C5000615070400110D8F7809590958E0F9F1F8E
:103C60000895FC016150704001900110D8F78095D3
:103C700090958E0F9F1F08950F931F93CF93DF93FF
:103C8000182F092FEB018B8181FD03C08FEF9FEF70
:103C900020C082FF10C04E815F812C813D81421780
:103CA00053077CF4E881F9819F012F5F3F4F3983EF
:103CB0002883108306C0E885F985812F1995892B03
:103CC00029F72E813F812F5F3F4F3F832E83812F26
:103CD000902FDF91CF911F910F910895FA01AA279C
:103CE000283051F1203181F1E8946F936E7F6E5F3F
:103CF0007F4F8F4F9F4FAF4FB1E03ED0B4E03CD0ED
:103D0000670F781F891F9A1FA11D680F791F8A1FCF
:103D1000911DA11D6A0F711D811D911DA11D20D036
:103D200009F468943F912AE0269F11243019305DF0
:103D30003193DEF6CF010895462F4770405D4193E1
:103D4000B3E00FD0C9F7F6CF462F4F70405D4A332E
:103D500018F0495D31FD4052419302D0A9F7EACFF6
:103D6000B4E0A6959795879577956795BA95C9F725
:103D700000976105710508959B01AC010A2E069418
:103D80005795479537952795BA95C9F7620F731FD1
:0C3D9000841F951FA01D0895F894FFCF1C
:103D9C00F51BF51BF51B3322110077665544BBAAA6
:103DAC009988FFEEDDCCFFFFFFFFFFFFFFFF020056
:103DBC0000100400003007000080050000600300C4
:103DCC00004001000020456E6372797074696F6E5B
:103DDC0020706172616D65746572733A0A4B3A209A
:103DEC00000A4E3A20000A483A20000A503A2000B5
:103DFC000A00456E6372797074696F6E2072657318
:103E0C00756C743A0A433A20000A413A2000257531
:103E1C002A325E2825642A38292B0025752A325E21
:103E2C002825642A3829290030780025303278007A
:00000001FF
