:100000000C9474000C9495000C9495000C9495003D
:100010000C9495000C9495000C9495000C9495000C
:100020000C9495000C9495000C9495000C949500FC
:100030000C9495000C9495000C9495000C949500EC
:100040000C9495000C9495000C9495000C949500DC
:100050000C94760B0C9495000C9495000C949500E0
:100060000C9495000C9495000C9495000C949500BC
:100070000C9495000C9495000C9495000C949500AC
:100080000C9495000C9495000C9495000C9495009C
:100090000C9495000C9495000C9495000C9495008C
:1000A0000C9495000C9495000C9495000C9495007C
:1000B0000C9495000C9495000C9495000C9495006C
:1000C0000C9495000C9495000C9495000C9495005C
:1000D0000C9495000C9495000C9495000C9495004C
:1000E0000C9495000C942F2611241FBECFEFD1E263
:1000F000DEBFCDBF00E00CBF13E0A0E0B2E0E0E166
:10010000F2E500E00BBF02C007900D92A636B107E2
:10011000D9F713E0A6E6B3E001C01D92A23CB107F7
:10012000E1F70E9482250C9406290C9400002F927E
:100130003F924F925F926F927F928F929F92AF9277
:10014000BF92CF92DF92EF92FF920F931F93CF93C4
:10015000DF93CDB7DEB7C65DD1090FB6F894DEBF29
:100160000FBECDBF3C01C953DF4F79836883C75CA5
:10017000D040C753DF4F59834883C95CD0407901D1
:100180002DB73EB7C353DF4F39832883CD5CD040B2
:1001900000E810E020E030E040E050E060E070E097
:1001A000CE0101964C010E94910E00E420E030E067
:1001B00040E050E060E070E0CE018F579F4F0E941A
:1001C000910EC7018C7F8896EDB7FEB7E81BF90B3F
:1001D0000FB6F894FEBF0FBEEDBF2DB73EB72F5F31
:1001E0003F4FC553DF4F39832883CB5CD0400E94FB
:1001F000B50BC153DF4F2883CF5CD040C053DF4FD6
:100200003883C05DD040CF52DF4F4883C15DD040BE
:10021000CE52DF4F5883C25DD040CD52DF4F68834E
:10022000C35DD040CC52DF4F7883C45DD040CB5209
:10023000DF4F8883C55DD040CA52DF4F9883C65DCB
:10024000D0400E94B50B19012A01CD53DF4F6883BE
:10025000C35CD040CC53DF4F7883C45CD040CB53D9
:10026000DF4F8883C55CD040CA53DF4F9883C65C9C
:10027000D0409F928F92CE018F579F4F4C01A12C5F
:10028000B12CC12CD12CC753DF4F08811981C95C17
:10029000D040C953DF4F28813981C75CD040A301CA
:1002A000BE016F537F4FC553DF4F88819981CB5C6F
:1002B000D0400E94ED1D0E94B50B51016201CD534B
:1002C000DF4FE880C35CD040CC53DF4FF880C45C84
:1002D000D040CB53DF4F0881C55CD040CA53DF4FBD
:1002E0001881C65CD0400E94112649013A01B62F00
:1002F000A72FF82FE92F9101A201B701C801C1531F
:10030000DF4FA880CF5CD040C053DF4FB880C05DC6
:10031000D040CF52DF4FC880C15DD040CE52DF4FBA
:10032000D880C25DD040CD52DF4FE880C35DD04061
:10033000CC52DF4FF880C45DD040CB52DF4F0881F4
:10034000C55DD040CA52DF4F1881C65DD0400E94C3
:10035000112659016A017B018C019401A3016B2FC5
:100360007A2F8F2F9E2F0E9411260F900F90C3532C
:10037000DF4FE881F981CD5CD0400FB6F894FEBF25
:100380000FBEEDBFCA52DF4F0FB6F894DEBF0FBEEF
:10039000CDBFDF91CF911F910F91FF90EF90DF9034
:1003A000CF90BF90AF909F908F907F906F905F9015
:1003B0004F903F902F9008952F923F924F925F92CF
:1003C0006F927F928F929F92AF92BF92CF92DF9265
:1003D000EF92FF920F931F93CF93DF93CDB7DEB7CA
:1003E000C85ED1090FB6F894DEBF0FBECDBF2DB7E2
:1003F0003EB7C951DF4F39832883C75ED04086E0BE
:1004000092E00E94440C42E050E0C353DF4F598316
:100410004883CD5CD040BE016F5F7F4FCD53DF4F2F
:1004200079836883C35CD0408DB79EB7C752DF4FD6
:1004300099838883C95DD040212C312C21012394DC
:10044000C353DF4F0880CD5CD04004C0220C331C66
:10045000441C551C0A94D2F7A201910160E070E09F
:10046000CB01CB53DF4F2882C55CD040CA53DF4F4E
:100470003883C65CD040C953DF4F4883C75CD04047
:10048000C853DF4F5883C85CD040C753DF4F6883E1
:10049000C95CD040C653DF4F7883CA5CD040C55397
:1004A000DF4F8883CB5CD040C453DF4F9883CC5C54
:1004B000D0404DB75EB7421953090FB6F8945EBFEE
:1004C0000FBE4DBF6DB77EB76F5F7F4F3B018DB7DE
:1004D0009EB7821993090FB6F8949EBF0FBE8DBFC9
:1004E0002DB73EB72F5F3F4FC153DF4F398328836E
:1004F000CF5CD040CB53DF4F0881C55CD040CA539E
:10050000DF4F1881C65CD040C953DF4F2881C75CDC
:10051000D040C853DF4F3881C85CD04040E050E045
:1005200060E070E0C3010E94910ECB53DF4F088161
:10053000C55CD040CA53DF4F1881C65CD040C95358
:10054000DF4F2881C75CD040C853DF4F3881C85C7B
:10055000D04040E050E060E070E0C153DF4F888160
:100560009981CF5CD0400E94910E4DB75EB7C552C5
:10057000DF4F59834883CB5DD04000E810E020E096
:1005800030E040E050E060E070E0CE0101960E9473
:10059000910E00E420E030E040E050E060E070E0E8
:1005A000CE018F579F4F0E94910EC101969587955E
:1005B000969587950A96880F991F880F991F6DB792
:1005C0007EB7681B790B0FB6F8947EBF0FBE6DBF68
:1005D0008DB79EB70196C352DF4F99838883CD5D57
:1005E000D0400E94B50BC152DF4F2883CF5DD04071
:1005F000C052DF4F3883C05ED040CF51DF4F4883B9
:10060000C15ED040CE51DF4F5883C25ED040CD5145
:10061000DF4F6883C35ED040CC51DF4F7883C45E28
:10062000D040CB51DF4F8883C55ED040CA51DF4FE9
:100630009883C65ED0400E94B50BCF52DF4F28830F
:10064000C15DD040CE52DF4F3883C25DD040CD5225
:10065000DF4F4883C35DD040CC52DF4F5883C45D29
:10066000D040CB52DF4F6883C55DD040CA52DF4FC8
:100670007883C65DD040C952DF4F8883C75DD040C4
:10068000C852DF4F9883C85DD040CC53DF4F98816C
:10069000C45CD0409F93CD53DF4F2881C35CD040D2
:1006A0002F93AE014F575F4F4A01A12CB12CC12CA3
:1006B000D12C7101C153DF4F08811981CF5CD0402B
:1006C0009101A301BE016F537F4FC352DF4F888159
:1006D0009981CD5DD0400E94ED1D0E94B50BCF5297
:1006E000DF4FA880C15DD040CE52DF4FB880C25DE1
:1006F000D040CD52DF4FC880C35DD040CC52DF4FD9
:10070000D880C45DD040CB52DF4FE880C55DD0407B
:10071000CA52DF4FF880C65DD040C952DF4F088112
:10072000C75DD040C852DF4F1881C85DD0400E94DD
:1007300011264901B42FA52FF62FE72F782E692E09
:100740009501A601B701C801C152DF4FA880CF5D56
:10075000D040C052DF4FB880C05ED040CF51DF4F95
:10076000C880C15ED040CE51DF4FD880C25ED0403D
:10077000CD51DF4FE880C35ED040CC51DF4FF880D1
:10078000C45ED040CB51DF4F0881C55ED040CA5116
:10079000DF4F1881C65ED0400E94112659016A01C0
:1007A0007B018C0194014B2F5A2F6F2F7E2F872DA9
:1007B000962D0E9411264901742E652E562E472E25
:1007C000382E292EC552DF4F68817981CB5DD0400C
:1007D0000FB6F8947EBF0FBE6DBF87E292E00E9415
:1007E000440CCB53DF4F2881C55CD040CA53DF4F48
:1007F0003881C65CD040C953DF4F4881C75CD040C8
:10080000C853DF4F5881C85CD04060E070E080E0A2
:1008100090E001E00E94EC2559016A017B018C0106
:100820000E94260D8AE792E00E94440C9401472D15
:10083000562D652D742D832D922D0E94260D8EE44C
:1008400092E00E94440C9401472D562D652D742D85
:10085000832D922D0E948F250E94260D82E493E025
:100860000E94440CC752DF4F88819981C95DD040F6
:100870000FB6F8949EBF0FBE8DBFC353DF4F2881C4
:100880003981CD5CD0402F5F3F4FC353DF4F398359
:100890002883CD5CD0402B30310509F0C5CD82E4F2
:1008A00093E00E94440CC951DF4F48815981C75ED3
:1008B000D0400FB6F8945EBF0FBE4DBFC851DF4F9A
:1008C0000FB6F894DEBF0FBECDBFDF91CF911F9161
:1008D0000F91FF90EF90DF90CF90BF90AF909F90DF
:1008E0008F907F906F905F904F903F902F900895E2
:1008F0002F923F924F925F926F927F928F929F9230
:10090000AF92BF92CF92DF92EF92FF920F931F931D
:10091000CF93DF93CDB7DEB7CC54D1090FB6F8949F
:10092000DEBF0FBECDBFF82E8E010F5F1F4F80E4DC
:10093000F80111928A95E9F741E050E060E070E03B
:1009400049835A836B837C830E94B50B22962FAF19
:10095000229723963FAF239724964FAF249725964F
:100960005FAF259726966FAF269727967FAF27977D
:1009700028968FAF289729969FAF29970E94B50B8D
:1009800039014A011B012C016F2DC8010E94F12081
:100990000E94B50B53016401710182010E9411266E
:1009A0002A962FAF2A972B963FAF2B972C964FAFB7
:1009B0002C972D965FAF2D97B62FA72FF82FE92FE5
:1009C0009301A401B101C2012296AFAC22972396F4
:1009D000BFAC23972496CFAC24972596DFAC259700
:1009E0002696EFAC26972796FFAC279728960FAD53
:1009F000289729961FAD29970E94112659016A014F
:100A00007B018C012A962FAD2A972B963FAD2B9711
:100A10002C964FAD2C972D965FAD2D976B2F7A2F7F
:100A20008F2F9E2F0E941126C45BDF4F0FB6F894C4
:100A3000DEBF0FBECDBFDF91CF911F910F91FF9011
:100A4000EF90DF90CF90BF90AF909F908F907F906E
:100A50006F905F904F903F902F9008952F923F920C
:100A60004F925F926F927F928F929F92AF92BF92BE
:100A7000CF92DF92EF92FF920F931F93CF93DF936A
:100A8000CDB7DEB7C855D1090FB6F894DEBF0FBE9B
:100A9000CDBF2D961FAE1EAE2D97CE01019623968B
:100AA0009FAF8EAF2397C12CD12C7601C3942C9687
:100AB0000FAC2C9704C0CC0CDD1CEE1CFF1C0A9460
:100AC000D2F7160127012396AEADBFAD2397E0E420
:100AD0001D92EA95E9F781E090E0A0E0B0E089831B
:100AE0009A83AB83BC830E94B50B2E962FAF2E97B3
:100AF0002F963FAF2F9760964FAF609761965FAF8D
:100B0000619762966FAF629763967FAF63976496C3
:100B10008FAF649765969FAF65970E94B50B24963B
:100B20002FAF249725963FAF259726964FAF269750
:100B300027965FAF279728966FAF289729967FAFA4
:100B400029972A968FAF2A972B969FAF2B976C2DBC
:100B5000CE0101960E94F1200E94B50B2496AFAC05
:100B600024972596BFAC25972696CFAC2697279637
:100B7000DFAC27972896EFAC28972996FFAC2997EA
:100B80002A960FAD2A972B961FAD2B970E94112600
:100B9000B22FA32FF42FE52F66966FAF6697679657
:100BA0007FAF679768968FAF689769969FAF699791
:100BB0009501A601B701C8012E96AFAC2E972F96CE
:100BC000BFAC2F976096CFAC60976196DFAC619712
:100BD0006296EFAC62976396FFAC639764960FAD35
:100BE000649765961FAD65970E94112659016A01A9
:100BF0007B018C012B2F3A2F4F2F5E2F66966FAD06
:100C0000669767967FAD679768968FAD6897699688
:100C10009FAD69970E94112624962FAF24972596A1
:100C20003FAF259726964FAF269727965FAF27971A
:100C300028966FAF289729967FAF29972A968FAF6E
:100C40002A972B969FAF2B978EE592E00E94440C3B
:100C50009101A20160E070E080E090E00E94260D2A
:100C60008EE692E00E94440C24962FAD24972596A0
:100C70003FAD259726964FAD269727965FAD2797D0
:100C800028966FAD289729967FAD29972A968FAD24
:100C90002A972B969FAD2B970E94260D8DE792E009
:100CA0000E94440C51016201E12CF12C00E010E0A3
:100CB00024962FAD249725963FAD259726964FADC8
:100CC000269727965FAD279728966FAD2897299688
:100CD0007FAD29972A968FAD2A972B969FAD2B979C
:100CE0000E948F250E94260D80E892E00E94440C0D
:100CF00082E493E00E94440C2D96AEADBFAD2D97DB
:100D000011962D96BFAFAEAF2D97199709F0CBCEA8
:100D100082E493E00E94440CC85ADF4F0FB6F89467
:100D2000DEBF0FBECDBFDF91CF911F910F91FF901E
:100D3000EF90DF90CF90BF90AF909F908F907F907B
:100D40006F905F904F903F902F9008952F923F9219
:100D50004F925F926F927F928F929F92AF92BF92CB
:100D6000CF92DF92EF92FF920F931F93CF93DF9377
:100D7000CDB7DEB7C85ED1090FB6F894DEBF0FBE9F
:100D8000CDBF3E0189E8680E711C80E1F301982F08
:100D900011929A95E9F7CF55DF4F188219821A827E
:100DA0001B82C15AD040CB55DF4F188219821A825C
:100DB0001B82C55AD040C756DF4F188219821A824B
:100DC0001B82C959D040C356DF4F188219821A823C
:100DD0001B82CD59D0404E01E9E78E0E911CF401E3
:100DE00011928A95E9F70E94B50B59016A017B01BE
:100DF0008C010E94B50BC755DF4F2883C95AD040DC
:100E0000C655DF4F3883CA5AD040C555DF4F488397
:100E1000CB5AD040C455DF4F5883CC5AD040C3552D
:100E2000DF4F6883CD5AD040C255DF4F7883CE5A0A
:100E3000D040C155DF4F8883CF5AD040C055DF4FD7
:100E40009883C05BD0400E94B50BCF52DF4F288300
:100E5000C15DD040CE52DF4F3883C25DD040CD520D
:100E6000DF4F4883C35DD040CC52DF4F5883C45D11
:100E7000D040CB52DF4F6883C55DD040CA52DF4FB0
:100E80007883C65DD040C952DF4F8883C75DD040AC
:100E9000C852DF4F9883C85DD040AE014F555F4FB9
:100EA000B301CE0101960E9453180E94B50BCF5496
:100EB000DF4F2883C15BD040CE54DF4F3883C25B05
:100EC000D040CD54DF4F4883C35BD040CC54DF4F7C
:100ED0005883C45BD040CB54DF4F6883C55BD040A0
:100EE000CA54DF4F7883C65BD040C954DF4F888334
:100EF000C75BD040C854DF4F9883C85BD04048E000
:100F000050E0BE0167567F4FCE0101960E94E8185F
:100F10000E94B50BC754DF4F2883C95BD040C6542D
:100F2000DF4F3883CA5BD040C554DF4F4883CB5B6B
:100F3000D040C454DF4F5883CC5BD040C354DF4F04
:100F40006883CD5BD040C254DF4F7883CE5BD04006
:100F5000C154DF4F8883CF5BD040C054DF4F9883AC
:100F6000C05CD04020E130E0A401BE016F5B7F4F48
:100F7000CE0101960E94EE180E94B50BCF53DF4FB1
:100F80002883C15CD040CE53DF4F3883C25CD04051
:100F9000CD53DF4F4883C35CD040CC53DF4F5883E1
:100FA000C45CD040CB53DF4F6883C55CD040CA538C
:100FB000DF4F7883C65CD040C953DF4F8883C75C5E
:100FC000D040C853DF4F9883C85CD04040E050E029
:100FD00060E070E0CE0101960E942C1D0E94B50BCE
:100FE000C753DF4F2883C95CD040C653DF4F3883D7
:100FF000CA5CD040C553DF4F4883CB5CD040C4535C
:10100000DF4F5883CC5CD040C353DF4F6883CD5C47
:10101000D040C253DF4F7883CE5CD040C153DF4F06
:101020008883CF5CD040C053DF4F9883C05DD040F1
:1010300061E470E06C0F7D1F605F7F4FCE01019611
:101040000E94321D0E94B50BC752DF4F2883C95D35
:10105000D040C652DF4F3883CA5DD040C552DF4F03
:101060004883CB5DD040C452DF4F5883CC5DD04025
:10107000C352DF4F6883CD5DD040C252DF4F7883CB
:10108000CE5DD040C152DF4F8883CF5DD040C0528B
:10109000DF4F9883C05ED040E0910002F0910102E2
:1010A00040E450E060E070E0CE01019619950E94A6
:1010B000B50BCF51DF4F2883C15ED040CE51DF4FFB
:1010C0003883C25ED040CD51DF4F4883C35ED040ED
:1010D000CC51DF4F5883C45ED040CB51DF4F688383
:1010E000C55ED040CA51DF4F7883C65ED040C9513B
:1010F000DF4F8883C75ED040C851DF4F9883C85EFA
:10110000D040C755DF4F2881C95AD040C655DF4F60
:101110003881CA5AD040C555DF4F4881CB5AD0409C
:10112000C455DF4F5881CC5AD040C355DF4F68813A
:10113000CD5AD040C255DF4F7881CE5AD040C155EC
:10114000DF4F8881CF5AD040C055DF4F9881C05BB8
:10115000D0400E941126622E232E342E452E562E6C
:10116000772E4C018EE892E00E94440C85ED92E0CF
:101170000E94440CCF54DF4F2881C15BD040CE5435
:10118000DF4F3881C25BD040CD54DF4F4881C35B15
:10119000D040CC54DF4F5881C45BD040CB54DF4F9C
:1011A0006881C55BD040CA54DF4F7881C65BD040B0
:1011B000C954DF4F8881C75BD040C854DF4F988146
:1011C000C85BD040CF52DF4FA880C15DD040CE5227
:1011D000DF4FB880C25DD040CD52DF4FC880C35DC5
:1011E000D040CC52DF4FD880C45DD040CB52DF4FCF
:1011F000E880C55DD040CA52DF4FF880C65DD04060
:10120000C952DF4F0881C75DD040C852DF4F1881F7
:10121000C85DD0400E941126A62CB22CC32CD42C21
:10122000E52CF72C84010E9411260E94260D82E4F1
:1012300093E00E94440C87EE92E00E94440CC75455
:10124000DF4F2881C95BD040C654DF4F3881CA5B6D
:10125000D040C554DF4F4881CB5BD040C454DF4FF2
:101260005881CC5BD040C354DF4F6881CD5BD04008
:10127000C254DF4F7881CE5BD040C154DF4F8881AC
:10128000CF5BD040C054DF4F9881C05CD040CF547A
:10129000DF4FA880C15BD040CE54DF4FB880C25B27
:1012A000D040CD54DF4FC880C35BD040CC54DF4F1B
:1012B000D880C45BD040CB54DF4FE880C55BD040C2
:1012C000CA54DF4FF880C65BD040C954DF4F088155
:1012D000C75BD040C854DF4F1881C85BD0400E9424
:1012E0001126A62CB22CC32CD42CE52CF72C84016F
:1012F0000E9411260E94260D82E493E00E94440C75
:101300008BEF92E00E94440CCF53DF4F2881C15CE9
:10131000D040CE53DF4F3881C25CD040CD53DF4F39
:101320004881C35CD040CC53DF4F5881C45CD0406F
:10133000CB53DF4F6881C55CD040CA53DF4F788103
:10134000C65CD040C953DF4F8881C75CD040C853CA
:10135000DF4F9881C85CD040C754DF4FA880C95B7D
:10136000D040C654DF4FB880CA5BD040C554DF4F71
:10137000C880CB5BD040C454DF4FD880CC5BD0401A
:10138000C354DF4FE880CD5BD040C254DF4FF880BC
:10139000CE5BD040C154DF4F0881CF5BD040C054FA
:1013A000DF4F1881C05CD0400E941126A62CB22CC1
:1013B000C32CD42CE52CF72C84010E9411260E940A
:1013C000260D82E493E00E94440C80E193E00E94A9
:1013D000440CC753DF4F2881C95CD040C653DF4F50
:1013E0003881CA5CD040C553DF4F4881CB5CD040C8
:1013F000C453DF4F5881CC5CD040C353DF4F68816A
:10140000CD5CD040C253DF4F7881CE5CD040C15319
:10141000DF4F8881CF5CD040C053DF4F9881C05DE3
:10142000D040CF53DF4FA880C15CD040CE53DF4FB8
:10143000B880C25CD040CD53DF4FC880C35CD04081
:10144000CC53DF4FD880C45CD040CB53DF4FE88013
:10145000C55CD040CA53DF4FF880C65CD040C9534A
:10146000DF4F0881C75CD040C853DF4F1881C85C8C
:10147000D0400E941126A62CB22CC32CD42CE52CD3
:10148000F72C84010E9411260E94260D82E493E02D
:101490000E94440C85E293E00E94440CC752DF4F47
:1014A0002881C95DD040C652DF4F3881CA5DD04027
:1014B000C552DF4F4881CB5DD040C452DF4F5881C9
:1014C000CC5DD040C352DF4F6881CD5DD040C25269
:1014D000DF4F7881CE5DD040C152DF4F8881CF5D34
:1014E000D040C052DF4F9881C05ED040C753DF4F1D
:1014F000A880C95CD040C653DF4FB880CA5CD040DA
:10150000C553DF4FC880CB5CD040C453DF4FD88079
:10151000CC5CD040C353DF4FE880CD5CD040C25399
:10152000DF4FF880CE5CD040C153DF4F0881CF5CE5
:10153000D040C053DF4F1881C05DD0400E941126BB
:10154000A62CB22CC32CD42CE52CF72C84010E94A1
:1015500011260E94260D82E493E00E94440C86EB43
:1015600092E00E94440C87E393E00E94440CCF5128
:10157000DF4F2881C15ED040CE51DF4F3881C25E3F
:10158000D040CD51DF4F4881C35ED040CC51DF4FBA
:101590005881C45ED040CB51DF4F6881C55ED040DA
:1015A000CA51DF4F7881C65ED040C951DF4F888174
:1015B000C75ED040C851DF4F9881C85ED040C75544
:1015C000DF4FA880C95AD040C655DF4FB880CA5AED
:1015D000D040C555DF4FC880CB5AD040C455DF4FEF
:1015E000D880CC5AD040C355DF4FE880CD5AD04088
:1015F000C255DF4FF880CE5AD040C155DF4F088129
:10160000CF5AD040C055DF4F1881C05BD0400E94F8
:101610001126C755DF4F2883C95AD040C655DF4F22
:101620003883CA5AD040C555DF4F4883CB5AD04083
:10163000C455DF4F5883CC5AD040B62FA72FF82F70
:10164000E92F262D322D432D542D652D772DC401E4
:1016500003E00E94EC25A62CB22CC32CD42CE52C44
:10166000F72C84010E94112659016A017B018C012B
:10167000C755DF4F2881C95AD040C655DF4F388142
:10168000CA5AD040C555DF4F4881CB5AD040C455C7
:10169000DF4F5881CC5AD0406B2F7A2F8F2F9E2F3F
:1016A0000E9411260E94260D81E493E00E94440CC2
:1016B000C851DF4F0FB6F894DEBF0FBECDBFDF912C
:1016C000CF911F910F91FF90EF90DF90CF90BF903F
:1016D000AF909F908F907F906F905F904F903F90D2
:1016E0002F90089584E00E942E0CFFCF1F920F923E
:1016F0000FB60F9211242F933F934F935F936F93E5
:101700007F938F939F93209167033091680340915B
:10171000690350916A0360916B0370916C0380912F
:101720006D0390916E035F5F6F4F7F4F8F4F9F4FA1
:1017300020936703309368034093690350936A03CF
:1017400060936B0370936C0380936D0390936E03AF
:101750009F918F917F916F915F914F913F912F91C9
:101760000F900FBE0F901F9018957F928F929F92AF
:10177000AF92BF92CF92DF92EF92FF920F931F939F
:10178000CF93DF9380916603811123C0109267038A
:10179000109268031092690310926A0310926B030F
:1017A00010926C0310926D0310926E0381E085BD60
:1017B00084E08093810080916F00816080936F004E
:1017C00016BC1092850010928400789481E080937A
:1017D0006603809084009090850086B5E091670351
:1017E000E82BD0916803C0916903B0916A03A0917E
:1017F0006B03F0916C0370906D0310916E03940174
:1018000040E050E060E070E080E090E008E00E949E
:10181000EC25E22BD32BC42BB52BA62BF72B2E2F8D
:101820003D2F4C2F5B2F6A2F7F2F8729912BDF9124
:10183000CF911F910F91FF90EF90DF90CF90BF90CD
:10184000AF909F908F907F9008951092C50089E18E
:101850008093C40088E18093C100089590916F0344
:1018600091110BC01092C50099E19093C40098E1CA
:101870009093C10091E090936F039091C00095FF09
:10188000FCCF8093C6000895FC0120812223C9F07B
:10189000319649E138E191E080916F03811108C0F0
:1018A0001092C5004093C4003093C10090936F0321
:1018B0008091C00085FFFCCF2093C60021912111AB
:1018C000EBCF08955F926F927F928F929F92AF922B
:1018D000BF92CF92DF92EF92FF920F931F93CF931D
:1018E000DF93CDB7DEB72F970FB6F894DEBF0FBEEC
:1018F000CDBF4C0180916F0381110BC01092C500C8
:1019000089E18093C40088E18093C10081E08093E5
:101910006F038091C00085FFFCCF88E28093C600F2
:10192000E62EF12C870101501109101611060CF05A
:1019300088C0E80CF91CCE0101966C0184E4A82E45
:1019400083E0B82E99E1592E28E1622E7724739412
:1019500091E0E91AF1081F930F93F70180811F921C
:101960008F93BF92AF92DF92CF920E9436269981D9
:101970000FB6F894DEBF0FBECDBF9923B9F0FE01BC
:10198000329680916F03811108C01092C500509269
:10199000C4006092C10070926F038091C00085FF07
:1019A000FCCF9093C60091919111EBCF015011099A
:1019B0000115110569F61F930F93F40180811F92A1
:1019C0008F9381E593E09F938F93DF92CF920E9454
:1019D000362699810FB6F894DEBF0FBECDBF99238E
:1019E000D1F0FE01329649E138E121E080916F03A8
:1019F000811108C01092C5004093C4003093C1000B
:101A000020936F038091C00085FFFCCF9093C600A8
:101A100091919111EBCF2F960FB6F894DEBF0FBEC8
:101A2000CDBFDF91CF911F910F91FF90EF90DF908D
:101A3000CF90BF90AF909F908F907F906F905F906E
:101A400008959E012F5F3F4F6901B5CF2F923F92BE
:101A50004F925F926F927F928F929F92AF92BF92BE
:101A6000CF92DF92EF92FF920F931F93CF93DF936A
:101A7000CDB7DEB76C970FB6F894DEBF0FBECDBF03
:101A8000922E832E742E652E562E472E382E292EFA
:101A9000188EA0E00E941A2609F478C0CE0148965C
:101AA0009C8F8B8FE6E1F0E0FA8FE98F3AE0A32E6E
:101AB000B12CC12CD12CE12CF12C00E010E0292D0F
:101AC000382D472D562D652D742D832D922D0E9476
:101AD0008D25205DEB8DFC8D2293FC8FEB8F898D06
:101AE0009A8D01979A8F898F292D382D472D562D44
:101AF000652D742D832D922D0E948F25922E832E7D
:101B0000742E652E562E472E382E292EA0E00E94C8
:101B10001A2661F6898D9A8D0196FE013196E80F9D
:101B2000F91F90819923C9F0319649E138E121E00C
:101B300080916F03811108C01092C5004093C400CA
:101B40003093C10020936F038091C00085FFFCCFCC
:101B50009093C60091919111EBCF6C960FB6F894CB
:101B6000DEBF0FBECDBFDF91CF911F910F91FF90D0
:101B7000EF90DF90CF90BF90AF909F908F907F902D
:101B80006F905F904F903F902F90089587E190E085
:101B9000C4CF5F926F927F928F929F92AF92BF92CB
:101BA000CF92DF92EF92FF920F931F93CF93DF9329
:101BB000CDB7DEB7C054D1090FB6F894DEBF0FBE63
:101BC000CDBF4C01EFE5F3E090E349E138E121E0DE
:101BD00080916F03811108C01092C5004093C4002A
:101BE0003093C10020936F038091C00085FFFCCF2C
:101BF0009093C60091919111EBCFE62EF12C8701C5
:101C000001501109101611060CF087C0E80CF91CE0
:101C1000CE0101966C0141E6A42E43E0B42E59E1B9
:101C2000552E68E1662E7724739491E0E91AF10845
:101C3000F70180811F928F93BF92AF92DF92CF9274
:101C40000E94362699810F900F900F900F900F9061
:101C50000F909923B9F0FE01329680916F038111A4
:101C600008C01092C5005092C4006092C1007092EA
:101C70006F038091C00085FFFCCF9093C6009191C7
:101C80009111EBCF015011090115110571F6F40105
:101C900080811F928F9381E693E09F938F93DF92D1
:101CA000CF920E94362699810F900F900F900F903F
:101CB0000F900F909923D1F0FE01329649E138E15F
:101CC00021E080916F03811108C01092C5004093FC
:101CD000C4003093C10020936F038091C00085FF42
:101CE000FCCF9093C60091919111EBCFC05CDF4F78
:101CF0000FB6F894DEBF0FBECDBFDF91CF911F911D
:101D00000F91FF90EF90DF90CF90BF90AF909F909A
:101D10008F907F906F905F900895CE0101966C0137
:101D2000B6CF2F923F924F925F926F927F928F9297
:101D30009F92AF92BF92CF92DF92EF92FF920F935A
:101D40001F93CF93DF93CDB7DEB7C455D1090FB63C
:101D5000F894DEBF0FBECDBF25969FAF8EAF2597FF
:101D600022960FAF229723961FAF23971901FA01EE
:101D7000D62EB72F9801A101BF018D2D9B2FA0E07A
:101D80000E941A2609F43FC5009170031091710357
:101D90007801E9A76296FFAF62976396DFAE63971B
:101DA0006596BFAF659742C001E0E01AF108D70120
:101DB000AA0FBB1FAA0FBB1FAE58BC4F0C91659654
:101DC0009FAD6597F0927103E09270032596EEAD9A
:101DD000FFAD259701932596FFAFEEAF259722968D
:101DE0002FAD229723963FAD2397A10169A5629657
:101DF0007FAD629763968FAD6397AFEF0E94052624
:101E000022962FAF229723963FAF23971A0169A7F7
:101E100062967FAF629763968FAF639765969FAF29
:101E20006597A0E00E941A2609F4EDC4E114F104BC
:101E300009F0BACFC0909203D0909303E09094033E
:101E4000F09095031FEFC11AD10AE10AF10AC0927E
:101E50009203D0929303E0929403F0929503009141
:101E60009603109197032091980330919903C11420
:101E7000D104E104F10409F0B5C40F5F1F4F2F4FE7
:101E80003F4F00939603109397032093980330934A
:101E90009903011511052105310509F0A3C44091ED
:101EA0009A0350919B0360919C0370919D034F5F37
:101EB0005F4F6F4F7F4F40939A0350939B03609304
:101EC0009C0370939D03411551056105710509F44B
:101ED000B4C480909E0390909F03A090A003B09004
:101EE000A1032A013B0100E010E09801B701A6011F
:101EF00089E04827498F5A8F6B8F7C8FB901A801E1
:101F000087E048274D8F5E8F6F8F78A39301820102
:101F100049E0042709A31AA32BA33CA3C501B401DC
:101F2000A3E06A276DA37EA38FA398A78090A20346
:101F30009090A303A090A403B090A50302E0802694
:101F400089829A82AB82BC822091A6033091A7033A
:101F50004091A8035091A90363E026272D833E8377
:101F60004F8358878091AA039091AB03A091AC0353
:101F7000B091AD03E8E08E2789879A87AB87BC874D
:101F80008090AE039090AF03A090B003B090B103E7
:101F900004E080268D869E86AF86B88A2091B203A3
:101FA0003091B3034091B4035091B50366E0262706
:101FB000298B3A8B4B8B5C8B8091B6039091B70346
:101FC000A091B803B091B903E2E08E278D8B9E8B70
:101FD000AF8BB88F8090BA039090BB03A090BC03E6
:101FE000B090BD03F6E08F26C090BE03D090BF0333
:101FF000E090C003F090C10304E0C02625E030E08B
:1020000040E050E061962CAF3DAF4EAF5FAF6197BF
:1020100049E050E060E070E021964CAF5DAF6EAFFC
:102020007FAF219767E070E080E090E02D966CAF85
:102030007DAF8EAF9FAF2D9782E090E0A0E0B0E043
:1020400029968CAF9DAFAEAFBFAF299703E010E0EC
:1020500020E030E009AF1AAF2BAF3CAF28E030E012
:1020600040E050E02DAB3EAB4FAB58AF43E050E00B
:1020700060E070E049AB5AAB6BAB7CAB63E070E007
:1020800080E090E06DA77EA78FA798AB40E050E07E
:10209000BA01B9A56496BFAF64976596FFAD659721
:1020A0008A019B010057144628483C4109A71AA7FA
:1020B0002BA73CA747545648684C7146D701C60128
:1020C000E3E08E27840F951FA61FB71F2601370157
:1020D0002BE176946794579447942A95D1F797010A
:1020E0008601000F111F221F331F000F111F221F17
:1020F000331F000F111F221F331F000F111F221F3C
:10210000331F000F111F221F331F402A512A622A3A
:10211000732A84259525A625B725098D1A8D2B8D23
:102120003C8D080F191F2A1F3B1F098F1A8F2B8FF9
:102130003C8F81E00827040F151F261F371F498C8D
:102140005A8C6B8C7C8CA9E1769467945794479455
:10215000AA95D1F7898D9A8DAB8DBC8D880F991F6B
:10216000AA1FBB1F880F991FAA1FBB1F880F991F8B
:10217000AA1FBB1F880F991FAA1FBB1F880F991F7B
:10218000AA1FBB1F880F991FAA1FBB1F880F991F6B
:10219000AA1FBB1F482A592A6A2A7B2A042515250B
:1021A000262537258D8D9E8DAF8DB8A1800F911F6F
:1021B000A21FB31F8D8F9E8FAF8FB8A3E4E08E2731
:1021C000840F951FA61FB71F0D8D1E8D2F8D38A153
:1021D000E7E13695279517950795EA95D1F74D8C48
:1021E0005E8C6F8C78A0E9E0440C551C661C771C53
:1021F000EA95D1F70429152926293729802791271F
:10220000A227B32709A11AA12BA13CA1080F191FCE
:102210002A1F3B1F09A31AA32BA33CA3D901C80162
:1022200011E08127840F951FA61FB71F09A11AA1CE
:102230002BA13CA1E3E13695279517950795EA95E3
:10224000D1F749A05AA06BA07CA0EDE0440C551C2E
:10225000661C771CEA95D1F7042915292629372908
:1022600080279127A227B3270DA11EA12FA138A552
:10227000080F191F2A1F3B1F0DA31EA32FA338A74A
:10228000D901C80115E08127840F951FA61FB71F2C
:102290004DA05EA06FA078A41BE17694679457943C
:1022A00047941A95D1F70DA11EA12FA138A5000FB3
:1022B000111F221F331F000F111F221F331F000F7A
:1022C000111F221F331F000F111F221F331F000F6A
:1022D000111F221F331F402A512A622A732A842584
:1022E0009525A625B72509811A812B813C81080FE8
:1022F000191F2A1F3B1F09831A832B833C8389E004
:102300000827040F151F261F371F49805A806B802E
:102310007C80A9E17694679457944794AA95D1F765
:1023200089819A81AB81BC81880F991FAA1FBB1F2D
:10233000880F991FAA1FBB1F880F991FAA1FBB1FB9
:10234000880F991FAA1FBB1F880F991FAA1FBB1FA9
:10235000880F991FAA1FBB1F880F991FAA1FBB1F99
:10236000482A592A6A2A7B2A042515252625372535
:102370008D819E81AF81B885800F911FA21FB31FF1
:102380008D839E83AF83B887E2E08E27840F951FED
:10239000A61FB71F0D811E812F813885E7E1369575
:1023A000279517950795EA95D1F74D805E806F8048
:1023B0007884E9E0440C551C661C771CEA95D1F73B
:1023C000042915292629372980279127A227B327F1
:1023D00009851A852B853C85080F191F2A1F3B1F6D
:1023E00009871A872B873C87D901C80116E0812706
:1023F000840F951FA61FB71F09851A852B853C855D
:10240000E3E13695279517950795EA95D1F7498425
:102410005A846B847C84EDE0440C551C661C771C4C
:10242000EA95D1F7042915292629372980279127EC
:10243000A227B3270D851E852F853889080F191F00
:102440002A1F3B1F0D871E872F87388BD901C80194
:1024500015E08127840F951FA61FB71F4D845E844A
:102460006F8478881BE176946794579447941A9503
:10247000D1F70D851E852F853889000F111F221F6A
:10248000331F000F111F221F331F000F111F221FA8
:10249000331F000F111F221F331F000F111F221F98
:1024A000331F402A512A622A732A84259525A6259E
:1024B000B72509891A892B893C89080F191F2A1FFA
:1024C0003B1F098B1A8B2B8B3C8B83E00827040F57
:1024D000151F261F371F49885A886B887C88A9E1F9
:1024E0007694679457944794AA95D1F789899A89E5
:1024F000AB89BC89880F991FAA1FBB1F880F991F22
:10250000AA1FBB1F880F991FAA1FBB1F880F991FE7
:10251000AA1FBB1F880F991FAA1FBB1F880F991FD7
:10252000AA1FBB1F880F991FAA1FBB1F482A592A21
:102530006A2A7B2A04251525262537258D899E891B
:10254000AF89B88D800F911FA21FB31F8D8B9E8BFB
:10255000AF8BB88FE5E08E27840F951FA61FB71F9E
:102560000D891E892F89388DE7E1369527951795B6
:102570000795EA95D1F74D885E886F88788CE9E0F9
:10258000440C551C661C771CEA95D1F704291529C3
:102590002629372980279127A227B327880E991E3D
:1025A000AA1EBB1ED501C40108E08027840F951F19
:1025B000A61FB71F95018401E3E13695279517956E
:1025C0000795EA95D1F724013501EDE0440C551C3F
:1025D000661C771CEA95D1F7042915292629372985
:1025E00080279127A227B327C80ED91EEA1EFB1EFB
:1025F00089A59AA5ABA5BCA584179507A607B7071B
:1026000009F058CD09811A812B813C818DA59EA5A9
:10261000AFA5B8A9082719272A273B270DA71EA76A
:102620002FA738AB0D811E812F81388589A99AA9E2
:10263000ABA9BCA9082719272A273B2709AB1AAB46
:102640002BAB3CAB09851A852B853C858DA99EA9B2
:10265000AFA9B8AD082719272A273B270DAB1EAB1A
:102660002FAB38AF0D851E852F85388989AD9AAD82
:10267000ABADBCAD082719272A273B2709AF1AAFF6
:102680002BAF3CAF89899A89AB89BC8929960CAD5F
:102690001DAD2EAD3FAD299780279127A227B327E7
:1026A0004D885E886F88788C2D960CAD1DAD2EAD53
:1026B0003FAD2D97402651266226732621960CADFC
:1026C0001DAD2EAD3FAD2197082519252A253B25A7
:1026D00021960CAF1DAF2EAF3FAF219761960CAD89
:1026E0001DAD2EAD3FAD61970C251D252E253F2537
:1026F0004032E7E35E07EFEE6E07E6EC7E0799F007
:1027000061960CAF1DAF2EAF3FAF61972D964CAECB
:102710005DAE6EAE7FAE2D9729968CAF9DAFAEAFFE
:10272000BFAF2997BDCC64964FAD649749A78DA4E0
:102730009EA4AFA4B8A88092720390927303A09253
:102740007403B092750349A95AA96BA97CA9409357
:1027500076035093770360937803709379038DA881
:102760009EA8AFA8B8AC80927A0390927B03A09207
:102770007C03B0927D0349AD5AAD6BAD7CAD409307
:102780007E0350937F036093800370938103809353
:10279000820390938303A0938403B09385034092B4
:1027A0008603509287036092880370928903219672
:1027B0006CAD7DAD8EAD9FAD219760938A03709314
:1027C0008B0380938C0390938D0300938E0310935F
:1027D0008F03209390033093910387E0E82EF12C30
:1027E0009F2FF0CA40909A0350909B0360909C03E7
:1027F00070909D0380909E0390909F03A090A003F3
:10280000B090A10373CBCC5ADF4F0FB6F894DEBF64
:102810000FBECDBFDF91CF911F910F91FF90EF9031
:10282000DF90CF90BF90AF909F908F907F906F90F0
:102830005F904F903F902F90089580919E039091CC
:102840009F03A091A003B091A1030196A11DB11D0A
:1028500080939E0390939F03A093A003B093A10342
:102860004C015D01412C512C320100E010E0980137
:102870003DCB6F927F928F929F92AF92BF92CF92F9
:10288000DF92EF92FF920F931F93CF93DF931F92EC
:102890001F92CDB7DEB73B018A013C2D2D2DA5013E
:1028A0007C896D89E8A1F9A11A821982FF93EF93BF
:1028B0008E8C9F8CA12CB12CC12CD12CE32EF22E0E
:1028C000272F362FBE016F5F7F4F0E94ED1D0981BC
:1028D0001A81F301008311831282138214821582FC
:1028E0001682178280E090E00F900F900F900F906B
:1028F000DF91CF911F910F91FF90EF90DF90CF90DC
:10290000BF90AF909F908F907F906F9008956F923F
:102910007F928F929F92AF92BF92CF92DF92EF926F
:10292000FF920F931F93CF93DF931F921F92CDB708
:10293000DEB73B01FA2DEB2DA4017C896D89AE8DAC
:10294000BF8D1A821982BF93AF938C8C9D8CA12C62
:10295000B12CC12CD12CEF2EFE2E8901272F362F22
:10296000BE016F5F7F4F0E942D1F09811A81F30105
:1029700000831183128213821482158216821782B9
:102980000F900F900F900F90DF91CF911F910F91AB
:10299000FF90EF90DF90CF90BF90AF909F908F907F
:1029A0007F906F900895AF92BF92CF92DF92EF9297
:1029B000FF920F931F93CF93DF93CDB7DEB7A89706
:1029C0000FB6F894DEBF0FBECDBF7C016B015A017C
:1029D0004832510508F4D0C0F70184AD95ADA6ADDD
:1029E000B7ADF4E08F27F70184AF95AFA6AFB7AFCF
:1029F00064E0C7010E94F120F70180819181A281EA
:102A0000B381F601408151816281738184279527CA
:102A1000A627B727F70180839183A283B38384819C
:102A20009581A681B781F6014481558166817781C0
:102A300084279527A627B727F70184839583A68344
:102A4000B78380859185A285B385F6014085518540
:102A50006285738584279527A627B727F701808786
:102A60009187A287B38784859585A685B785F6016A
:102A7000448555856685778584279527A627B727BA
:102A8000F70184879587A687B78780899189A2896E
:102A9000B389F60140895189628973898427952712
:102AA000A627B727F701808B918BA28BB38B8489E4
:102AB0009589A689B789F6014489558966897789F8
:102AC00084279527A627B727F701848B958BA68B9C
:102AD000B78B808D918DA28DB38DF601408D518D78
:102AE000628D738D84279527A627B727F701808FDE
:102AF000918FA28FB38F848D958DA68DB78DF601A2
:102B0000448D558D668D778D84279527A627B72709
:102B1000F701848F958FA68FB78F80A191A1A2A175
:102B2000B3A1F60140A151A162A173A18427952709
:102B3000A627B727F70180A391A3A2A3B3A304A15B
:102B400015A126A137A1F60184A195A1A6A1B7A13F
:102B5000082719272A273B27F70104A315A326A333
:102B600037A3F8E2AF1AB10828E2C20ED11C88E2FE
:102B7000A816B10408F030CF8E010F5F1F4F88E216
:102B8000F80111928A95E9F7A501B601C8010E94E2
:102B90002626F801EA0DFB1D81E0808388A5806868
:102BA00088A7F70184AD95ADA6ADB7ADF4E08F274A
:102BB000F70184AF95AFA6AFB7AF64E0C7010E943D
:102BC000F120F70180819181A281B38149815A81ED
:102BD0006B817C8184279527A627B72780839183E3
:102BE000A283B38384819581A681B7814D815E8163
:102BF0006F81788584279527A627B72784839583B7
:102C0000A683B78380859185A285B38549855A853A
:102C10006B857C8584279527A627B7278087918792
:102C2000A287B38784859585A685B7854D855E8502
:102C30006F85788984279527A627B7278487958766
:102C4000A687B78780899189A289B38949895A89DA
:102C50006B897C8984279527A627B727808B918B42
:102C6000A28BB38B84899589A689B7894D895E89A2
:102C70006F89788D84279527A627B727848B958B16
:102C8000A68BB78B808D918DA28DB38D498D5A8D7A
:102C90006B8D7C8D84279527A627B727808F918FF2
:102CA000A28FB38F848D958DA68DB78D4D8D5E8D42
:102CB0006F8D78A184279527A627B727848F958FB6
:102CC000A68FB78F80A191A1A2A1B3A149A15AA1BA
:102CD0006BA17CA184279527A627B72780A391A362
:102CE000A2A3B3A384A195A1A6A1B7A14DA15EA162
:102CF0006FA178A584279527A627B72784A395A336
:102D0000A6A3B7A3A8960FB6F894DEBF0FBECDBF9B
:102D1000DF91CF911F910F91FF90EF90DF90CF90B7
:102D2000BF90AF900895AF92BF92CF92DF92EF9293
:102D3000FF920F931F93CF93DF93CDB7DEB7A89782
:102D40000FB6F894DEBF0FBECDBF7C016B015A01F8
:102D50004832510508F4D0C0F70184AD95ADA6AD59
:102D6000B7ADF1E08F27F70184AF95AFA6AFB7AF4E
:102D700064E0C7010E94F120F70180819181A28166
:102D8000B381F60140815181628173818427952747
:102D9000A627B727F70180839183A283B383848119
:102DA0009581A681B781F60144815581668177813D
:102DB00084279527A627B727F70184839583A683C1
:102DC000B78380859185A285B385F60140855185BD
:102DD0006285738584279527A627B727F701808703
:102DE0009187A287B38784859585A685B785F601E7
:102DF000448555856685778584279527A627B72737
:102E0000F70184879587A687B78780899189A289EA
:102E1000B389F6014089518962897389842795278E
:102E2000A627B727F701808B918BA28BB38B848960
:102E30009589A689B789F601448955896689778974
:102E400084279527A627B727F701848B958BA68B18
:102E5000B78B808D918DA28DB38DF601408D518DF4
:102E6000628D738D84279527A627B727F701808F5A
:102E7000918FA28FB38F848D958DA68DB78DF6011E
:102E8000448D558D668D778D84279527A627B72786
:102E9000F701848F958FA68FB78F80A191A1A2A1F2
:102EA000B3A1F60140A151A162A173A18427952786
:102EB000A627B727F70180A391A3A2A3B3A304A1D8
:102EC00015A126A137A1F60184A195A1A6A1B7A1BC
:102ED000082719272A273B27F70104A315A326A3B0
:102EE00037A3F8E2AF1AB10828E2C20ED11C88E27B
:102EF000A816B10408F030CF8E010F5F1F4F88E293
:102F0000F80111928A95E9F7A501B601C8010E945E
:102F10002626F801EA0DFB1D81E0808388A58068E4
:102F200088A7F70184AD95ADA6ADB7ADF1E08F27C9
:102F3000F70184AF95AFA6AFB7AF64E0C7010E94B9
:102F4000F120F70180819181A281B38149815A8169
:102F50006B817C8184279527A627B727808391835F
:102F6000A283B38384819581A681B7814D815E81DF
:102F70006F81788584279527A627B7278483958333
:102F8000A683B78380859185A285B38549855A85B7
:102F90006B857C8584279527A627B727808791870F
:102FA000A287B38784859585A685B7854D855E857F
:102FB0006F85788984279527A627B72784879587E3
:102FC000A687B78780899189A289B38949895A8957
:102FD0006B897C8984279527A627B727808B918BBF
:102FE000A28BB38B84899589A689B7894D895E891F
:102FF0006F89788D84279527A627B727848B958B93
:10300000A68BB78B808D918DA28DB38D498D5A8DF6
:103010006B8D7C8D84279527A627B727808F918F6E
:10302000A28FB38F848D958DA68DB78D4D8D5E8DBE
:103030006F8D78A184279527A627B727848F958F32
:10304000A68FB78F80A191A1A2A1B3A149A15AA136
:103050006BA17CA184279527A627B72780A391A3DE
:10306000A2A3B3A384A195A1A6A1B7A14DA15EA1DE
:103070006FA178A584279527A627B72784A395A3B2
:10308000A6A3B7A3A8960FB6F894DEBF0FBECDBF18
:10309000DF91CF911F910F91FF90EF90DF90CF9034
:1030A000BF90AF9008950F931F93CF93DF93FC01D0
:1030B000DB0108E81AE62FE334E200831183228360
:1030C0003383EA01088119812A813B8104831583B6
:1030D000268337834C815D816E817F814087518754
:1030E0006287738743ED58E063EA75E84487558744
:1030F000668777874D915D916D917C911397408B99
:10310000518B628B738B14964D915D916D917C9177
:103110001797448B558B668B778B18964D915D91E5
:103120006D917C911B97408F518F628F738F1C968E
:103130004D915D916D917C911F97448F558F668F56
:10314000778F4EE25AE869E173E140A351A362A38D
:1031500073A344E453E760E773E044A355A366A375
:1031600077A34AE753E56FE475E240A751A762A74A
:1031700073A748E45DE163E578E344A755A766A734
:1031800077A743E85EE66CE973E840AB51AB62AB0E
:1031900073AB45EE5AE36AE779EF44AB55AB66ABE8
:1031A00077AB49E55BEF6AEE71E144AF55AF66AFCF
:1031B00077AF4CE058E565E97CE940AF51AF62AFCD
:1031C00073AF64E0DF91CF911F910F910C94F120C8
:1031D0004115510511F00C94931608958F929F920A
:1031E000AF92BF92CF92DF92EF92FF920F931F9315
:1031F000CF93DF93CDB7DEB7A8970FB6F894DEBFB5
:103200000FBECDBF8C017B016A015901211531052B
:1032100009F4FBC128E2A216B10408F404C1F801C4
:1032200084AD95ADA6ADB7ADF2E08F27F80184AFC0
:1032300095AFA6AFB7AF64E0C8010E94F120F601D8
:1032400080819181A281B381F801408151816281A5
:10325000738184279527A627B72780839183A2832C
:10326000B383F70180839183A283B383F6018481C2
:103270009581A681B781F801448155816681778166
:1032800084279527A627B72784839583A683B783AA
:10329000F70184839583A683B783F60180859185A2
:1032A000A285B385F80140855185628573858427A1
:1032B0009527A627B72780879187A287B387F7012D
:1032C00080879187A287B387F60184859585A68537
:1032D000B785F801448555856685778584279527C8
:1032E000A627B72784879587A687B787F70184879E
:1032F0009587A687B787F60180899189A289B389C6
:10330000F801408951896289738984279527A62706
:10331000B727808B918BA28BB38BF701808B918B1E
:10332000A28BB38BF60184899589A689B789F801A8
:10333000448955896689778984279527A627B727E1
:10334000848B958BA68BB78BF701848B958BA68B83
:10335000B78BF601808D918DA28DB38DF801408DD4
:10336000518D628D738D84279527A627B727808F6F
:10337000918FA28FB38FF701808F918FA28FB38F20
:10338000F601848D958DA68DB78DF801448D558DF0
:10339000668D778D84279527A627B727848F958FED
:1033A000A68FB78FF701848F958FA68FB78FF60101
:1033B00080A191A1A2A1B3A1F80140A151A162A154
:1033C00073A184279527A627B72780A391A3A2A33B
:1033D000B3A3F70180A391A3A2A3B3A3F60184A191
:1033E00095A1A6A1B7A1F80144A155A166A177A115
:1033F00084279527A627B72784A395A3A6A3B7A3B9
:10340000F70184A395A3A6A3B7A3F8E2AF1AB10866
:1034100028E2C20ED11C88E2E80EF11C98E2A9163F
:10342000B10408F0FCCEFE0131964F0188E2119202
:103430008A95E9F7A501B601C4010E942626F40188
:10344000EA0DFB1D81E0808388A5806888A7F801CC
:1034500084AD95ADA6ADB7ADF2E08F27F80184AF8E
:1034600095AFA6AFB7AF64E0C8010E94F120F801A4
:1034700080819181A281B38149815A816B817C8154
:1034800084279527A627B72780839183A283B383B8
:1034900089839A83AB83BC8384819581A681B7811C
:1034A0004D815E816F81788584279527A627B72770
:1034B00084839583A683B7838D839E83AF83B887E8
:1034C00080859185A285B38549855A856B857C85E4
:1034D00084279527A627B72780879187A287B38758
:1034E00089879A87AB87BC8784859585A685B785AC
:1034F0004D855E856F85788984279527A627B72710
:1035000084879587A687B7878D879E87AF87B88B77
:1035100080899189A289B38949895A896B897C8973
:1035200084279527A627B727808B918BA28BB38BF7
:10353000898B9A8BAB8BBC8B84899589A689B7893B
:103540004D895E896F89788D84279527A627B727AF
:10355000848B958BA68BB78B8D8B9E8BAF8BB88F07
:10356000808D918DA28DB38D498D5A8D6B8D7C8D03
:1035700084279527A627B727808F918FA28FB38F97
:10358000898F9A8FAB8FBC8F848D958DA68DB78DCB
:103590004D8D5E8D6F8D78A184279527A627B7273F
:1035A000848F958FA68FB78F8D8F9E8FAF8FB8A387
:1035B00080A191A1A2A1B3A149A15AA16BA17CA113
:1035C00084279527A627B72780A391A3A2A3B3A3F7
:1035D00089A39AA3ABA3BCA384A195A1A6A1B7A1DB
:1035E0004DA15EA16FA178A584279527A627B727AF
:1035F00084A395A3A6A3B7A38DA39EA3AFA3B8A7A7
:10360000A501B401C7010E942626A8960FB6F8941A
:10361000DEBF0FBECDBFDF91CF911F910F91FF9005
:10362000EF90DF90CF90BF90AF909F908F900895D4
:103630002F923F924F925F926F927F928F929F92C2
:10364000AF92BF92CF92DF92EF92FF920F931F93B0
:10365000CF93DF9300D01F92CDB7DEB79C838B83CF
:103660007B016A0159012115310509F02AC1D4C134
:10367000EB81FC8184AD95ADA6ADB7ADF2E08F27AF
:10368000EB81FC8184AF95AFA6AFB7AF64E0CF010B
:103690000E94F120D6014D915D916D917C91EB815D
:1036A000FC8180819181A281B38184279527A627FF
:1036B000B727F70180839183A283B383AB81BC8159
:1036C0004D935D936D937C931397F60144815581DF
:1036D00066817781FD0184819581A681B7818427E8
:1036E0009527A627B727F70184839583A683B783F9
:1036F000AB81BC8114964D935D936D937C9317972A
:10370000F6014085518562857385FD01808591852F
:10371000A285B38584279527A627B727F701808739
:103720009187A287B387AB81BC8118964D935D9337
:103730006D937C931B97F601448555856685778547
:10374000FD0184859585A685B78584279527A627BD
:10375000B727F70184879587A687B787AB81BC8198
:103760001C964D935D936D937C931F97F601408952
:10377000518962897389FD0180899189A289B38900
:1037800084279527A627B727F701808B918BA28BDB
:10379000B38BAB81BC8150964D935D936D937C93BD
:1037A0005397F6014489558966897789FD01848993
:1037B0009589A689B78984279527A627B727F70172
:1037C000848B958BA68BB78BAB81BC8154964D9324
:1037D0005D936D937C935797F601408D518D628D6B
:1037E000738DFD01808D918DA28DB38D84279527DA
:1037F000A627B727F701808F918FA28FB38FAB8158
:10380000BC8158964D935D936D937C935B97F601C5
:10381000448D558D668D778DFD01848D958DA68D9A
:10382000B78D84279527A627B727F701848F958F13
:10383000A68FB78FAB81BC815C964D935D936D93E2
:103840007C935F97F60140A151A162A173A1FD0194
:1038500080A191A1A2A1B3A184279527A627B7276C
:10386000F70180A391A3A2A3B3A3AB81BC819096DF
:103870004D935D936D937C939397F60144A155A16D
:1038800066A177A1FD0184A195A1A6A1B7A1842776
:103890009527A627B727F70184A395A3A6A3B7A3C7
:1038A000AB81BC8194964D935D936D937C93979778
:1038B000B8E2AB1AB108E8E2CE0ED11CF8E2EF0E86
:1038C000F11C28E2A216B10408F0D2CEEB81FC81F3
:1038D00084AD95ADA6ADB7ADF2E08F27EB81FC814D
:1038E00084AF95AFA6AFB7AF64E0CF010E94F120DF
:1038F000F501EC7F6B817C81E60FF71FD501A3708A
:10390000BB27BA83A9838D01000F111F000F111F60
:10391000000F111F21E030E040E050E060E070E077
:1039200080E090E00E94EC2519012A01408151813C
:103930006281738142255325642575254083518317
:1039400062837383EB81FC8144A155A166A177A1B9
:10395000705844A355A366A377A3B4E0AB16B10493
:1039600008F474C0A601B701C501DA010D911D91DB
:103970002D913D91AD014080518062807380402641
:10398000512662267326DB014D925D926D927D92E7
:10399000BD010193119321933193049784309105D4
:1039A00020F7C50104978C7F0496C80ED91EE80E37
:1039B000F91EE981FA81AB81BC81A80FB91F6C9116
:1039C00011969C91119712968C91129713965C9177
:1039D00013979C01EF2BB9F1F60140816427F701A1
:1039E0006083E981FA81329770F0F6013181932783
:1039F000F7019183E981FA81339728F0F60122815A
:103A00008227F70182834C9311963C93119712966B
:103A10002C93129713965C930F900F900F900F902A
:103A2000DF91CF911F910F91FF90EF90DF90CF909A
:103A3000BF90AF909F908F907F906F905F904F90CE
:103A40003F902F900895462F9C01DDCFBA82A98226
:103A500080E090E0F501AFCF4115510511F00C94D5
:103A6000D3140895EF92FF920F931F93CF93DF9398
:103A7000CDB7DEB7A8970FB6F894DEBF0FBECDBFA7
:103A80008C017B01FC0144AD55AD66AD77ADF8E02E
:103A90004F27FC0144AF55AF66AF77AF64E00E949B
:103AA000F12064E0C8010E94F12088E2F801DE0103
:103AB000119601900D928A95E1F780E1FE01319611
:103AC000D70101900D928A95E1F7E0910402F091FF
:103AD000050248E250E060E070E0CE0101961995E1
:103AE000E0910402F091050240E450E060E070E0F3
:103AF000C8011995A8960FB6F894DEBF0FBECDBFCA
:103B0000DF91CF911F910F91FF90EF900895FC01ED
:103B1000DB0180819C918927518111969C9111979D
:103B20005927928112962C911297922743811396CE
:103B30002C9113974227348114962C911497322795
:103B400015962C91159765812627952B942B932BF1
:103B5000922B892B16969C91169726819227892B5A
:103B600017969C91179727819227892B18969C91DD
:103B7000189720859227892B19969C911997218552
:103B80009227892B1A969C911A9722859227892B26
:103B90001B969C911B9723859227892B1C969C91A1
:103BA0001C9724859227892B1D969C911D9725850E
:103BB0009227892B1E969C911E9726859227892BEA
:103BC0001F969C9127859227892B90E0919581954E
:103BD0009109990F880B982F08952F923F924F9239
:103BE0005F926F927F928F929F92AF92BF92CF928D
:103BF000DF92EF92FF920F931F93CF93DF93CDB796
:103C0000DEB7CA56D1090FB6F894DEBF0FBECDBFDE
:103C10003C012B01AB965FAF4EAFAB971901D401BE
:103C2000C058DF4FE881F981C058D04048E85AE6D3
:103C30006FE374E249835A836B837C834D915D917A
:103C40006D917C9113974D835E836F837887149673
:103C50008D919D910D90BC91A02D89879A87AB87FE
:103C6000BC8783ED98E0A3EAB5E88D879E87AF8790
:103C7000B88B80819181A281B381898B9A8BAB8B28
:103C8000BC8B84819581A681B7818D8B9E8BAF8BF8
:103C9000B88F80859185A285B385898F9A8FAB8FE8
:103CA000BC8F84859585A685B7858D8F9E8FAF8FB8
:103CB000B8A38EE29AE8A9E1B3E189A39AA3ABA3E2
:103CC000BCA384E493E7A0E7B3E08DA39EA3AFA3D6
:103CD000B8A78AE793E5AFE4B5E289A79AA7ABA7AF
:103CE000BCA788E49DE1A3E5B8E38DA79EA7AFA795
:103CF000B8AB83E89EE6ACE9B3E889AB9AABABAB73
:103D0000BCAB85EE9AE3AAE7B9EF8DAB9EABAFAB48
:103D1000B8AF89E59BEFAAEEB1E121968CAF9DAFDC
:103D2000AEAFBFAF21978CE098E5A5E9BCE989AFBC
:103D30009AAFABAFBCAF64E0CE0101960E94F12018
:103D40002114310409F07FC09701A801B301CE010D
:103D500001960E94EE18A114B10431F0A501B6013C
:103D6000CE0101960E94D3146E0C7F1C21968CAD5F
:103D70009DADAEADBFAD219728E0822721968CAFD7
:103D80009DAFAEAFBFAF219764E0CE0101960E9418
:103D9000F12064E0CE0101960E94F12088E2FE014C
:103DA0003196DE01AF5BBF4F01900D928A95E1F72E
:103DB00080E1FE01EF5BFF4FD30101900D928A95E8
:103DC000E1F7E0910402F091050248E250E060E082
:103DD00070E0CE018F5B9F4F1995E0910402F09146
:103DE000050240E450E060E070E0CE0101961995D4
:103DF00080E1E80EF11CF201F182E082E091040220
:103E0000F091050240E450E060E070E0CE010196E0
:103E10001995C659DF4F0FB6F894DEBF0FBECDBF60
:103E2000DF91CF911F910F91FF90EF90DF90CF9096
:103E3000BF90AF909F908F907F906F905F904F90CA
:103E40003F902F900895A101AB966EAD7FADAB97DB
:103E5000CE0101960E94931677CF2F923F924F92F8
:103E60005F926F927F928F929F92AF92BF92CF920A
:103E7000DF92EF92FF920F931F93CF93DF93CDB713
:103E8000DEB7CA57D1090FB6F894DEBF0FBECDBF5B
:103E90003C012B011A01C057DF4F48815981C0599D
:103EA000D04080E1E816F10408F498C188E89AE669
:103EB000AFE3B4E289839A83AB83BC83F40180814E
:103EC0009181A281B3818D839E83AF83B8878481E2
:103ED0009581A681B78189879A87AB87BC8783ED57
:103EE00098E0A3EAB5E88D879E87AF87B88BFA0183
:103EF00080819181A281B381898B9A8BAB8BBC8BA2
:103F000084819581A681B7818D8B9E8BAF8BB88F75
:103F100080859185A285B385898F9A8FAB8FBC8F61
:103F200084859585A685B7858D8F9E8FAF8FB8A325
:103F30008EE29AE8A9E1B3E189A39AA3ABA3BCA35B
:103F400084E493E7A0E7B3E08DA39EA3AFA3B8A753
:103F50008AE793E5AFE4B5E289A79AA7ABA7BCA728
:103F600088E49DE1A3E5B8E38DA79EA7AFA7B8AB12
:103F700083E89EE6ACE9B3E889AB9AABABABBCABEC
:103F800085EE9AE3AAE7B9EF8DAB9EABAFABB8AFC6
:103F900089E59BEFAAEEB1E121968CAF9DAFAEAF64
:103FA000BFAF21978CE098E5A5E9BCE989AF9AAF4E
:103FB000ABAFBCAF64E0CE010196EA962FAFEA97B3
:103FC000EB963FAFEB970E94F120EA962FADEA9770
:103FD000EB963FADEB972115310509F0E7C0F0E115
:103FE000EF1AF1089701A801B301CE0101960E94D2
:103FF000181BA114B10409F0EAC021968CAD9DAD47
:10400000AEADBFAD219728E0822721968CAF9DAF42
:10401000AEAFBFAF219764E0CE0101960E94F120C0
:1040200064E0CE0101960E94F12088E2FE01319603
:10403000DE01AF5BBF4F01900D928A95E1F780E101
:10404000FE01EF5BFF4FDE01A759BF4F01900D92BC
:104050008A95E1F7E0910402F091050248E250E010
:1040600060E070E0CE018F5B9F4F1995E0910402F4
:10407000F091050240E450E060E070E0CE0101966E
:104080001995F201F182E082F801EE0DFF1D008129
:10409000AA968FADAA970827B180AB968FADAB9744
:1040A000B8268281AC969FADAC978927C380AD9628
:1040B0009FADAD97C926D480AE969FADAE97D92659
:1040C0001581AF969FADAF971927B681E0969FAD4A
:1040D000E097B927A781E1969FADE197A927708561
:1040E000E2969FADE29779276185E3969FADE397CE
:1040F00069275285E4969FADE49759274385E59655
:104100009FADE59749273485E6969FADE697392719
:104110002585E7969FADE79729279685E896AFAC6A
:10412000E8979A25E996AFACE997E785AE268A2904
:104130008B298C298D29812B8B2B8A2B872B862BE6
:10414000852B842B832B822B892B082B10E0119538
:1041500001951109110F000B102F0115110569F5BB
:10416000E0910402F091050240E450E060E070E06C
:10417000CE0101961995C801C658DF4F0FB6F894C5
:10418000DEBF0FBECDBFDF91CF911F910F91FF908A
:10419000EF90DF90CF90BF90AF909F908F907F90E7
:1041A0006F905F904F903F902F900895A901B101BB
:1041B000CE0101960E94931612CFE0910402F09175
:1041C0000502A70160E070E0C3011995C9CFA50100
:1041D000B601CE0101960E94D3140FCF0FEF1FEF4F
:1041E000CACF2F923F924F925F926F927F928F929F
:1041F0009F92AF92BF92CF92DF92EF92FF920F9376
:104200001F93CF93DF93FC01D62E20803180428014
:1042100053806480758086809780A084B184C28436
:10422000208931894289538960A171A182A193A11A
:10423000A0A9B1A9C2A9D3A9010122260222000C7A
:104240002024A22533261322111C3124B325020178
:1042500044260422001C4024C42555261522111C86
:104260005124D5250B016B270B22000C6025262736
:104270007C271C22111C712537270C018D270D224C
:10428000001C802548279A271A22111C912559279E
:10429000022E06945795479537952795022E06943A
:1042A0005795479537952795022E0694579547952C
:1042B00037952795010123260322000C2024B225DF
:1042C00034261422111C3124C3250201452605225F
:1042D000001C4024D42552261222111C5124A5254D
:1042E0000B016D270D22000C602536277A271A2234
:1042F000111C712547270C018B270B22001C8025E0
:1043000058279C271C22111C91252927022E001CAE
:10431000331F441F551F221F308B418B528B238B21
:1043200060A371A382A393A3D0ABA1ABB2ABC3AB89
:10433000248935894689578964A175A186A197A1E9
:10434000A4A9B5A9C6A9D7A9030162260222000C17
:104350006024A62573261322111C7124B72504019D
:1043600084260422001C8024C82595261522111CB1
:104370009124D9250B016B270B22000C60252627E1
:104380007C271C22111C712537270C018D270D223B
:10439000001C802548279A271A22111C912559278D
:1043A000022E06945795479537952795022E069429
:1043B0005795479537952795022E0694579547951B
:1043C00037952795030163260322000C6024B62548
:1043D00074261422111C7124C72504018526052288
:1043E000001C8024D82592261222111C9124A92574
:1043F0000B016D270D22000C602536277A271A2223
:10440000111C712547270C018B270B22001C8025CE
:1044100058279C271C22111C91252927022E001C9D
:10442000331F441F551F221F348B458B568B278B00
:1044300064A375A386A397A3D4ABA5ABB6ABC7AB58
:104440001385208D318D428D538D60A571A582A578
:1044500093A5A0ADB1ADC2ADD3AD0501A226022298
:10446000000CA024AA25B3261322111CB124BB25BD
:104470000C2CC4260422001CC024CC25112E152788
:104480001522111C1125D1270B016B270B22000CC3
:10449000602526277C271C22111C712537270C013B
:1044A0008D270D22001C802548279A271A22111CCF
:1044B00091255927022E06945795479537952795AC
:1044C000022E06945795479537952795022E069408
:1044D00057954795379527950501A3260322000C8C
:1044E000A024BA25B4261422111CB124CB250C2CEF
:1044F000C5260522001CC024DC25112E12271222FD
:10450000111C1125A1270B016D270D22000C602520
:1045100036277A271A22111C712547270C018B2771
:104520000B22001C802558279C271C22111C91253A
:104530002927022E001C331F441F551F221F1387DB
:10454000308F418F528F238F60A771A782A793A7C7
:10455000D0AFA1AFB2AFC3AFE484F58406851785B1
:10456000248D358D468D578D64A575A586A597A597
:10457000A4ADB5ADC6ADD7AD0701E2260222000C51
:10458000E024AE25F3261322111CF124BF250801D7
:1045900004270422001C0025C02715271522111C02
:1045A0001125D1270B016B270B22000C6025262734
:1045B0007C271C22111C712537270C018D270D2209
:1045C000001C802548279A271A22111C912559275B
:1045D000022E06945795479537952795022E0694F7
:1045E0005795479537952795022E069457954795E9
:1045F000379527950701E3260322000CE024BE250A
:10460000F4261422111CF124CF25080105270522C8
:10461000001C0025D02712271222111C1125A127CA
:104620000B016D270D22000C602536277A271A22F0
:10463000111C712547270C018B270B22001C80259C
:1046400058279C271C22111C91252927022E001C6B
:10465000331F441F551F221FE486F58606871787E0
:10466000348F458F568F278F64A775A786A797A786
:10467000248935894689578960A571A582A593A5A6
:10468000010122260222000C2024D22533261322E7
:10469000111C3124A325020144260422001C4024BD
:1046A000B42555261522111C5124C5250B016A2756
:1046B0000A22000C602526277B271B22111C71254E
:1046C00037270C018C270C22001C802548279D27AA
:1046D0001D22111C91255927022E069457954795A6
:1046E00037952795022E0694579547953795279528
:1046F000022E069457954795379527950101232655
:104700000322000C2024A22534261422111C31245B
:10471000B325020145260522001C4024C42552264B
:104720001222111C5124D5250B016C270C22000CE0
:10473000602536277D271D22111C712547270C0176
:104740008A270A22001C802558279B271B22111C20
:1047500091252927022E001C331F441F551F221F9D
:10476000348B458B568B278B60A771A782A793A7A5
:10477000C4AFD5AFA6AFB7AF208D318D428D538D6D
:1047800064A575A586A597A5A0A9B1A9C2A9D3A915
:10479000030162260222000C6024A6257326132240
:1047A000111C7124B725040184260422001C8024D6
:1047B000C82595261522111C9124D9250B016B279C
:1047C0000B22000C602526277C271C22111C71253A
:1047D00037270C018D270D22001C802548279A279A
:1047E0001A22111C91255927022E06945795479598
:1047F00037952795022E0694579547953795279517
:10480000022E069457954795379527950301632601
:104810000322000C6024B62574261422111C712476
:10482000C725040185260522001C8024D825922650
:104830001222111C9124A9250B016D270D22000CB9
:10484000602536277A271A22111C712547270C016B
:104850008B270B22001C802558279C271C22111C0B
:1048600091252927022E001C331F441F551F221F8C
:10487000308F418F528F238F64A775A786A797A784
:10488000D0ABA1ABB2ABC3AB1385248D358D468DB8
:10489000578D60A171A182A193A1A4A9B5A9C6A9B0
:1048A000D7A90501A2260222000CA024AA25B3261E
:1048B0001322111CB124BB250C2CC4260422001C7D
:1048C000C024CC25112E15271522111C1125D12706
:1048D0000B016B270B22000C602526277C271C224E
:1048E000111C712537270C018D270D22001C8025F6
:1048F00048279A271A22111C91255927022E06941F
:104900005795479537952795022E069457954795C5
:1049100037952795022E06945795479537952795F5
:104920000501A3260322000CA024BA25B4261422D4
:10493000111CB124CB250C2CC5260522001CC0243B
:10494000DC25112E12271222111C1125A1270B0183
:104950006D270D22000C602536277A271A22111C9C
:10496000712547270C018B270B22001C8025582717
:104970009C271C22111C91252927022E001C331F65
:10498000441F551F221F1387348F458F568F278F43
:1049900060A371A382A393A3D4ABA5ABB6ABC7AB03
:1049A000E484F584068517852089318942895389F5
:1049B00064A175A186A197A1A0ADB1ADC2ADD3ADE3
:1049C0000701E2260222000CE024AE25F326132282
:1049D000111CF124BF25080104270422001C002516
:1049E000C02715271522111C1125D1270B016B2774
:1049F0000B22000C602526277C271C22111C712508
:104A000037270C018D270D22001C802548279A2767
:104A10001A22111C91255927022E06945795479565
:104A200037952795022E06945795479537952795E4
:104A3000022E069457954795379527950701E3264B
:104A40000322000CE024BE25F4261422111CF124BC
:104A5000CF25080105270522001C0025D027122795
:104A60001222111C1125A1270B016D270D22000C0C
:104A7000602536277A271A22111C712547270C0139
:104A80008B270B22001C802558279C271C22111CD9
:104A900091252927022E001C331F441F551F221F5A
:104AA000E486F58606871787308B418B528B238BE4
:104AB00064A375A386A397A3D0AFA1AFB2AFC3AFD2
:104AC000DA9409F0ADCB2082318242825382648233
:104AD000758286829782A086B186C2861124DF9174
:104AE000CF911F910F91FF90EF90DF90CF90BF90EB
:104AF000AF909F908F907F906F905F904F903F907E
:104B00002F9008950E942E050E94DC010E94A606A7
:104B10000E94720B80E090E00895689401C0E894D0
:104B20008F929F92CF93DF930E949B25DF91CF912D
:104B30009F908F90089588249924F401E401B0E4B3
:104B40009F93AA279A158B049C04ED05FE05CF05BB
:104B5000D007A10798F4AD2FDC2FCF2FFE2FE92D22
:104B6000982C892E982F872F762F652F542F432F1F
:104B7000322F2227B85031F7BF9127C01B2EBF918B
:104B8000BB27220F331F441F551F661F771F881F27
:104B9000991F881C991CEE1FFF1FCC1FDD1FAA1F29
:104BA000BB1F8A149B04EC05FD05CE05DF05A0079D
:104BB000B10748F08A189B08EC09FD09CE09DF0906
:104BC000A00BB10B21601A94E1F62EF49401AF0111
:104BD000BE01CD01000C08950F93083090F0982F7E
:104BE000872F762F652F542F432F322F22270850DF
:104BF000F4CF220F331F441F551F661F771F881FD6
:104C0000991F0A95B2F70F9108950024A7FD00940B
:104C10002A0F301D401D501D601D701D801D901DF0
:104C200008952A193B094C095D096E097F09800B1B
:104C3000910B08950024A7FD00942A173005400524
:104C4000500560057005800590050895FB01DC01A5
:104C500002C001900D9241505040D8F70895DC01F8
:104C600001C06D9341505040E0F708950F931F939A
:104C7000CF93DF93CDB7DEB72E970FB6F894DEBF94
:104C80000FBECDBF0E891F8986E08C831A830983EE
:104C90008FEF9FE79E838D83AE01465E5F4F688DE9
:104CA000798DCE0101960E946526EF81F885E00F8F
:104CB000F11F10822E960FB6F894DEBF0FBECDBF47
:104CC000DF91CF911F910F9108952F923F924F92B4
:104CD0005F926F927F928F929F92AF92BF92CF928C
:104CE000DF92EF92FF920F931F93CF93DF93CDB795
:104CF000DEB72C970FB6F894DEBF0FBECDBF7C0198
:104D00006B018A01FC0117821682838181FFBDC17C
:104D1000CE0101964C01F7019381F60193FD859137
:104D200093FF81916F01882309F4ABC1853239F477
:104D300093FD859193FF81916F01853229F4B7012D
:104D400090E00E947628E7CF512C312C20E02032D1
:104D5000A0F48B3269F030F4803259F0833269F478
:104D600020612CC08D3239F0803339F4216026C0A7
:104D70002260246023C0286021C027FD27C030EDB9
:104D8000380F3A3078F426FF06C0FAE05F9E300D07
:104D90001124532E13C08AE0389E300D1124332E77
:104DA00020620CC08E3221F426FD6BC1206406C047
:104DB0008C3611F4206802C0883641F4F60193FD68
:104DC000859193FF81916F018111C1CF982F9F7DB4
:104DD0009554933028F40C5F1F4FFFE3F9830DC007
:104DE000833631F0833771F0833509F05BC022C020
:104DF000F801808189830E5F1F4F44244394512C16
:104E0000540115C03801F2E06F0E711CF801A0804A
:104E1000B18026FF03C0652D70E002C06FEF7FEF09
:104E2000C5012C870E946B282C0183012C852F77CC
:104E3000222E17C03801F2E06F0E711CF801A0801D
:104E4000B18026FF03C0652D70E002C06FEF7FEFD9
:104E5000C5012C870E9460282C012C852068222EF9
:104E6000830123FC1BC0832D90E048165906B0F443
:104E7000B70180E290E00E9476283A94F4CFF501E1
:104E800027FC859127FE81915F01B70190E00E9488
:104E9000762831103A94F1E04F1A51084114510428
:104EA00071F7E5C0843611F0893639F5F80127FF2E
:104EB00007C060817181828193810C5F1F4F08C0A0
:104EC00060817181882777FD8095982F0E5F1F4F35
:104ED0002F76B22E97FF09C09095809570956195B9
:104EE0007F4F8F4F9F4F2068B22E2AE030E0A40101
:104EF0000E94A828A82EA81844C0853729F42F7E20
:104F0000B22E2AE030E025C0F22FF97FBF2E8F3677
:104F1000C1F018F4883579F0B4C0803719F08837BB
:104F200021F0AFC02F2F2061B22EB4FE0DC08B2D0B
:104F30008460B82E09C024FF0AC09F2F9660B92E46
:104F400006C028E030E005C020E130E002C020E1EA
:104F500032E0F801B7FE07C06081718182819381E0
:104F60000C5F1F4F06C06081718180E090E00E5F92
:104F70001F4FA4010E94A828A82EA818FB2DFF7778
:104F8000BF2EB6FE0BC02B2D2E7FA51450F4B4FE01
:104F90000AC0B2FC08C02B2D2E7E05C07A2C2B2D0A
:104FA00003C07A2C01C0752C24FF0DC0FE01EA0D50
:104FB000F11D8081803311F4297E09C022FF06C0D3
:104FC0007394739404C0822F867809F0739423FD40
:104FD00013C020FF06C05A2C731418F4530C571832
:104FE000732C731468F4B70180E290E02C870E9460
:104FF000762873942C85F5CF731410F4371801C0FC
:10500000312C24FF12C0B70180E390E02C870E946E
:1050100076282C8522FF17C021FF03C088E590E089
:1050200002C088E790E0B7010CC0822F867859F063
:1050300021FD02C080E201C08BE227FD8DE2B701B5
:1050400090E00E947628A51438F4B70180E390E040
:105050000E9476285A94F7CFAA94F401EA0DF11D24
:105060008081B70190E00E947628A110F5CF33200F
:1050700009F451CEB70180E290E00E9476283A947C
:10508000F6CFF7018681978102C08FEF9FEF2C96B4
:105090000FB6F894DEBF0FBECDBFDF91CF911F9149
:1050A0000F91FF90EF90DF90CF90BF90AF909F90C7
:1050B0008F907F906F905F904F903F902F900895CA
:1050C000FC010590615070400110D8F780959095D3
:1050D0008E0F9F1F0895FC016150704001900110D8
:1050E000D8F7809590958E0F9F1F08950F931F936B
:1050F000CF93DF93182F092FEB018B8181FD03C024
:105100008FEF9FEF20C082FF10C04E815F812C8106
:105110003D81421753077CF4E881F9819F012F5F9D
:105120003F4F39832883108306C0E885F985812F96
:105130001995892B29F72E813F812F5F3F4F3F83A0
:105140002E83812F902FDF91CF911F910F91089582
:10515000FA01AA27283051F1203181F1E8946F93A8
:105160006E7F6E5F7F4F8F4F9F4FAF4FB1E03ED04E
:10517000B4E03CD0670F781F891F9A1FA11D680FEC
:10518000791F8A1F911DA11D6A0F711D811D911D1F
:10519000A11D20D009F468943F912AE0269F112494
:1051A0003019305D3193DEF6CF010895462F4770F8
:1051B000405D4193B3E00FD0C9F7F6CF462F4F7053
:1051C000405D4A3318F0495D31FD4052419302D0B1
:1051D000A9F7EACFB4E0A695979587957795679557
:1051E000BA95C9F700976105710508959B01AC0157
:1051F0000A2E06945795479537952795BA95C9F77E
:10520000620F731F841F951FA01D0895F894FFCF90
:105210002F262F262F26435055206379636C657304
:10522000206F66204E4F525820656E6372797074FD
:10523000696F6E3A200A004379636C657320666F6C
:105240007220656E6372797074696E67206D657324
:1052500073616765206F662073697A6520002C2072
:105260006379636C65732F627974653A20004350EB
:1052700055206379636C657320666F72200020721D
:105280006F756E6473206F6620463A20002C2000F4
:10529000206379636C65732F726F756E64004E4F77
:1052A000525820706172747320616E642063796358
:1052B0006C65732028382D62797465206D65737371
:1052C000616765293A0A2D2D2D2D2D2D2D2D2D2D82
:1052D0002D2D2D2D2D2D2D2D2D2D2D2D2D2D2D2DFE
:1052E0002D2D2D0A00496E697469616C697A6174AB
:1052F000696F6E3A090900486561646572207072D1
:105300006F63657373696E673A09005061796C6FFA
:1053100061642070726F63657373696E673A090028
:10532000547261696C65722070726F636573736922
:105330006E673A09004F757470757474696E6720F2
:105340007461673A090900546F74616C3A0909097C
:10535000000A0A0025752A325E2825642A38292B7E
:105360000025752A325E2825642A382929003078DC
:0653700000253032780038
:00000001FF
